{
  "transactions": [
    {
      "hash": "0x43a6d102bfb1ea4b80eea1af9014084680ad84d4d90f7f27af22c54e83f19072",
      "transactionType": "CALL",
      "contractName": null,
      "contractAddress": "0xc04d1a30cb486b7b0afa9efd2228f3f975015db3",
      "function": "setCurrentEpoch(uint256)",
      "arguments": [
        "1"
      ],
      "transaction": {
        "from": "0x91935e2e959fb504640280c08530156c67f89479",
        "to": "0xc04d1a30cb486b7b0afa9efd2228f3f975015db3",
        "gas": "0x105a9",
        "value": "0x0",
        "input": "0x1dd6b9b10000000000000000000000000000000000000000000000000000000000000001",
        "nonce": "0x8f",
        "chainId": "0x38"
      },
      "additionalContracts": [],
      "isFixedGasLimit": false
    }
  ],
  "receipts": [
    {
      "status": "0x1",
      "cumulativeGasUsed": "0x12dc7b5",
      "logs": [],
      "logsBloom": "0x00000000000000000000000000000000000000000000000000000000000000000000000000000000000000000000000000000000000000000000000000000000000000000000000000000000000000000000000000000000000000000000000000000000000000000000000000000000000000000000000000000000000000000000000000000000000000000000000000000000000000000000000000000000000000000000000000000000000000000000000000000000000000000000000000000000000000000000000000000000000000000000000000000000000000000000000000000000000000000000000000000000000000000000000000000000",
      "type": "0x0",
      "transactionHash": "0x43a6d102bfb1ea4b80eea1af9014084680ad84d4d90f7f27af22c54e83f19072",
      "transactionIndex": "0x84",
      "blockHash": "0x60d214f76e781c3427e02d3c7adf5c6152ba719f590b2f853fe415a3092d5df9",
      "blockNumber": "0x4009ca7",
      "gasUsed": "0xb2ea",
      "effectiveGasPrice": "0x2faf080",
      "from": "0x91935e2e959fb504640280c08530156c67f89479",
      "to": "0xc04d1a30cb486b7b0afa9efd2228f3f975015db3",
      "contractAddress": null
    }
  ],
  "libraries": [],
  "pending": [],
  "returns": {},
  "timestamp": 1762362689,
  "chain": 56,
  "commit": "cc61163"
}