{
  "transactions": [
    {
      "hash": "0x6a05418039bb31caf201a1ef16c774e76e7c02e8e942774236d4ca5d1fa936a3",
      "transactionType": "CALL",
      "contractName": null,
      "contractAddress": "0x3b4300d9139bab1e5f604811f412b6588d0e81e6",
      "function": "setPresaleActive(bool)",
      "arguments": [
        "true"
      ],
      "transaction": {
        "from": "0x91935e2e959fb504640280c08530156c67f89479",
        "to": "0x3b4300d9139bab1e5f604811f412b6588d0e81e6",
        "gas": "0xfe8e",
        "value": "0x0",
        "input": "0x3f8121a20000000000000000000000000000000000000000000000000000000000000001",
        "nonce": "0x95",
        "chainId": "0x38"
      },
      "additionalContracts": [],
      "isFixedGasLimit": false
    }
  ],
  "receipts": [
    {
      "status": "0x1",
      "cumulativeGasUsed": "0x11ed33c",
      "logs": [
        {
          "address": "0x3b4300d9139bab1e5f604811f412b6588d0e81e6",
          "topics": [
            "0x1f1a6b0fcc71315f2c3aeddbd1f6d527595d21eea9b73160e78d6fa49b7897a6"
          ],
          "data": "0x0000000000000000000000000000000000000000000000000000000000000001",
          "blockHash": "0x54c630360109ef0df1d345a98f261274dfdb1c04621e3991c700afd8952c107e",
          "blockNumber": "0x40162fe",
          "blockTimestamp": "0x690c1a03",
          "transactionHash": "0x6a05418039bb31caf201a1ef16c774e76e7c02e8e942774236d4ca5d1fa936a3",
          "transactionIndex": "0x84",
          "logIndex": "0x238",
          "removed": false
        }
      ],
      "logsBloom": "0x00000000000010000000000000000000000000000000000000000000000000000000000000000000000000000000000000000000000000000000010000000000000000000000000000000000000000000000000000000000000000000000000000000000000000000020000000000000000000000000000000000000000000000000000100000000000000000000000000000000000000000000000000000000000000000000000000000000000000000000000000000000000000000000000000000000000000100000000000000000000000000000000000000000000000000000000000000000000000000000000000000000000000000000000100000000",
      "type": "0x0",
      "transactionHash": "0x6a05418039bb31caf201a1ef16c774e76e7c02e8e942774236d4ca5d1fa936a3",
      "transactionIndex": "0x84",
      "blockHash": "0x54c630360109ef0df1d345a98f261274dfdb1c04621e3991c700afd8952c107e",
      "blockNumber": "0x40162fe",
      "gasUsed": "0xb84c",
      "effectiveGasPrice": "0x2faf080",
      "from": "0x91935e2e959fb504640280c08530156c67f89479",
      "to": "0x3b4300d9139bab1e5f604811f412b6588d0e81e6",
      "contractAddress": null
    }
  ],
  "libraries": [],
  "pending": [],
  "returns": {},
  "timestamp": 1762400772,
  "chain": 56,
  "commit": "a574fda"
}