{
  "transactions": [
    {
      "hash": "0x96c43610c80478dcb530344027863f9c4acec82057a6ea9103192ba14a509bef",
      "transactionType": "CALL",
      "contractName": null,
      "contractAddress": "0x3b4300d9139bab1e5f604811f412b6588d0e81e6",
      "function": "configurePresale(uint256,bool,uint256)",
      "arguments": [
        "50000000000000000",
        "false",
        "0"
      ],
      "transaction": {
        "from": "0x91935e2e959fb504640280c08530156c67f89479",
        "to": "0x3b4300d9139bab1e5f604811f412b6588d0e81e6",
        "gas": "0x12bf5",
        "value": "0x0",
        "input": "0xaa4f2f3b00000000000000000000000000000000000000000000000000b1a2bc2ec5000000000000000000000000000000000000000000000000000000000000000000000000000000000000000000000000000000000000000000000000000000000000",
        "nonce": "0x94",
        "chainId": "0x38"
      },
      "additionalContracts": [],
      "isFixedGasLimit": false
    }
  ],
  "receipts": [
    {
      "status": "0x1",
      "cumulativeGasUsed": "0xf6acf8",
      "logs": [
        {
          "address": "0x3b4300d9139bab1e5f604811f412b6588d0e81e6",
          "topics": [
            "0xa03380fc9d50bdc9c22b5e27c197b2aaa0ebd6b9d4ce1aed8878a6c2e94cb600"
          ],
          "data": "0x00000000000000000000000000000000000000000000000000b1a2bc2ec5000000000000000000000000000000000000000000000000000000000000000000000000000000000000000000000000000000000000000000000000000000000000",
          "blockHash": "0x88206d237a2ef68440d131f07dd0fa5a02351a3875c20145d01950afe4ead4c5",
          "blockNumber": "0x40162c0",
          "blockTimestamp": "0x690c19d5",
          "transactionHash": "0x96c43610c80478dcb530344027863f9c4acec82057a6ea9103192ba14a509bef",
          "transactionIndex": "0x77",
          "logIndex": "0x1d4",
          "removed": false
        }
      ],
      "logsBloom": "0x00000000000010000000000000000000000000000000000000000000000000000000000000000000000000000000000000000000000000000000000000000000000000000000000000000000000000000000000000000000000000000000000000000000000000000000000000000000000000000000000000000000000000200000000100000000000000000000000000000000000000000000000000000000000000000000000000000000000000000000000000000000000000000000000400000000000000100000000000000002000000000000000000000000000000000000000000000000000000000000000000000000000000000000000000000000",
      "type": "0x0",
      "transactionHash": "0x96c43610c80478dcb530344027863f9c4acec82057a6ea9103192ba14a509bef",
      "transactionIndex": "0x77",
      "blockHash": "0x88206d237a2ef68440d131f07dd0fa5a02351a3875c20145d01950afe4ead4c5",
      "blockNumber": "0x40162c0",
      "gasUsed": "0xcd1a",
      "effectiveGasPrice": "0x2faf080",
      "from": "0x91935e2e959fb504640280c08530156c67f89479",
      "to": "0x3b4300d9139bab1e5f604811f412b6588d0e81e6",
      "contractAddress": null
    }
  ],
  "libraries": [],
  "pending": [],
  "returns": {},
  "timestamp": 1762400726,
  "chain": 56,
  "commit": "a574fda"
}