{
  "transactions": [
    {
      "hash": "0x1849ab2cf526a0a1dd3781747af15635baea62b06180e6e462ab9319889f653b",
      "transactionType": "CALL",
      "contractName": null,
      "contractAddress": "0x21cca8546b1550ee47134af86ae929c1fa3671c9",
      "function": "configurePresale(uint256,bool,uint256)",
      "arguments": [
        "5000000000000000",
        "false",
        "0"
      ],
      "transaction": {
        "from": "0x91935e2e959fb504640280c08530156c67f89479",
        "to": "0x21cca8546b1550ee47134af86ae929c1fa3671c9",
        "gas": "0x11ba0",
        "value": "0x0",
        "input": "0xaa4f2f3b0000000000000000000000000000000000000000000000000011c37937e0800000000000000000000000000000000000000000000000000000000000000000000000000000000000000000000000000000000000000000000000000000000000",
        "nonce": "0xb1",
        "chainId": "0x38"
      },
      "additionalContracts": [],
      "isFixedGasLimit": false
    }
  ],
  "receipts": [
    {
      "status": "0x1",
      "cumulativeGasUsed": "0x11f2381",
      "logs": [
        {
          "address": "0x21cca8546b1550ee47134af86ae929c1fa3671c9",
          "topics": [
            "0xa03380fc9d50bdc9c22b5e27c197b2aaa0ebd6b9d4ce1aed8878a6c2e94cb600"
          ],
          "data": "0x0000000000000000000000000000000000000000000000000011c37937e0800000000000000000000000000000000000000000000000000000000000000000000000000000000000000000000000000000000000000000000000000000000000",
          "blockHash": "0x6cdd76971fc595e0001ea7282f31098605597f08c2b6a53c44e9bf8c0dd391fd",
          "blockNumber": "0x4137e0b",
          "blockTimestamp": "0x6919aed4",
          "transactionHash": "0x1849ab2cf526a0a1dd3781747af15635baea62b06180e6e462ab9319889f653b",
          "transactionIndex": "0x94",
          "logIndex": "0x22c",
          "removed": false
        }
      ],
      "logsBloom": "0x00000000000000000000000000000000000000000000000000000000000000000000000000000020000000000000000000000000000000000000000000000000000000000000000000000000000000000000000000000000000000000000000000000000000000000000000000008000000000000000000000000000000000200000000000000000000000000000000000000000000000000000000000000000000000000000000000000000000000000000000000000000000000000000000400000000000000000000000000000002000000000000000000000000000000000000000000000000000000000000000000000000000000000000100000000000",
      "type": "0x0",
      "transactionHash": "0x1849ab2cf526a0a1dd3781747af15635baea62b06180e6e462ab9319889f653b",
      "transactionIndex": "0x94",
      "blockHash": "0x6cdd76971fc595e0001ea7282f31098605597f08c2b6a53c44e9bf8c0dd391fd",
      "blockNumber": "0x4137e0b",
      "gasUsed": "0xcd58",
      "effectiveGasPrice": "0x2faf080",
      "from": "0x91935e2e959fb504640280c08530156c67f89479",
      "to": "0x21cca8546b1550ee47134af86ae929c1fa3671c9",
      "contractAddress": null
    }
  ],
  "libraries": [],
  "pending": [],
  "returns": {},
  "timestamp": 1763290837,
  "chain": 56,
  "commit": "311ead3"
}