{
  "transactions": [
    {
      "hash": "0xb20ab0d2c9020b1e51e61b3356ef2cff7925dcc0dbfa2fd1fafb4ca8a19949b4",
      "transactionType": "CALL",
      "contractName": null,
      "contractAddress": "0x21cca8546b1550ee47134af86ae929c1fa3671c9",
      "function": "setAllocations(address[],uint256[])",
      "arguments": [
        "[0x19dd29a26fC4Fd3fdB8A9e00C700B566dB9C0051, 0x5973D69b456Aa9440736B5D78f71a4e7B84648B8, 0x0035b8719b81a7E14Df7b1F1A4332802C6a5fAc0, 0x5017d464C1b281EDf6EC773f589f4ECCD122A2B5, 0x08DCBaB72527B84e23fC1F2367021DAE230add55, 0xaae3997631080f4d2ce4735B8e6808Aedd066B4e, 0xd77AEeacDc1b0dbDcd3Ee9D325d2344DacFC3426, 0xfd3c63944Ce2C19C13259F24c77a540F370a46A5, 0x06ee2A18BCe68854Cc0108c639905B31e794E43D, 0x9b675Beb17219a86B35A4137a0621C198189e889, 0xEC01327E44968f34876375eB04EA01e6e967Bf7a, 0x94a04fdC1d2e7C9cfCF75F3b053e28DBb99B5bcc, 0x4B60B9D1d87594Dd83730d0fB6381565FB7DdA14, 0xAD48AB230FB0F6a0d2c16a0704b2984F19C3FbAE, 0x657d68B48F20e36256240BA31AdcC9A8537e05Bd, 0x63710CC0CF066Df113Cb5f02d45b8AC78FdcBA71, 0xc2d94FDe1d740f236606603dBb5ADcf337035116, 0x8079bCD673Bced3798538151E18e972C17472B2f, 0xbe435B47EEf09786Cd8C855e6899E65da04fDB98, 0x92E3B7d7EAAE348a0e59db4E8f594Ba71E480169, 0x44C71D48EAa0f82E6f4f556C62988a28d2d3EC32, 0xda39934a2Df239Ea36eF1C5060a4Ce0cB8C1383c, 0xcF6E12f9fb6611eA8C0f2098c7DD0aEE4C9fe5b1, 0x6BA06b2b0f3E50992C51Ce8569116Ed1c2cF18E4, 0x6B86553e9173fdB8B59B57714d397a721a5ae52b, 0x729B81172203D19F4F623679C4d75001E257D76a, 0xf8F5c58252BC29f525451DF48EA7b148FcF26e9f, 0x838A82f8865Ad0862A8599e245bD1971B99b96C6, 0x1D6c19811D3F16fe9e881125E040F4B36AEC9495, 0x7C5fFCA1DED4ffa6F388123aD192b33a707fAC32, 0xD6C26416c8D8aBCC63555a6fAfCdE2bb97e6b347, 0xb70a63a0F7cBccE8E464FFC6245CcD80236855Ef, 0xD1D1b359C1161c331958D6C079A1E38Cb60DFa2f, 0x0d3F914A59a5a8bc1812C1C3A08827B819274774, 0x457F195cd0c5C0Db9f8D42B86831c026Ae1C9A22, 0xeFafE3F1314ec17201B4785102963b1Fa4Bd8012, 0xb4A0EE1168286F287F612Cb34FFC7184A2eB3B8c, 0xBa91669d31d989ff15eE11a28A31b14EEbF69c81, 0x12125240752b5f373FF4A20E47D8D700D785a904, 0x54C28C8cA21f1D5E0bFAE098FCaED23Dbcc30BcB, 0x3F17587D0265a9c569151c211253A5789cF0feB6, 0xcDd1D68dC51c14c8dFc398867fc4CA9C34e0b42D, 0xf97207B95138b23d225FdAbee33e48B5f5975b33, 0x533D368Ad9A099d1001B90FcA160603829F08647, 0xD87C4665C4F41A46136cED2d10c4424f269458dC, 0x79c5D862c0FB46091194Ae2f893e4817A2E5CB4C, 0x8519d73f56E160336CDF69fb114f803Ba149c764, 0x4E29C9F65886862ec9EeF6C1D4d9a2FC4D9Ae14F, 0x9E6343360065b844B6dBBD72a3bE2EdD3979d0d0, 0x28D5273Fdaba6bB9092E5FFa864688F763064694]",
        "[500000000000000000000, 500000000000000000000, 500000000000000000000, 500000000000000000000, 500000000000000000000, 500000000000000000000, 500000000000000000000, 500000000000000000000, 500000000000000000000, 500000000000000000000, 500000000000000000000, 500000000000000000000, 500000000000000000000, 500000000000000000000, 500000000000000000000, 500000000000000000000, 500000000000000000000, 500000000000000000000, 500000000000000000000, 500000000000000000000, 500000000000000000000, 500000000000000000000, 500000000000000000000, 500000000000000000000, 500000000000000000000, 500000000000000000000, 500000000000000000000, 500000000000000000000, 500000000000000000000, 500000000000000000000, 500000000000000000000, 500000000000000000000, 500000000000000000000, 500000000000000000000, 500000000000000000000, 500000000000000000000, 500000000000000000000, 500000000000000000000, 500000000000000000000, 500000000000000000000, 500000000000000000000, 500000000000000000000, 500000000000000000000, 500000000000000000000, 500000000000000000000, 500000000000000000000, 500000000000000000000, 500000000000000000000, 500000000000000000000, 500000000000000000000]"
      ],
      "transaction": {
        "from": "0x91935e2e959fb504640280c08530156c67f89479",
        "to": "0x21cca8546b1550ee47134af86ae929c1fa3671c9",
        "gas": "0x1ca642",
        "value": "0x0",
        "input": "0x1ff64acd000000000000000000000000000000000000000000000000000000000000004000000000000000000000000000000000000000000000000000000000000006a0000000000000000000000000000000000000000000000000000000000000003200000000000000000000000019dd29a26fc4fd3fdb8a9e00c700b566db9c00510000000000000000000000005973d69b456aa9440736b5d78f71a4e7b84648b80000000000000000000000000035b8719b81a7e14df7b1f1a4332802c6a5fac00000000000000000000000005017d464c1b281edf6ec773f589f4eccd122a2b500000000000000000000000008dcbab72527b84e23fc1f2367021dae230add55000000000000000000000000aae3997631080f4d2ce4735b8e6808aedd066b4e000000000000000000000000d77aeeacdc1b0dbdcd3ee9d325d2344dacfc3426000000000000000000000000fd3c63944ce2c19c13259f24c77a540f370a46a500000000000000000000000006ee2a18bce68854cc0108c639905b31e794e43d0000000000000000000000009b675beb17219a86b35a4137a0621c198189e889000000000000000000000000ec01327e44968f34876375eb04ea01e6e967bf7a00000000000000000000000094a04fdc1d2e7c9cfcf75f3b053e28dbb99b5bcc0000000000000000000000004b60b9d1d87594dd83730d0fb6381565fb7dda14000000000000000000000000ad48ab230fb0f6a0d2c16a0704b2984f19c3fbae000000000000000000000000657d68b48f20e36256240ba31adcc9a8537e05bd00000000000000000000000063710cc0cf066df113cb5f02d45b8ac78fdcba71000000000000000000000000c2d94fde1d740f236606603dbb5adcf3370351160000000000000000000000008079bcd673bced3798538151e18e972c17472b2f000000000000000000000000be435b47eef09786cd8c855e6899e65da04fdb9800000000000000000000000092e3b7d7eaae348a0e59db4e8f594ba71e48016900000000000000000000000044c71d48eaa0f82e6f4f556c62988a28d2d3ec32000000000000000000000000da39934a2df239ea36ef1c5060a4ce0cb8c1383c000000000000000000000000cf6e12f9fb6611ea8c0f2098c7dd0aee4c9fe5b10000000000000000000000006ba06b2b0f3e50992c51ce8569116ed1c2cf18e40000000000000000000000006b86553e9173fdb8b59b57714d397a721a5ae52b000000000000000000000000729b81172203d19f4f623679c4d75001e257d76a000000000000000000000000f8f5c58252bc29f525451df48ea7b148fcf26e9f000000000000000000000000838a82f8865ad0862a8599e245bd1971b99b96c60000000000000000000000001d6c19811d3f16fe9e881125e040f4b36aec94950000000000000000000000007c5ffca1ded4ffa6f388123ad192b33a707fac32000000000000000000000000d6c26416c8d8abcc63555a6fafcde2bb97e6b347000000000000000000000000b70a63a0f7cbcce8e464ffc6245ccd80236855ef000000000000000000000000d1d1b359c1161c331958d6c079a1e38cb60dfa2f0000000000000000000000000d3f914a59a5a8bc1812c1c3a08827b819274774000000000000000000000000457f195cd0c5c0db9f8d42b86831c026ae1c9a22000000000000000000000000efafe3f1314ec17201b4785102963b1fa4bd8012000000000000000000000000b4a0ee1168286f287f612cb34ffc7184a2eb3b8c000000000000000000000000ba91669d31d989ff15ee11a28a31b14eebf69c8100000000000000000000000012125240752b5f373ff4a20e47d8d700d785a90400000000000000000000000054c28c8ca21f1d5e0bfae098fcaed23dbcc30bcb0000000000000000000000003f17587d0265a9c569151c211253a5789cf0feb6000000000000000000000000cdd1d68dc51c14c8dfc398867fc4ca9c34e0b42d000000000000000000000000f97207b95138b23d225fdabee33e48b5f5975b33000000000000000000000000533d368ad9a099d1001b90fca160603829f08647000000000000000000000000d87c4665c4f41a46136ced2d10c4424f269458dc00000000000000000000000079c5d862c0fb46091194ae2f893e4817a2e5cb4c0000000000000000000000008519d73f56e160336cdf69fb114f803ba149c7640000000000000000000000004e29c9f65886862ec9eef6c1d4d9a2fc4d9ae14f0000000000000000000000009e6343360065b844b6dbbd72a3be2edd3979d0d000000000000000000000000028d5273fdaba6bb9092e5ffa864688f763064694000000000000000000000000000000000000000000000000000000000000003200000000000000000000000000000000000000000000001b1ae4d6e2ef50000000000000000000000000000000000000000000000000001b1ae4d6e2ef50000000000000000000000000000000000000000000000000001b1ae4d6e2ef50000000000000000000000000000000000000000000000000001b1ae4d6e2ef50000000000000000000000000000000000000000000000000001b1ae4d6e2ef50000000000000000000000000000000000000000000000000001b1ae4d6e2ef50000000000000000000000000000000000000000000000000001b1ae4d6e2ef50000000000000000000000000000000000000000000000000001b1ae4d6e2ef50000000000000000000000000000000000000000000000000001b1ae4d6e2ef50000000000000000000000000000000000000000000000000001b1ae4d6e2ef50000000000000000000000000000000000000000000000000001b1ae4d6e2ef50000000000000000000000000000000000000000000000000001b1ae4d6e2ef50000000000000000000000000000000000000000000000000001b1ae4d6e2ef50000000000000000000000000000000000000000000000000001b1ae4d6e2ef50000000000000000000000000000000000000000000000000001b1ae4d6e2ef50000000000000000000000000000000000000000000000000001b1ae4d6e2ef50000000000000000000000000000000000000000000000000001b1ae4d6e2ef50000000000000000000000000000000000000000000000000001b1ae4d6e2ef50000000000000000000000000000000000000000000000000001b1ae4d6e2ef50000000000000000000000000000000000000000000000000001b1ae4d6e2ef50000000000000000000000000000000000000000000000000001b1ae4d6e2ef50000000000000000000000000000000000000000000000000001b1ae4d6e2ef50000000000000000000000000000000000000000000000000001b1ae4d6e2ef50000000000000000000000000000000000000000000000000001b1ae4d6e2ef50000000000000000000000000000000000000000000000000001b1ae4d6e2ef50000000000000000000000000000000000000000000000000001b1ae4d6e2ef50000000000000000000000000000000000000000000000000001b1ae4d6e2ef50000000000000000000000000000000000000000000000000001b1ae4d6e2ef50000000000000000000000000000000000000000000000000001b1ae4d6e2ef50000000000000000000000000000000000000000000000000001b1ae4d6e2ef50000000000000000000000000000000000000000000000000001b1ae4d6e2ef50000000000000000000000000000000000000000000000000001b1ae4d6e2ef50000000000000000000000000000000000000000000000000001b1ae4d6e2ef50000000000000000000000000000000000000000000000000001b1ae4d6e2ef50000000000000000000000000000000000000000000000000001b1ae4d6e2ef50000000000000000000000000000000000000000000000000001b1ae4d6e2ef50000000000000000000000000000000000000000000000000001b1ae4d6e2ef50000000000000000000000000000000000000000000000000001b1ae4d6e2ef50000000000000000000000000000000000000000000000000001b1ae4d6e2ef50000000000000000000000000000000000000000000000000001b1ae4d6e2ef50000000000000000000000000000000000000000000000000001b1ae4d6e2ef50000000000000000000000000000000000000000000000000001b1ae4d6e2ef50000000000000000000000000000000000000000000000000001b1ae4d6e2ef50000000000000000000000000000000000000000000000000001b1ae4d6e2ef50000000000000000000000000000000000000000000000000001b1ae4d6e2ef50000000000000000000000000000000000000000000000000001b1ae4d6e2ef50000000000000000000000000000000000000000000000000001b1ae4d6e2ef50000000000000000000000000000000000000000000000000001b1ae4d6e2ef50000000000000000000000000000000000000000000000000001b1ae4d6e2ef50000000000000000000000000000000000000000000000000001b1ae4d6e2ef500000",
        "nonce": "0x158",
        "chainId": "0x38"
      },
      "additionalContracts": [],
      "isFixedGasLimit": false
    },
    {
      "hash": "0xb25e2494175c8cc6b0e7e04584ed1233632d359c2f6c4cc7f599b60437980727",
      "transactionType": "CALL",
      "contractName": null,
      "contractAddress": "0x21cca8546b1550ee47134af86ae929c1fa3671c9",
      "function": "setAllocations(address[],uint256[])",
      "arguments": [
        "[0x0CA055852c1184031AD84d63d642516C18b9e143, 0x9d23E47CE311eBA96A8D2A248C38817748e17042, 0x180De854bF3eB186c048720546413fB1150A12ce, 0xb6Ea526334E4A2B9278C5b7d1678a120bDB2554d, 0x0B214071926684b71976D0DBe0316B5210C91ca6, 0xF3848c5623e6f72fBe53F8E2F0834A1340A615f3, 0xf9e56BC80AF4b54121841bb5a1148d9dEda54d28, 0xFD94c9DC6E5858C71b4062Ed37689384A6df54eF, 0xC35F17047b76133A251812166E9eF8558d57ED96, 0x125d96334bfC32175FCB304BCc381D860395A138, 0x7dD2AB36704fd4a8CC4a0073311A24b19E02dDFc, 0x474ddDD102423dd9DEB01dCBBF4a11504B1a337b, 0x4bFF703142Ac5b310923cF96A89EcAC9020A2B85, 0x178e7DcBEC6E4B1d16E9903d76B352378F3bdB75, 0x1029522C25BfcEeA0D619Aa451C12Ea0E59Bb2e1, 0x66C0c23d13706e8b664dB0D50f81c496caa4E243, 0xaeBA119a4fBaFf929a7C6b47d368a6560649CBc7, 0x7935dBA2dbee1f013B766E4238615b55CacD2659, 0x1C23BfcfBaC2Dd9a3215A1c23f88BeB5dA7C6966, 0xA3c2D28f5FF7B0b78a1cC19D47a5439A42829B52, 0xfa01B066D8af1ec582580AA814947E4991f7092e, 0xd91b8fD15AeBDD435Dda3277fF37356C722FEeC9, 0x164731462Ba05F2487C1c7aF3D011a6FfaF57327, 0x6ec53dc8807575fe38c9073f32d047291fFc8A0A, 0xd0936baABECB7af8CFffDA997c518EC4Ca0FE976, 0x6008d40f01BA3e8973e6a34d4e1f0f757C7B4639, 0x8AE9796AdE4cf200F7339658DacC63a67E092AD4, 0xC07bB01374623F72d7994841CA7f824D9C13def4, 0x4DD9e6c8Cb043C459e50e9F982Eda7b0F99C6aE1, 0x17f1aD4BdAff01D9BB1c1b89F3a296dACCc84cDA, 0x8d54A0509034657764B39635fa8Af4d731a3D2B9, 0x83BCe3861F3bcde7FDf03fA16cd9684cc12Adf86, 0x05F77eaA9e592Dde91E8AA3EfA305A134f040ca5, 0xa895626DcD0d7CB709A94b1b7cA09a6Cb0f95139, 0xbc5eeF78271BA358A6701D5d5F1fA7aFF44B3832, 0x8a5E940dBE6d0670292eaDA6e9F3eC786FAc9c3c, 0xa152c1b49fca038e082d3B12498801625f34F07B, 0x2572876E75d15c2c072505f2e8072d2a34a375EE, 0x4597b6B058241c0c5C3Fb0CffE3e1C7b272c1385, 0x8534674D8fdA132b69E062Be09E28e34632C91b0, 0xBab599d7EB0442E60287bCF51c9E799994976181, 0x019a5b8e3DFa85271A2F1B6eCa486d79d3Da319b, 0x9C28f3B07864EA8296c3D5C88aB0B1856b98df6A, 0xd474b4485832c77bBdeD17079B0a1E2dD9e1D964, 0x8B7842bb9C00045E2D9766bA20D72Fd4685fca30, 0xf1cebE6cF1A12a4eF643b0937cEB2Fb8E23e8a20, 0x75440b6d4074CF03b18a848797981fba271293D8, 0xD2Ae1b2959eEa2Eccf21Aa8C6a73E5B3C9B68CD4, 0x10B11e3a0d27576e8E6a999E97e1383037F6f05a, 0xB674AE59Ba11195573c2c49a9617316f8B0ae05B]",
        "[500000000000000000000, 500000000000000000000, 500000000000000000000, 500000000000000000000, 500000000000000000000, 500000000000000000000, 500000000000000000000, 500000000000000000000, 500000000000000000000, 500000000000000000000, 500000000000000000000, 500000000000000000000, 500000000000000000000, 500000000000000000000, 500000000000000000000, 500000000000000000000, 500000000000000000000, 500000000000000000000, 500000000000000000000, 500000000000000000000, 500000000000000000000, 500000000000000000000, 500000000000000000000, 500000000000000000000, 500000000000000000000, 500000000000000000000, 500000000000000000000, 500000000000000000000, 500000000000000000000, 500000000000000000000, 500000000000000000000, 500000000000000000000, 500000000000000000000, 500000000000000000000, 500000000000000000000, 500000000000000000000, 500000000000000000000, 500000000000000000000, 500000000000000000000, 500000000000000000000, 500000000000000000000, 500000000000000000000, 500000000000000000000, 500000000000000000000, 500000000000000000000, 500000000000000000000, 500000000000000000000, 500000000000000000000, 500000000000000000000, 500000000000000000000]"
      ],
      "transaction": {
        "from": "0x91935e2e959fb504640280c08530156c67f89479",
        "to": "0x21cca8546b1550ee47134af86ae929c1fa3671c9",
        "gas": "0x1ca688",
        "value": "0x0",
        "input": "0x1ff64acd000000000000000000000000000000000000000000000000000000000000004000000000000000000000000000000000000000000000000000000000000006a000000000000000000000000000000000000000000000000000000000000000320000000000000000000000000ca055852c1184031ad84d63d642516c18b9e1430000000000000000000000009d23e47ce311eba96a8d2a248c38817748e17042000000000000000000000000180de854bf3eb186c048720546413fb1150a12ce000000000000000000000000b6ea526334e4a2b9278c5b7d1678a120bdb2554d0000000000000000000000000b214071926684b71976d0dbe0316b5210c91ca6000000000000000000000000f3848c5623e6f72fbe53f8e2f0834a1340a615f3000000000000000000000000f9e56bc80af4b54121841bb5a1148d9deda54d28000000000000000000000000fd94c9dc6e5858c71b4062ed37689384a6df54ef000000000000000000000000c35f17047b76133a251812166e9ef8558d57ed96000000000000000000000000125d96334bfc32175fcb304bcc381d860395a1380000000000000000000000007dd2ab36704fd4a8cc4a0073311a24b19e02ddfc000000000000000000000000474dddd102423dd9deb01dcbbf4a11504b1a337b0000000000000000000000004bff703142ac5b310923cf96a89ecac9020a2b85000000000000000000000000178e7dcbec6e4b1d16e9903d76b352378f3bdb750000000000000000000000001029522c25bfceea0d619aa451c12ea0e59bb2e100000000000000000000000066c0c23d13706e8b664db0d50f81c496caa4e243000000000000000000000000aeba119a4fbaff929a7c6b47d368a6560649cbc70000000000000000000000007935dba2dbee1f013b766e4238615b55cacd26590000000000000000000000001c23bfcfbac2dd9a3215a1c23f88beb5da7c6966000000000000000000000000a3c2d28f5ff7b0b78a1cc19d47a5439a42829b52000000000000000000000000fa01b066d8af1ec582580aa814947e4991f7092e000000000000000000000000d91b8fd15aebdd435dda3277ff37356c722feec9000000000000000000000000164731462ba05f2487c1c7af3d011a6ffaf573270000000000000000000000006ec53dc8807575fe38c9073f32d047291ffc8a0a000000000000000000000000d0936baabecb7af8cfffda997c518ec4ca0fe9760000000000000000000000006008d40f01ba3e8973e6a34d4e1f0f757c7b46390000000000000000000000008ae9796ade4cf200f7339658dacc63a67e092ad4000000000000000000000000c07bb01374623f72d7994841ca7f824d9c13def40000000000000000000000004dd9e6c8cb043c459e50e9f982eda7b0f99c6ae100000000000000000000000017f1ad4bdaff01d9bb1c1b89f3a296daccc84cda0000000000000000000000008d54a0509034657764b39635fa8af4d731a3d2b900000000000000000000000083bce3861f3bcde7fdf03fa16cd9684cc12adf8600000000000000000000000005f77eaa9e592dde91e8aa3efa305a134f040ca5000000000000000000000000a895626dcd0d7cb709a94b1b7ca09a6cb0f95139000000000000000000000000bc5eef78271ba358a6701d5d5f1fa7aff44b38320000000000000000000000008a5e940dbe6d0670292eada6e9f3ec786fac9c3c000000000000000000000000a152c1b49fca038e082d3b12498801625f34f07b0000000000000000000000002572876e75d15c2c072505f2e8072d2a34a375ee0000000000000000000000004597b6b058241c0c5c3fb0cffe3e1c7b272c13850000000000000000000000008534674d8fda132b69e062be09e28e34632c91b0000000000000000000000000bab599d7eb0442e60287bcf51c9e799994976181000000000000000000000000019a5b8e3dfa85271a2f1b6eca486d79d3da319b0000000000000000000000009c28f3b07864ea8296c3d5c88ab0b1856b98df6a000000000000000000000000d474b4485832c77bbded17079b0a1e2dd9e1d9640000000000000000000000008b7842bb9c00045e2d9766ba20d72fd4685fca30000000000000000000000000f1cebe6cf1a12a4ef643b0937ceb2fb8e23e8a2000000000000000000000000075440b6d4074cf03b18a848797981fba271293d8000000000000000000000000d2ae1b2959eea2eccf21aa8c6a73e5b3c9b68cd400000000000000000000000010b11e3a0d27576e8e6a999e97e1383037f6f05a000000000000000000000000b674ae59ba11195573c2c49a9617316f8b0ae05b000000000000000000000000000000000000000000000000000000000000003200000000000000000000000000000000000000000000001b1ae4d6e2ef50000000000000000000000000000000000000000000000000001b1ae4d6e2ef50000000000000000000000000000000000000000000000000001b1ae4d6e2ef50000000000000000000000000000000000000000000000000001b1ae4d6e2ef50000000000000000000000000000000000000000000000000001b1ae4d6e2ef50000000000000000000000000000000000000000000000000001b1ae4d6e2ef50000000000000000000000000000000000000000000000000001b1ae4d6e2ef50000000000000000000000000000000000000000000000000001b1ae4d6e2ef50000000000000000000000000000000000000000000000000001b1ae4d6e2ef50000000000000000000000000000000000000000000000000001b1ae4d6e2ef50000000000000000000000000000000000000000000000000001b1ae4d6e2ef50000000000000000000000000000000000000000000000000001b1ae4d6e2ef50000000000000000000000000000000000000000000000000001b1ae4d6e2ef50000000000000000000000000000000000000000000000000001b1ae4d6e2ef50000000000000000000000000000000000000000000000000001b1ae4d6e2ef50000000000000000000000000000000000000000000000000001b1ae4d6e2ef50000000000000000000000000000000000000000000000000001b1ae4d6e2ef50000000000000000000000000000000000000000000000000001b1ae4d6e2ef50000000000000000000000000000000000000000000000000001b1ae4d6e2ef50000000000000000000000000000000000000000000000000001b1ae4d6e2ef50000000000000000000000000000000000000000000000000001b1ae4d6e2ef50000000000000000000000000000000000000000000000000001b1ae4d6e2ef50000000000000000000000000000000000000000000000000001b1ae4d6e2ef50000000000000000000000000000000000000000000000000001b1ae4d6e2ef50000000000000000000000000000000000000000000000000001b1ae4d6e2ef50000000000000000000000000000000000000000000000000001b1ae4d6e2ef50000000000000000000000000000000000000000000000000001b1ae4d6e2ef50000000000000000000000000000000000000000000000000001b1ae4d6e2ef50000000000000000000000000000000000000000000000000001b1ae4d6e2ef50000000000000000000000000000000000000000000000000001b1ae4d6e2ef50000000000000000000000000000000000000000000000000001b1ae4d6e2ef50000000000000000000000000000000000000000000000000001b1ae4d6e2ef50000000000000000000000000000000000000000000000000001b1ae4d6e2ef50000000000000000000000000000000000000000000000000001b1ae4d6e2ef50000000000000000000000000000000000000000000000000001b1ae4d6e2ef50000000000000000000000000000000000000000000000000001b1ae4d6e2ef50000000000000000000000000000000000000000000000000001b1ae4d6e2ef50000000000000000000000000000000000000000000000000001b1ae4d6e2ef50000000000000000000000000000000000000000000000000001b1ae4d6e2ef50000000000000000000000000000000000000000000000000001b1ae4d6e2ef50000000000000000000000000000000000000000000000000001b1ae4d6e2ef50000000000000000000000000000000000000000000000000001b1ae4d6e2ef50000000000000000000000000000000000000000000000000001b1ae4d6e2ef50000000000000000000000000000000000000000000000000001b1ae4d6e2ef50000000000000000000000000000000000000000000000000001b1ae4d6e2ef50000000000000000000000000000000000000000000000000001b1ae4d6e2ef50000000000000000000000000000000000000000000000000001b1ae4d6e2ef50000000000000000000000000000000000000000000000000001b1ae4d6e2ef50000000000000000000000000000000000000000000000000001b1ae4d6e2ef50000000000000000000000000000000000000000000000000001b1ae4d6e2ef500000",
        "nonce": "0x159",
        "chainId": "0x38"
      },
      "additionalContracts": [],
      "isFixedGasLimit": false
    },
    {
      "hash": "0xacdf3fa9766420abfd598b5d9451e37e1bd62f0db637c13137faed9ec768241d",
      "transactionType": "CALL",
      "contractName": null,
      "contractAddress": "0x21cca8546b1550ee47134af86ae929c1fa3671c9",
      "function": "setAllocations(address[],uint256[])",
      "arguments": [
        "[0x35793Ba96E5E1fAa752CCCd00C01DCB4c9902d51, 0xc90Cf1cD65C343DB87b94a73Da94D558060120e6, 0x966243b166Cd623ad3B699a6D21a0Ed062962a6D, 0x432aC4b829DE52CFAa3Bc7388e4E7E7737953898, 0x79cEf3cDd33c5B02dA082444d96Ce6a61368d0B0, 0x7586BD1Be44a8F78C67d66152015586ace636eD1, 0xf7D7ABa564258b460f51caDdaE41c8f2Fc2166C8, 0x9FDd8F32484951abc84Df95579bEeD8b6e8CB4a8, 0x563674c74633224D8DCabeBe6a43A49EB3a69634, 0xd0323d73f0484b8C819ba79d81eEff8d39cdF830, 0x2293514911b543891665348a38866c527055D95C, 0xc4cbD51dE74Df13C08fBded6D026b35C9a6B204c, 0xdA7c5a25ae7078C7E24094a63ed5ff6991e21713, 0x25aa2DeCC3E71943C1F5fE973767dda486E55Ac9, 0x879016E093091B7DaE292d2668c2C8d3705D0bfa, 0x27aD66009b0091fDCfbE82103b3F43085c103F9e, 0x07f40420adCA57A825675E90B3a9bA5e9fEdFD38, 0x9429A0EE59C387605E3A1436D987Fbe6a4A99c44, 0x594cC2aEf09D8e0BEe5FB5dD768785397Ea5697C, 0x735Fd94bBaE511886c0c3481CF671f236c717a5b, 0x9d0faf96b2ec40722CB118A136565878b73B2887, 0xb5EB818dDB7BCE606D1E9C344478231405AEc93a, 0xFda1F04180B9a7aea8d5FC0FF77bD6F2a9d4309c, 0x80a54400023067a6Be15238b27D79d77Fa2562c5, 0xd73103c3FCE3DC0aeaAB70c2f50A364989F60EAC, 0x0082792148bfbfEe8b97E9866D79418Ff7505509, 0xa28350D5c5073f7Cc7166AF1255d92a68D32327E, 0x54CAb4f63A210c7730139baAC03525dF6f53A083, 0xeF9251373ce387B18E0eCD319ef7533eE7CFFF3d, 0xC546A40FE60052c31F24B17e2E33CD7D13A1e5a0, 0x4cC069D6a8D79a4d7F8C4F285c90e7Ad61955Fe5, 0xD89E86787CE8DDC70681814dE2870b880a6B7Fd3, 0x4c737406e38bc7C2A9eaC3E40fA1B08Dd680ba0d, 0x92843D438136b5C518AF28349760546E48aBA176, 0xA1377F5d977b8042bcD0ea7B605AD0082a11Ae54, 0x172ed82D3997A70f3854fA6340966B6f07a83cF7, 0x3418eb6bA3a722817B19B739b8eE10D822c2F39d, 0xA74D9B53301D0c789beA8E6037D5C3FAe3498bB3, 0x5890287C0D49bBA295bB4854fE71E2A1B1Fec6aa, 0x04470a76666CF1814AdDB67cE4C895C180738556, 0xb00E0AaFE585F34eE85dd5e1f4936bb102d19759, 0x093Fc5Fdde52Bc21E31fd779DA02A047C0d97fA0, 0xF57de6e00DA4965373ab657EEF458C28aDe7E46e, 0x70b5019459676233d7E55A1e7Df5788d516BE652, 0x870712c02C8F7a245E8c26b3AB0464CCaE19f747, 0xBB54599Fd5bCB34AB1F3BE9A69c84f06E80663c9, 0x28Ab6640E1a64896D8FD36d8f91BD319807dC6E0, 0xe8467F00C7dBF31CC5B7EE39E998D1A069b9eD7c, 0x717674e08CC056B1F5890419C6aD1f6a374A5F49, 0x1674105997b44c584BC95e296F77EBAea75362cE]",
        "[500000000000000000000, 500000000000000000000, 500000000000000000000, 500000000000000000000, 500000000000000000000, 500000000000000000000, 500000000000000000000, 500000000000000000000, 500000000000000000000, 500000000000000000000, 500000000000000000000, 500000000000000000000, 500000000000000000000, 500000000000000000000, 500000000000000000000, 500000000000000000000, 500000000000000000000, 500000000000000000000, 500000000000000000000, 500000000000000000000, 500000000000000000000, 500000000000000000000, 500000000000000000000, 500000000000000000000, 500000000000000000000, 500000000000000000000, 500000000000000000000, 500000000000000000000, 500000000000000000000, 500000000000000000000, 500000000000000000000, 500000000000000000000, 500000000000000000000, 500000000000000000000, 500000000000000000000, 500000000000000000000, 500000000000000000000, 500000000000000000000, 500000000000000000000, 500000000000000000000, 500000000000000000000, 500000000000000000000, 500000000000000000000, 500000000000000000000, 500000000000000000000, 500000000000000000000, 500000000000000000000, 500000000000000000000, 500000000000000000000, 500000000000000000000]"
      ],
      "transaction": {
        "from": "0x91935e2e959fb504640280c08530156c67f89479",
        "to": "0x21cca8546b1550ee47134af86ae929c1fa3671c9",
        "gas": "0x1b0edc",
        "value": "0x0",
        "input": "0x1ff64acd000000000000000000000000000000000000000000000000000000000000004000000000000000000000000000000000000000000000000000000000000006a0000000000000000000000000000000000000000000000000000000000000003200000000000000000000000035793ba96e5e1faa752cccd00c01dcb4c9902d51000000000000000000000000c90cf1cd65c343db87b94a73da94d558060120e6000000000000000000000000966243b166cd623ad3b699a6d21a0ed062962a6d000000000000000000000000432ac4b829de52cfaa3bc7388e4e7e773795389800000000000000000000000079cef3cdd33c5b02da082444d96ce6a61368d0b00000000000000000000000007586bd1be44a8f78c67d66152015586ace636ed1000000000000000000000000f7d7aba564258b460f51caddae41c8f2fc2166c80000000000000000000000009fdd8f32484951abc84df95579beed8b6e8cb4a8000000000000000000000000563674c74633224d8dcabebe6a43a49eb3a69634000000000000000000000000d0323d73f0484b8c819ba79d81eeff8d39cdf8300000000000000000000000002293514911b543891665348a38866c527055d95c000000000000000000000000c4cbd51de74df13c08fbded6d026b35c9a6b204c000000000000000000000000da7c5a25ae7078c7e24094a63ed5ff6991e2171300000000000000000000000025aa2decc3e71943c1f5fe973767dda486e55ac9000000000000000000000000879016e093091b7dae292d2668c2c8d3705d0bfa00000000000000000000000027ad66009b0091fdcfbe82103b3f43085c103f9e00000000000000000000000007f40420adca57a825675e90b3a9ba5e9fedfd380000000000000000000000009429a0ee59c387605e3a1436d987fbe6a4a99c44000000000000000000000000594cc2aef09d8e0bee5fb5dd768785397ea5697c000000000000000000000000735fd94bbae511886c0c3481cf671f236c717a5b0000000000000000000000009d0faf96b2ec40722cb118a136565878b73b2887000000000000000000000000b5eb818ddb7bce606d1e9c344478231405aec93a000000000000000000000000fda1f04180b9a7aea8d5fc0ff77bd6f2a9d4309c00000000000000000000000080a54400023067a6be15238b27d79d77fa2562c5000000000000000000000000d73103c3fce3dc0aeaab70c2f50a364989f60eac0000000000000000000000000082792148bfbfee8b97e9866d79418ff7505509000000000000000000000000a28350d5c5073f7cc7166af1255d92a68d32327e00000000000000000000000054cab4f63a210c7730139baac03525df6f53a083000000000000000000000000ef9251373ce387b18e0ecd319ef7533ee7cfff3d000000000000000000000000c546a40fe60052c31f24b17e2e33cd7d13a1e5a00000000000000000000000004cc069d6a8d79a4d7f8c4f285c90e7ad61955fe5000000000000000000000000d89e86787ce8ddc70681814de2870b880a6b7fd30000000000000000000000004c737406e38bc7c2a9eac3e40fa1b08dd680ba0d00000000000000000000000092843d438136b5c518af28349760546e48aba176000000000000000000000000a1377f5d977b8042bcd0ea7b605ad0082a11ae54000000000000000000000000172ed82d3997a70f3854fa6340966b6f07a83cf70000000000000000000000003418eb6ba3a722817b19b739b8ee10d822c2f39d000000000000000000000000a74d9b53301d0c789bea8e6037d5c3fae3498bb30000000000000000000000005890287c0d49bba295bb4854fe71e2a1b1fec6aa00000000000000000000000004470a76666cf1814addb67ce4c895c180738556000000000000000000000000b00e0aafe585f34ee85dd5e1f4936bb102d19759000000000000000000000000093fc5fdde52bc21e31fd779da02a047c0d97fa0000000000000000000000000f57de6e00da4965373ab657eef458c28ade7e46e00000000000000000000000070b5019459676233d7e55a1e7df5788d516be652000000000000000000000000870712c02c8f7a245e8c26b3ab0464ccae19f747000000000000000000000000bb54599fd5bcb34ab1f3be9a69c84f06e80663c900000000000000000000000028ab6640e1a64896d8fd36d8f91bd319807dc6e0000000000000000000000000e8467f00c7dbf31cc5b7ee39e998d1a069b9ed7c000000000000000000000000717674e08cc056b1f5890419c6ad1f6a374a5f490000000000000000000000001674105997b44c584bc95e296f77ebaea75362ce000000000000000000000000000000000000000000000000000000000000003200000000000000000000000000000000000000000000001b1ae4d6e2ef50000000000000000000000000000000000000000000000000001b1ae4d6e2ef50000000000000000000000000000000000000000000000000001b1ae4d6e2ef50000000000000000000000000000000000000000000000000001b1ae4d6e2ef50000000000000000000000000000000000000000000000000001b1ae4d6e2ef50000000000000000000000000000000000000000000000000001b1ae4d6e2ef50000000000000000000000000000000000000000000000000001b1ae4d6e2ef50000000000000000000000000000000000000000000000000001b1ae4d6e2ef50000000000000000000000000000000000000000000000000001b1ae4d6e2ef50000000000000000000000000000000000000000000000000001b1ae4d6e2ef50000000000000000000000000000000000000000000000000001b1ae4d6e2ef50000000000000000000000000000000000000000000000000001b1ae4d6e2ef50000000000000000000000000000000000000000000000000001b1ae4d6e2ef50000000000000000000000000000000000000000000000000001b1ae4d6e2ef50000000000000000000000000000000000000000000000000001b1ae4d6e2ef50000000000000000000000000000000000000000000000000001b1ae4d6e2ef50000000000000000000000000000000000000000000000000001b1ae4d6e2ef50000000000000000000000000000000000000000000000000001b1ae4d6e2ef50000000000000000000000000000000000000000000000000001b1ae4d6e2ef50000000000000000000000000000000000000000000000000001b1ae4d6e2ef50000000000000000000000000000000000000000000000000001b1ae4d6e2ef50000000000000000000000000000000000000000000000000001b1ae4d6e2ef50000000000000000000000000000000000000000000000000001b1ae4d6e2ef50000000000000000000000000000000000000000000000000001b1ae4d6e2ef50000000000000000000000000000000000000000000000000001b1ae4d6e2ef50000000000000000000000000000000000000000000000000001b1ae4d6e2ef50000000000000000000000000000000000000000000000000001b1ae4d6e2ef50000000000000000000000000000000000000000000000000001b1ae4d6e2ef50000000000000000000000000000000000000000000000000001b1ae4d6e2ef50000000000000000000000000000000000000000000000000001b1ae4d6e2ef50000000000000000000000000000000000000000000000000001b1ae4d6e2ef50000000000000000000000000000000000000000000000000001b1ae4d6e2ef50000000000000000000000000000000000000000000000000001b1ae4d6e2ef50000000000000000000000000000000000000000000000000001b1ae4d6e2ef50000000000000000000000000000000000000000000000000001b1ae4d6e2ef50000000000000000000000000000000000000000000000000001b1ae4d6e2ef50000000000000000000000000000000000000000000000000001b1ae4d6e2ef50000000000000000000000000000000000000000000000000001b1ae4d6e2ef50000000000000000000000000000000000000000000000000001b1ae4d6e2ef50000000000000000000000000000000000000000000000000001b1ae4d6e2ef50000000000000000000000000000000000000000000000000001b1ae4d6e2ef50000000000000000000000000000000000000000000000000001b1ae4d6e2ef50000000000000000000000000000000000000000000000000001b1ae4d6e2ef50000000000000000000000000000000000000000000000000001b1ae4d6e2ef50000000000000000000000000000000000000000000000000001b1ae4d6e2ef50000000000000000000000000000000000000000000000000001b1ae4d6e2ef50000000000000000000000000000000000000000000000000001b1ae4d6e2ef50000000000000000000000000000000000000000000000000001b1ae4d6e2ef50000000000000000000000000000000000000000000000000001b1ae4d6e2ef50000000000000000000000000000000000000000000000000001b1ae4d6e2ef500000",
        "nonce": "0x15a",
        "chainId": "0x38"
      },
      "additionalContracts": [],
      "isFixedGasLimit": false
    },
    {
      "hash": "0x8609ffcacbe0f877fe86ac5e0e9ff8f6378eb6f8185f0cdb1d5c4ea2c51b1ae0",
      "transactionType": "CALL",
      "contractName": null,
      "contractAddress": "0x21cca8546b1550ee47134af86ae929c1fa3671c9",
      "function": "setAllocations(address[],uint256[])",
      "arguments": [
        "[0xDA61e1797553d61b4b0a4924066A889DCcd91b94, 0x608663bf71e9faF6b9434D56d310CD0c9292712a, 0x650072af1752223b69D905400720BcF2bBd829cf, 0xF53C6680DCC502BC21d8327AcBcaA96Fd80a3a91, 0x46E38c8f85BDD08648175496e5B108d4f71f8B8e, 0x30D197b025a6a16e897D5468C91E6bC2C4af3e5B, 0xd05D25911331a987d09ed94d242991152E5632c7, 0xa52b4141Ef92e2414A860F292D43CC9e79fB2b62, 0x23462c8CB95414A11eAA1E9402047d1a8Ae0F5bb, 0xa6ee6e502e876320E2197A445F77C20AD3db9C87, 0x16B3e07d91C60C997b1Bcba62d346C91a6E49eE6, 0x7704A01D4231d1EABBF6CFd1e3C9D013ff99F84b, 0x6c7dC02b8DDD59289cC84A2c293E51EcC14B3DcC, 0x0c15cf05F03a8fE6262b328e416F5401a08fE281, 0x0815F3DaB201967559a5fDd606248cbbDddF3A68, 0x496D2e92ab7ae6eF28459C91183dFA0926aB7992]",
        "[500000000000000000000, 500000000000000000000, 500000000000000000000, 500000000000000000000, 500000000000000000000, 500000000000000000000, 500000000000000000000, 500000000000000000000, 500000000000000000000, 500000000000000000000, 500000000000000000000, 500000000000000000000, 500000000000000000000, 500000000000000000000, 500000000000000000000, 500000000000000000000]"
      ],
      "transaction": {
        "from": "0x91935e2e959fb504640280c08530156c67f89479",
        "to": "0x21cca8546b1550ee47134af86ae929c1fa3671c9",
        "gas": "0x98bc0",
        "value": "0x0",
        "input": "0x1ff64acd000000000000000000000000000000000000000000000000000000000000004000000000000000000000000000000000000000000000000000000000000002600000000000000000000000000000000000000000000000000000000000000010000000000000000000000000da61e1797553d61b4b0a4924066a889dccd91b94000000000000000000000000608663bf71e9faf6b9434d56d310cd0c9292712a000000000000000000000000650072af1752223b69d905400720bcf2bbd829cf000000000000000000000000f53c6680dcc502bc21d8327acbcaa96fd80a3a9100000000000000000000000046e38c8f85bdd08648175496e5b108d4f71f8b8e00000000000000000000000030d197b025a6a16e897d5468c91e6bc2c4af3e5b000000000000000000000000d05d25911331a987d09ed94d242991152e5632c7000000000000000000000000a52b4141ef92e2414a860f292d43cc9e79fb2b6200000000000000000000000023462c8cb95414a11eaa1e9402047d1a8ae0f5bb000000000000000000000000a6ee6e502e876320e2197a445f77c20ad3db9c8700000000000000000000000016b3e07d91c60c997b1bcba62d346c91a6e49ee60000000000000000000000007704a01d4231d1eabbf6cfd1e3c9d013ff99f84b0000000000000000000000006c7dc02b8ddd59289cc84a2c293e51ecc14b3dcc0000000000000000000000000c15cf05f03a8fe6262b328e416f5401a08fe2810000000000000000000000000815f3dab201967559a5fdd606248cbbdddf3a68000000000000000000000000496d2e92ab7ae6ef28459c91183dfa0926ab7992000000000000000000000000000000000000000000000000000000000000001000000000000000000000000000000000000000000000001b1ae4d6e2ef50000000000000000000000000000000000000000000000000001b1ae4d6e2ef50000000000000000000000000000000000000000000000000001b1ae4d6e2ef50000000000000000000000000000000000000000000000000001b1ae4d6e2ef50000000000000000000000000000000000000000000000000001b1ae4d6e2ef50000000000000000000000000000000000000000000000000001b1ae4d6e2ef50000000000000000000000000000000000000000000000000001b1ae4d6e2ef50000000000000000000000000000000000000000000000000001b1ae4d6e2ef50000000000000000000000000000000000000000000000000001b1ae4d6e2ef50000000000000000000000000000000000000000000000000001b1ae4d6e2ef50000000000000000000000000000000000000000000000000001b1ae4d6e2ef50000000000000000000000000000000000000000000000000001b1ae4d6e2ef50000000000000000000000000000000000000000000000000001b1ae4d6e2ef50000000000000000000000000000000000000000000000000001b1ae4d6e2ef50000000000000000000000000000000000000000000000000001b1ae4d6e2ef50000000000000000000000000000000000000000000000000001b1ae4d6e2ef500000",
        "nonce": "0x15b",
        "chainId": "0x38"
      },
      "additionalContracts": [],
      "isFixedGasLimit": false
    }
  ],
  "receipts": [
    {
      "status": "0x1",
      "cumulativeGasUsed": "0x173c3e5",
      "logs": [
        {
          "address": "0x21cca8546b1550ee47134af86ae929c1fa3671c9",
          "topics": [
            "0xedfc909d0ab2a1625b7911d925efbd8200cdd99d4c7ba44e720328b17879f0b3",
            "0x00000000000000000000000019dd29a26fc4fd3fdb8a9e00c700b566db9c0051"
          ],
          "data": "0x00000000000000000000000000000000000000000000001b1ae4d6e2ef500000",
          "blockHash": "0xafc2be417b3dda86f665d476d9c208eed9e8f85ffe49fd5a1572b6fb203a54b4",
          "blockNumber": "0x4188309",
          "blockTimestamp": "0x691d72a9",
          "transactionHash": "0xb20ab0d2c9020b1e51e61b3356ef2cff7925dcc0dbfa2fd1fafb4ca8a19949b4",
          "transactionIndex": "0xad",
          "logIndex": "0x3a8",
          "removed": false
        },
        {
          "address": "0x21cca8546b1550ee47134af86ae929c1fa3671c9",
          "topics": [
            "0xedfc909d0ab2a1625b7911d925efbd8200cdd99d4c7ba44e720328b17879f0b3",
            "0x0000000000000000000000005973d69b456aa9440736b5d78f71a4e7b84648b8"
          ],
          "data": "0x00000000000000000000000000000000000000000000001b1ae4d6e2ef500000",
          "blockHash": "0xafc2be417b3dda86f665d476d9c208eed9e8f85ffe49fd5a1572b6fb203a54b4",
          "blockNumber": "0x4188309",
          "blockTimestamp": "0x691d72a9",
          "transactionHash": "0xb20ab0d2c9020b1e51e61b3356ef2cff7925dcc0dbfa2fd1fafb4ca8a19949b4",
          "transactionIndex": "0xad",
          "logIndex": "0x3a9",
          "removed": false
        },
        {
          "address": "0x21cca8546b1550ee47134af86ae929c1fa3671c9",
          "topics": [
            "0xedfc909d0ab2a1625b7911d925efbd8200cdd99d4c7ba44e720328b17879f0b3",
            "0x0000000000000000000000000035b8719b81a7e14df7b1f1a4332802c6a5fac0"
          ],
          "data": "0x00000000000000000000000000000000000000000000001b1ae4d6e2ef500000",
          "blockHash": "0xafc2be417b3dda86f665d476d9c208eed9e8f85ffe49fd5a1572b6fb203a54b4",
          "blockNumber": "0x4188309",
          "blockTimestamp": "0x691d72a9",
          "transactionHash": "0xb20ab0d2c9020b1e51e61b3356ef2cff7925dcc0dbfa2fd1fafb4ca8a19949b4",
          "transactionIndex": "0xad",
          "logIndex": "0x3aa",
          "removed": false
        },
        {
          "address": "0x21cca8546b1550ee47134af86ae929c1fa3671c9",
          "topics": [
            "0xedfc909d0ab2a1625b7911d925efbd8200cdd99d4c7ba44e720328b17879f0b3",
            "0x0000000000000000000000005017d464c1b281edf6ec773f589f4eccd122a2b5"
          ],
          "data": "0x00000000000000000000000000000000000000000000001b1ae4d6e2ef500000",
          "blockHash": "0xafc2be417b3dda86f665d476d9c208eed9e8f85ffe49fd5a1572b6fb203a54b4",
          "blockNumber": "0x4188309",
          "blockTimestamp": "0x691d72a9",
          "transactionHash": "0xb20ab0d2c9020b1e51e61b3356ef2cff7925dcc0dbfa2fd1fafb4ca8a19949b4",
          "transactionIndex": "0xad",
          "logIndex": "0x3ab",
          "removed": false
        },
        {
          "address": "0x21cca8546b1550ee47134af86ae929c1fa3671c9",
          "topics": [
            "0xedfc909d0ab2a1625b7911d925efbd8200cdd99d4c7ba44e720328b17879f0b3",
            "0x00000000000000000000000008dcbab72527b84e23fc1f2367021dae230add55"
          ],
          "data": "0x00000000000000000000000000000000000000000000001b1ae4d6e2ef500000",
          "blockHash": "0xafc2be417b3dda86f665d476d9c208eed9e8f85ffe49fd5a1572b6fb203a54b4",
          "blockNumber": "0x4188309",
          "blockTimestamp": "0x691d72a9",
          "transactionHash": "0xb20ab0d2c9020b1e51e61b3356ef2cff7925dcc0dbfa2fd1fafb4ca8a19949b4",
          "transactionIndex": "0xad",
          "logIndex": "0x3ac",
          "removed": false
        },
        {
          "address": "0x21cca8546b1550ee47134af86ae929c1fa3671c9",
          "topics": [
            "0xedfc909d0ab2a1625b7911d925efbd8200cdd99d4c7ba44e720328b17879f0b3",
            "0x000000000000000000000000aae3997631080f4d2ce4735b8e6808aedd066b4e"
          ],
          "data": "0x00000000000000000000000000000000000000000000001b1ae4d6e2ef500000",
          "blockHash": "0xafc2be417b3dda86f665d476d9c208eed9e8f85ffe49fd5a1572b6fb203a54b4",
          "blockNumber": "0x4188309",
          "blockTimestamp": "0x691d72a9",
          "transactionHash": "0xb20ab0d2c9020b1e51e61b3356ef2cff7925dcc0dbfa2fd1fafb4ca8a19949b4",
          "transactionIndex": "0xad",
          "logIndex": "0x3ad",
          "removed": false
        },
        {
          "address": "0x21cca8546b1550ee47134af86ae929c1fa3671c9",
          "topics": [
            "0xedfc909d0ab2a1625b7911d925efbd8200cdd99d4c7ba44e720328b17879f0b3",
            "0x000000000000000000000000d77aeeacdc1b0dbdcd3ee9d325d2344dacfc3426"
          ],
          "data": "0x00000000000000000000000000000000000000000000001b1ae4d6e2ef500000",
          "blockHash": "0xafc2be417b3dda86f665d476d9c208eed9e8f85ffe49fd5a1572b6fb203a54b4",
          "blockNumber": "0x4188309",
          "blockTimestamp": "0x691d72a9",
          "transactionHash": "0xb20ab0d2c9020b1e51e61b3356ef2cff7925dcc0dbfa2fd1fafb4ca8a19949b4",
          "transactionIndex": "0xad",
          "logIndex": "0x3ae",
          "removed": false
        },
        {
          "address": "0x21cca8546b1550ee47134af86ae929c1fa3671c9",
          "topics": [
            "0xedfc909d0ab2a1625b7911d925efbd8200cdd99d4c7ba44e720328b17879f0b3",
            "0x000000000000000000000000fd3c63944ce2c19c13259f24c77a540f370a46a5"
          ],
          "data": "0x00000000000000000000000000000000000000000000001b1ae4d6e2ef500000",
          "blockHash": "0xafc2be417b3dda86f665d476d9c208eed9e8f85ffe49fd5a1572b6fb203a54b4",
          "blockNumber": "0x4188309",
          "blockTimestamp": "0x691d72a9",
          "transactionHash": "0xb20ab0d2c9020b1e51e61b3356ef2cff7925dcc0dbfa2fd1fafb4ca8a19949b4",
          "transactionIndex": "0xad",
          "logIndex": "0x3af",
          "removed": false
        },
        {
          "address": "0x21cca8546b1550ee47134af86ae929c1fa3671c9",
          "topics": [
            "0xedfc909d0ab2a1625b7911d925efbd8200cdd99d4c7ba44e720328b17879f0b3",
            "0x00000000000000000000000006ee2a18bce68854cc0108c639905b31e794e43d"
          ],
          "data": "0x00000000000000000000000000000000000000000000001b1ae4d6e2ef500000",
          "blockHash": "0xafc2be417b3dda86f665d476d9c208eed9e8f85ffe49fd5a1572b6fb203a54b4",
          "blockNumber": "0x4188309",
          "blockTimestamp": "0x691d72a9",
          "transactionHash": "0xb20ab0d2c9020b1e51e61b3356ef2cff7925dcc0dbfa2fd1fafb4ca8a19949b4",
          "transactionIndex": "0xad",
          "logIndex": "0x3b0",
          "removed": false
        },
        {
          "address": "0x21cca8546b1550ee47134af86ae929c1fa3671c9",
          "topics": [
            "0xedfc909d0ab2a1625b7911d925efbd8200cdd99d4c7ba44e720328b17879f0b3",
            "0x0000000000000000000000009b675beb17219a86b35a4137a0621c198189e889"
          ],
          "data": "0x00000000000000000000000000000000000000000000001b1ae4d6e2ef500000",
          "blockHash": "0xafc2be417b3dda86f665d476d9c208eed9e8f85ffe49fd5a1572b6fb203a54b4",
          "blockNumber": "0x4188309",
          "blockTimestamp": "0x691d72a9",
          "transactionHash": "0xb20ab0d2c9020b1e51e61b3356ef2cff7925dcc0dbfa2fd1fafb4ca8a19949b4",
          "transactionIndex": "0xad",
          "logIndex": "0x3b1",
          "removed": false
        },
        {
          "address": "0x21cca8546b1550ee47134af86ae929c1fa3671c9",
          "topics": [
            "0xedfc909d0ab2a1625b7911d925efbd8200cdd99d4c7ba44e720328b17879f0b3",
            "0x000000000000000000000000ec01327e44968f34876375eb04ea01e6e967bf7a"
          ],
          "data": "0x00000000000000000000000000000000000000000000001b1ae4d6e2ef500000",
          "blockHash": "0xafc2be417b3dda86f665d476d9c208eed9e8f85ffe49fd5a1572b6fb203a54b4",
          "blockNumber": "0x4188309",
          "blockTimestamp": "0x691d72a9",
          "transactionHash": "0xb20ab0d2c9020b1e51e61b3356ef2cff7925dcc0dbfa2fd1fafb4ca8a19949b4",
          "transactionIndex": "0xad",
          "logIndex": "0x3b2",
          "removed": false
        },
        {
          "address": "0x21cca8546b1550ee47134af86ae929c1fa3671c9",
          "topics": [
            "0xedfc909d0ab2a1625b7911d925efbd8200cdd99d4c7ba44e720328b17879f0b3",
            "0x00000000000000000000000094a04fdc1d2e7c9cfcf75f3b053e28dbb99b5bcc"
          ],
          "data": "0x00000000000000000000000000000000000000000000001b1ae4d6e2ef500000",
          "blockHash": "0xafc2be417b3dda86f665d476d9c208eed9e8f85ffe49fd5a1572b6fb203a54b4",
          "blockNumber": "0x4188309",
          "blockTimestamp": "0x691d72a9",
          "transactionHash": "0xb20ab0d2c9020b1e51e61b3356ef2cff7925dcc0dbfa2fd1fafb4ca8a19949b4",
          "transactionIndex": "0xad",
          "logIndex": "0x3b3",
          "removed": false
        },
        {
          "address": "0x21cca8546b1550ee47134af86ae929c1fa3671c9",
          "topics": [
            "0xedfc909d0ab2a1625b7911d925efbd8200cdd99d4c7ba44e720328b17879f0b3",
            "0x0000000000000000000000004b60b9d1d87594dd83730d0fb6381565fb7dda14"
          ],
          "data": "0x00000000000000000000000000000000000000000000001b1ae4d6e2ef500000",
          "blockHash": "0xafc2be417b3dda86f665d476d9c208eed9e8f85ffe49fd5a1572b6fb203a54b4",
          "blockNumber": "0x4188309",
          "blockTimestamp": "0x691d72a9",
          "transactionHash": "0xb20ab0d2c9020b1e51e61b3356ef2cff7925dcc0dbfa2fd1fafb4ca8a19949b4",
          "transactionIndex": "0xad",
          "logIndex": "0x3b4",
          "removed": false
        },
        {
          "address": "0x21cca8546b1550ee47134af86ae929c1fa3671c9",
          "topics": [
            "0xedfc909d0ab2a1625b7911d925efbd8200cdd99d4c7ba44e720328b17879f0b3",
            "0x000000000000000000000000ad48ab230fb0f6a0d2c16a0704b2984f19c3fbae"
          ],
          "data": "0x00000000000000000000000000000000000000000000001b1ae4d6e2ef500000",
          "blockHash": "0xafc2be417b3dda86f665d476d9c208eed9e8f85ffe49fd5a1572b6fb203a54b4",
          "blockNumber": "0x4188309",
          "blockTimestamp": "0x691d72a9",
          "transactionHash": "0xb20ab0d2c9020b1e51e61b3356ef2cff7925dcc0dbfa2fd1fafb4ca8a19949b4",
          "transactionIndex": "0xad",
          "logIndex": "0x3b5",
          "removed": false
        },
        {
          "address": "0x21cca8546b1550ee47134af86ae929c1fa3671c9",
          "topics": [
            "0xedfc909d0ab2a1625b7911d925efbd8200cdd99d4c7ba44e720328b17879f0b3",
            "0x000000000000000000000000657d68b48f20e36256240ba31adcc9a8537e05bd"
          ],
          "data": "0x00000000000000000000000000000000000000000000001b1ae4d6e2ef500000",
          "blockHash": "0xafc2be417b3dda86f665d476d9c208eed9e8f85ffe49fd5a1572b6fb203a54b4",
          "blockNumber": "0x4188309",
          "blockTimestamp": "0x691d72a9",
          "transactionHash": "0xb20ab0d2c9020b1e51e61b3356ef2cff7925dcc0dbfa2fd1fafb4ca8a19949b4",
          "transactionIndex": "0xad",
          "logIndex": "0x3b6",
          "removed": false
        },
        {
          "address": "0x21cca8546b1550ee47134af86ae929c1fa3671c9",
          "topics": [
            "0xedfc909d0ab2a1625b7911d925efbd8200cdd99d4c7ba44e720328b17879f0b3",
            "0x00000000000000000000000063710cc0cf066df113cb5f02d45b8ac78fdcba71"
          ],
          "data": "0x00000000000000000000000000000000000000000000001b1ae4d6e2ef500000",
          "blockHash": "0xafc2be417b3dda86f665d476d9c208eed9e8f85ffe49fd5a1572b6fb203a54b4",
          "blockNumber": "0x4188309",
          "blockTimestamp": "0x691d72a9",
          "transactionHash": "0xb20ab0d2c9020b1e51e61b3356ef2cff7925dcc0dbfa2fd1fafb4ca8a19949b4",
          "transactionIndex": "0xad",
          "logIndex": "0x3b7",
          "removed": false
        },
        {
          "address": "0x21cca8546b1550ee47134af86ae929c1fa3671c9",
          "topics": [
            "0xedfc909d0ab2a1625b7911d925efbd8200cdd99d4c7ba44e720328b17879f0b3",
            "0x000000000000000000000000c2d94fde1d740f236606603dbb5adcf337035116"
          ],
          "data": "0x00000000000000000000000000000000000000000000001b1ae4d6e2ef500000",
          "blockHash": "0xafc2be417b3dda86f665d476d9c208eed9e8f85ffe49fd5a1572b6fb203a54b4",
          "blockNumber": "0x4188309",
          "blockTimestamp": "0x691d72a9",
          "transactionHash": "0xb20ab0d2c9020b1e51e61b3356ef2cff7925dcc0dbfa2fd1fafb4ca8a19949b4",
          "transactionIndex": "0xad",
          "logIndex": "0x3b8",
          "removed": false
        },
        {
          "address": "0x21cca8546b1550ee47134af86ae929c1fa3671c9",
          "topics": [
            "0xedfc909d0ab2a1625b7911d925efbd8200cdd99d4c7ba44e720328b17879f0b3",
            "0x0000000000000000000000008079bcd673bced3798538151e18e972c17472b2f"
          ],
          "data": "0x00000000000000000000000000000000000000000000001b1ae4d6e2ef500000",
          "blockHash": "0xafc2be417b3dda86f665d476d9c208eed9e8f85ffe49fd5a1572b6fb203a54b4",
          "blockNumber": "0x4188309",
          "blockTimestamp": "0x691d72a9",
          "transactionHash": "0xb20ab0d2c9020b1e51e61b3356ef2cff7925dcc0dbfa2fd1fafb4ca8a19949b4",
          "transactionIndex": "0xad",
          "logIndex": "0x3b9",
          "removed": false
        },
        {
          "address": "0x21cca8546b1550ee47134af86ae929c1fa3671c9",
          "topics": [
            "0xedfc909d0ab2a1625b7911d925efbd8200cdd99d4c7ba44e720328b17879f0b3",
            "0x000000000000000000000000be435b47eef09786cd8c855e6899e65da04fdb98"
          ],
          "data": "0x00000000000000000000000000000000000000000000001b1ae4d6e2ef500000",
          "blockHash": "0xafc2be417b3dda86f665d476d9c208eed9e8f85ffe49fd5a1572b6fb203a54b4",
          "blockNumber": "0x4188309",
          "blockTimestamp": "0x691d72a9",
          "transactionHash": "0xb20ab0d2c9020b1e51e61b3356ef2cff7925dcc0dbfa2fd1fafb4ca8a19949b4",
          "transactionIndex": "0xad",
          "logIndex": "0x3ba",
          "removed": false
        },
        {
          "address": "0x21cca8546b1550ee47134af86ae929c1fa3671c9",
          "topics": [
            "0xedfc909d0ab2a1625b7911d925efbd8200cdd99d4c7ba44e720328b17879f0b3",
            "0x00000000000000000000000092e3b7d7eaae348a0e59db4e8f594ba71e480169"
          ],
          "data": "0x00000000000000000000000000000000000000000000001b1ae4d6e2ef500000",
          "blockHash": "0xafc2be417b3dda86f665d476d9c208eed9e8f85ffe49fd5a1572b6fb203a54b4",
          "blockNumber": "0x4188309",
          "blockTimestamp": "0x691d72a9",
          "transactionHash": "0xb20ab0d2c9020b1e51e61b3356ef2cff7925dcc0dbfa2fd1fafb4ca8a19949b4",
          "transactionIndex": "0xad",
          "logIndex": "0x3bb",
          "removed": false
        },
        {
          "address": "0x21cca8546b1550ee47134af86ae929c1fa3671c9",
          "topics": [
            "0xedfc909d0ab2a1625b7911d925efbd8200cdd99d4c7ba44e720328b17879f0b3",
            "0x00000000000000000000000044c71d48eaa0f82e6f4f556c62988a28d2d3ec32"
          ],
          "data": "0x00000000000000000000000000000000000000000000001b1ae4d6e2ef500000",
          "blockHash": "0xafc2be417b3dda86f665d476d9c208eed9e8f85ffe49fd5a1572b6fb203a54b4",
          "blockNumber": "0x4188309",
          "blockTimestamp": "0x691d72a9",
          "transactionHash": "0xb20ab0d2c9020b1e51e61b3356ef2cff7925dcc0dbfa2fd1fafb4ca8a19949b4",
          "transactionIndex": "0xad",
          "logIndex": "0x3bc",
          "removed": false
        },
        {
          "address": "0x21cca8546b1550ee47134af86ae929c1fa3671c9",
          "topics": [
            "0xedfc909d0ab2a1625b7911d925efbd8200cdd99d4c7ba44e720328b17879f0b3",
            "0x000000000000000000000000da39934a2df239ea36ef1c5060a4ce0cb8c1383c"
          ],
          "data": "0x00000000000000000000000000000000000000000000001b1ae4d6e2ef500000",
          "blockHash": "0xafc2be417b3dda86f665d476d9c208eed9e8f85ffe49fd5a1572b6fb203a54b4",
          "blockNumber": "0x4188309",
          "blockTimestamp": "0x691d72a9",
          "transactionHash": "0xb20ab0d2c9020b1e51e61b3356ef2cff7925dcc0dbfa2fd1fafb4ca8a19949b4",
          "transactionIndex": "0xad",
          "logIndex": "0x3bd",
          "removed": false
        },
        {
          "address": "0x21cca8546b1550ee47134af86ae929c1fa3671c9",
          "topics": [
            "0xedfc909d0ab2a1625b7911d925efbd8200cdd99d4c7ba44e720328b17879f0b3",
            "0x000000000000000000000000cf6e12f9fb6611ea8c0f2098c7dd0aee4c9fe5b1"
          ],
          "data": "0x00000000000000000000000000000000000000000000001b1ae4d6e2ef500000",
          "blockHash": "0xafc2be417b3dda86f665d476d9c208eed9e8f85ffe49fd5a1572b6fb203a54b4",
          "blockNumber": "0x4188309",
          "blockTimestamp": "0x691d72a9",
          "transactionHash": "0xb20ab0d2c9020b1e51e61b3356ef2cff7925dcc0dbfa2fd1fafb4ca8a19949b4",
          "transactionIndex": "0xad",
          "logIndex": "0x3be",
          "removed": false
        },
        {
          "address": "0x21cca8546b1550ee47134af86ae929c1fa3671c9",
          "topics": [
            "0xedfc909d0ab2a1625b7911d925efbd8200cdd99d4c7ba44e720328b17879f0b3",
            "0x0000000000000000000000006ba06b2b0f3e50992c51ce8569116ed1c2cf18e4"
          ],
          "data": "0x00000000000000000000000000000000000000000000001b1ae4d6e2ef500000",
          "blockHash": "0xafc2be417b3dda86f665d476d9c208eed9e8f85ffe49fd5a1572b6fb203a54b4",
          "blockNumber": "0x4188309",
          "blockTimestamp": "0x691d72a9",
          "transactionHash": "0xb20ab0d2c9020b1e51e61b3356ef2cff7925dcc0dbfa2fd1fafb4ca8a19949b4",
          "transactionIndex": "0xad",
          "logIndex": "0x3bf",
          "removed": false
        },
        {
          "address": "0x21cca8546b1550ee47134af86ae929c1fa3671c9",
          "topics": [
            "0xedfc909d0ab2a1625b7911d925efbd8200cdd99d4c7ba44e720328b17879f0b3",
            "0x0000000000000000000000006b86553e9173fdb8b59b57714d397a721a5ae52b"
          ],
          "data": "0x00000000000000000000000000000000000000000000001b1ae4d6e2ef500000",
          "blockHash": "0xafc2be417b3dda86f665d476d9c208eed9e8f85ffe49fd5a1572b6fb203a54b4",
          "blockNumber": "0x4188309",
          "blockTimestamp": "0x691d72a9",
          "transactionHash": "0xb20ab0d2c9020b1e51e61b3356ef2cff7925dcc0dbfa2fd1fafb4ca8a19949b4",
          "transactionIndex": "0xad",
          "logIndex": "0x3c0",
          "removed": false
        },
        {
          "address": "0x21cca8546b1550ee47134af86ae929c1fa3671c9",
          "topics": [
            "0xedfc909d0ab2a1625b7911d925efbd8200cdd99d4c7ba44e720328b17879f0b3",
            "0x000000000000000000000000729b81172203d19f4f623679c4d75001e257d76a"
          ],
          "data": "0x00000000000000000000000000000000000000000000001b1ae4d6e2ef500000",
          "blockHash": "0xafc2be417b3dda86f665d476d9c208eed9e8f85ffe49fd5a1572b6fb203a54b4",
          "blockNumber": "0x4188309",
          "blockTimestamp": "0x691d72a9",
          "transactionHash": "0xb20ab0d2c9020b1e51e61b3356ef2cff7925dcc0dbfa2fd1fafb4ca8a19949b4",
          "transactionIndex": "0xad",
          "logIndex": "0x3c1",
          "removed": false
        },
        {
          "address": "0x21cca8546b1550ee47134af86ae929c1fa3671c9",
          "topics": [
            "0xedfc909d0ab2a1625b7911d925efbd8200cdd99d4c7ba44e720328b17879f0b3",
            "0x000000000000000000000000f8f5c58252bc29f525451df48ea7b148fcf26e9f"
          ],
          "data": "0x00000000000000000000000000000000000000000000001b1ae4d6e2ef500000",
          "blockHash": "0xafc2be417b3dda86f665d476d9c208eed9e8f85ffe49fd5a1572b6fb203a54b4",
          "blockNumber": "0x4188309",
          "blockTimestamp": "0x691d72a9",
          "transactionHash": "0xb20ab0d2c9020b1e51e61b3356ef2cff7925dcc0dbfa2fd1fafb4ca8a19949b4",
          "transactionIndex": "0xad",
          "logIndex": "0x3c2",
          "removed": false
        },
        {
          "address": "0x21cca8546b1550ee47134af86ae929c1fa3671c9",
          "topics": [
            "0xedfc909d0ab2a1625b7911d925efbd8200cdd99d4c7ba44e720328b17879f0b3",
            "0x000000000000000000000000838a82f8865ad0862a8599e245bd1971b99b96c6"
          ],
          "data": "0x00000000000000000000000000000000000000000000001b1ae4d6e2ef500000",
          "blockHash": "0xafc2be417b3dda86f665d476d9c208eed9e8f85ffe49fd5a1572b6fb203a54b4",
          "blockNumber": "0x4188309",
          "blockTimestamp": "0x691d72a9",
          "transactionHash": "0xb20ab0d2c9020b1e51e61b3356ef2cff7925dcc0dbfa2fd1fafb4ca8a19949b4",
          "transactionIndex": "0xad",
          "logIndex": "0x3c3",
          "removed": false
        },
        {
          "address": "0x21cca8546b1550ee47134af86ae929c1fa3671c9",
          "topics": [
            "0xedfc909d0ab2a1625b7911d925efbd8200cdd99d4c7ba44e720328b17879f0b3",
            "0x0000000000000000000000001d6c19811d3f16fe9e881125e040f4b36aec9495"
          ],
          "data": "0x00000000000000000000000000000000000000000000001b1ae4d6e2ef500000",
          "blockHash": "0xafc2be417b3dda86f665d476d9c208eed9e8f85ffe49fd5a1572b6fb203a54b4",
          "blockNumber": "0x4188309",
          "blockTimestamp": "0x691d72a9",
          "transactionHash": "0xb20ab0d2c9020b1e51e61b3356ef2cff7925dcc0dbfa2fd1fafb4ca8a19949b4",
          "transactionIndex": "0xad",
          "logIndex": "0x3c4",
          "removed": false
        },
        {
          "address": "0x21cca8546b1550ee47134af86ae929c1fa3671c9",
          "topics": [
            "0xedfc909d0ab2a1625b7911d925efbd8200cdd99d4c7ba44e720328b17879f0b3",
            "0x0000000000000000000000007c5ffca1ded4ffa6f388123ad192b33a707fac32"
          ],
          "data": "0x00000000000000000000000000000000000000000000001b1ae4d6e2ef500000",
          "blockHash": "0xafc2be417b3dda86f665d476d9c208eed9e8f85ffe49fd5a1572b6fb203a54b4",
          "blockNumber": "0x4188309",
          "blockTimestamp": "0x691d72a9",
          "transactionHash": "0xb20ab0d2c9020b1e51e61b3356ef2cff7925dcc0dbfa2fd1fafb4ca8a19949b4",
          "transactionIndex": "0xad",
          "logIndex": "0x3c5",
          "removed": false
        },
        {
          "address": "0x21cca8546b1550ee47134af86ae929c1fa3671c9",
          "topics": [
            "0xedfc909d0ab2a1625b7911d925efbd8200cdd99d4c7ba44e720328b17879f0b3",
            "0x000000000000000000000000d6c26416c8d8abcc63555a6fafcde2bb97e6b347"
          ],
          "data": "0x00000000000000000000000000000000000000000000001b1ae4d6e2ef500000",
          "blockHash": "0xafc2be417b3dda86f665d476d9c208eed9e8f85ffe49fd5a1572b6fb203a54b4",
          "blockNumber": "0x4188309",
          "blockTimestamp": "0x691d72a9",
          "transactionHash": "0xb20ab0d2c9020b1e51e61b3356ef2cff7925dcc0dbfa2fd1fafb4ca8a19949b4",
          "transactionIndex": "0xad",
          "logIndex": "0x3c6",
          "removed": false
        },
        {
          "address": "0x21cca8546b1550ee47134af86ae929c1fa3671c9",
          "topics": [
            "0xedfc909d0ab2a1625b7911d925efbd8200cdd99d4c7ba44e720328b17879f0b3",
            "0x000000000000000000000000b70a63a0f7cbcce8e464ffc6245ccd80236855ef"
          ],
          "data": "0x00000000000000000000000000000000000000000000001b1ae4d6e2ef500000",
          "blockHash": "0xafc2be417b3dda86f665d476d9c208eed9e8f85ffe49fd5a1572b6fb203a54b4",
          "blockNumber": "0x4188309",
          "blockTimestamp": "0x691d72a9",
          "transactionHash": "0xb20ab0d2c9020b1e51e61b3356ef2cff7925dcc0dbfa2fd1fafb4ca8a19949b4",
          "transactionIndex": "0xad",
          "logIndex": "0x3c7",
          "removed": false
        },
        {
          "address": "0x21cca8546b1550ee47134af86ae929c1fa3671c9",
          "topics": [
            "0xedfc909d0ab2a1625b7911d925efbd8200cdd99d4c7ba44e720328b17879f0b3",
            "0x000000000000000000000000d1d1b359c1161c331958d6c079a1e38cb60dfa2f"
          ],
          "data": "0x00000000000000000000000000000000000000000000001b1ae4d6e2ef500000",
          "blockHash": "0xafc2be417b3dda86f665d476d9c208eed9e8f85ffe49fd5a1572b6fb203a54b4",
          "blockNumber": "0x4188309",
          "blockTimestamp": "0x691d72a9",
          "transactionHash": "0xb20ab0d2c9020b1e51e61b3356ef2cff7925dcc0dbfa2fd1fafb4ca8a19949b4",
          "transactionIndex": "0xad",
          "logIndex": "0x3c8",
          "removed": false
        },
        {
          "address": "0x21cca8546b1550ee47134af86ae929c1fa3671c9",
          "topics": [
            "0xedfc909d0ab2a1625b7911d925efbd8200cdd99d4c7ba44e720328b17879f0b3",
            "0x0000000000000000000000000d3f914a59a5a8bc1812c1c3a08827b819274774"
          ],
          "data": "0x00000000000000000000000000000000000000000000001b1ae4d6e2ef500000",
          "blockHash": "0xafc2be417b3dda86f665d476d9c208eed9e8f85ffe49fd5a1572b6fb203a54b4",
          "blockNumber": "0x4188309",
          "blockTimestamp": "0x691d72a9",
          "transactionHash": "0xb20ab0d2c9020b1e51e61b3356ef2cff7925dcc0dbfa2fd1fafb4ca8a19949b4",
          "transactionIndex": "0xad",
          "logIndex": "0x3c9",
          "removed": false
        },
        {
          "address": "0x21cca8546b1550ee47134af86ae929c1fa3671c9",
          "topics": [
            "0xedfc909d0ab2a1625b7911d925efbd8200cdd99d4c7ba44e720328b17879f0b3",
            "0x000000000000000000000000457f195cd0c5c0db9f8d42b86831c026ae1c9a22"
          ],
          "data": "0x00000000000000000000000000000000000000000000001b1ae4d6e2ef500000",
          "blockHash": "0xafc2be417b3dda86f665d476d9c208eed9e8f85ffe49fd5a1572b6fb203a54b4",
          "blockNumber": "0x4188309",
          "blockTimestamp": "0x691d72a9",
          "transactionHash": "0xb20ab0d2c9020b1e51e61b3356ef2cff7925dcc0dbfa2fd1fafb4ca8a19949b4",
          "transactionIndex": "0xad",
          "logIndex": "0x3ca",
          "removed": false
        },
        {
          "address": "0x21cca8546b1550ee47134af86ae929c1fa3671c9",
          "topics": [
            "0xedfc909d0ab2a1625b7911d925efbd8200cdd99d4c7ba44e720328b17879f0b3",
            "0x000000000000000000000000efafe3f1314ec17201b4785102963b1fa4bd8012"
          ],
          "data": "0x00000000000000000000000000000000000000000000001b1ae4d6e2ef500000",
          "blockHash": "0xafc2be417b3dda86f665d476d9c208eed9e8f85ffe49fd5a1572b6fb203a54b4",
          "blockNumber": "0x4188309",
          "blockTimestamp": "0x691d72a9",
          "transactionHash": "0xb20ab0d2c9020b1e51e61b3356ef2cff7925dcc0dbfa2fd1fafb4ca8a19949b4",
          "transactionIndex": "0xad",
          "logIndex": "0x3cb",
          "removed": false
        },
        {
          "address": "0x21cca8546b1550ee47134af86ae929c1fa3671c9",
          "topics": [
            "0xedfc909d0ab2a1625b7911d925efbd8200cdd99d4c7ba44e720328b17879f0b3",
            "0x000000000000000000000000b4a0ee1168286f287f612cb34ffc7184a2eb3b8c"
          ],
          "data": "0x00000000000000000000000000000000000000000000001b1ae4d6e2ef500000",
          "blockHash": "0xafc2be417b3dda86f665d476d9c208eed9e8f85ffe49fd5a1572b6fb203a54b4",
          "blockNumber": "0x4188309",
          "blockTimestamp": "0x691d72a9",
          "transactionHash": "0xb20ab0d2c9020b1e51e61b3356ef2cff7925dcc0dbfa2fd1fafb4ca8a19949b4",
          "transactionIndex": "0xad",
          "logIndex": "0x3cc",
          "removed": false
        },
        {
          "address": "0x21cca8546b1550ee47134af86ae929c1fa3671c9",
          "topics": [
            "0xedfc909d0ab2a1625b7911d925efbd8200cdd99d4c7ba44e720328b17879f0b3",
            "0x000000000000000000000000ba91669d31d989ff15ee11a28a31b14eebf69c81"
          ],
          "data": "0x00000000000000000000000000000000000000000000001b1ae4d6e2ef500000",
          "blockHash": "0xafc2be417b3dda86f665d476d9c208eed9e8f85ffe49fd5a1572b6fb203a54b4",
          "blockNumber": "0x4188309",
          "blockTimestamp": "0x691d72a9",
          "transactionHash": "0xb20ab0d2c9020b1e51e61b3356ef2cff7925dcc0dbfa2fd1fafb4ca8a19949b4",
          "transactionIndex": "0xad",
          "logIndex": "0x3cd",
          "removed": false
        },
        {
          "address": "0x21cca8546b1550ee47134af86ae929c1fa3671c9",
          "topics": [
            "0xedfc909d0ab2a1625b7911d925efbd8200cdd99d4c7ba44e720328b17879f0b3",
            "0x00000000000000000000000012125240752b5f373ff4a20e47d8d700d785a904"
          ],
          "data": "0x00000000000000000000000000000000000000000000001b1ae4d6e2ef500000",
          "blockHash": "0xafc2be417b3dda86f665d476d9c208eed9e8f85ffe49fd5a1572b6fb203a54b4",
          "blockNumber": "0x4188309",
          "blockTimestamp": "0x691d72a9",
          "transactionHash": "0xb20ab0d2c9020b1e51e61b3356ef2cff7925dcc0dbfa2fd1fafb4ca8a19949b4",
          "transactionIndex": "0xad",
          "logIndex": "0x3ce",
          "removed": false
        },
        {
          "address": "0x21cca8546b1550ee47134af86ae929c1fa3671c9",
          "topics": [
            "0xedfc909d0ab2a1625b7911d925efbd8200cdd99d4c7ba44e720328b17879f0b3",
            "0x00000000000000000000000054c28c8ca21f1d5e0bfae098fcaed23dbcc30bcb"
          ],
          "data": "0x00000000000000000000000000000000000000000000001b1ae4d6e2ef500000",
          "blockHash": "0xafc2be417b3dda86f665d476d9c208eed9e8f85ffe49fd5a1572b6fb203a54b4",
          "blockNumber": "0x4188309",
          "blockTimestamp": "0x691d72a9",
          "transactionHash": "0xb20ab0d2c9020b1e51e61b3356ef2cff7925dcc0dbfa2fd1fafb4ca8a19949b4",
          "transactionIndex": "0xad",
          "logIndex": "0x3cf",
          "removed": false
        },
        {
          "address": "0x21cca8546b1550ee47134af86ae929c1fa3671c9",
          "topics": [
            "0xedfc909d0ab2a1625b7911d925efbd8200cdd99d4c7ba44e720328b17879f0b3",
            "0x0000000000000000000000003f17587d0265a9c569151c211253a5789cf0feb6"
          ],
          "data": "0x00000000000000000000000000000000000000000000001b1ae4d6e2ef500000",
          "blockHash": "0xafc2be417b3dda86f665d476d9c208eed9e8f85ffe49fd5a1572b6fb203a54b4",
          "blockNumber": "0x4188309",
          "blockTimestamp": "0x691d72a9",
          "transactionHash": "0xb20ab0d2c9020b1e51e61b3356ef2cff7925dcc0dbfa2fd1fafb4ca8a19949b4",
          "transactionIndex": "0xad",
          "logIndex": "0x3d0",
          "removed": false
        },
        {
          "address": "0x21cca8546b1550ee47134af86ae929c1fa3671c9",
          "topics": [
            "0xedfc909d0ab2a1625b7911d925efbd8200cdd99d4c7ba44e720328b17879f0b3",
            "0x000000000000000000000000cdd1d68dc51c14c8dfc398867fc4ca9c34e0b42d"
          ],
          "data": "0x00000000000000000000000000000000000000000000001b1ae4d6e2ef500000",
          "blockHash": "0xafc2be417b3dda86f665d476d9c208eed9e8f85ffe49fd5a1572b6fb203a54b4",
          "blockNumber": "0x4188309",
          "blockTimestamp": "0x691d72a9",
          "transactionHash": "0xb20ab0d2c9020b1e51e61b3356ef2cff7925dcc0dbfa2fd1fafb4ca8a19949b4",
          "transactionIndex": "0xad",
          "logIndex": "0x3d1",
          "removed": false
        },
        {
          "address": "0x21cca8546b1550ee47134af86ae929c1fa3671c9",
          "topics": [
            "0xedfc909d0ab2a1625b7911d925efbd8200cdd99d4c7ba44e720328b17879f0b3",
            "0x000000000000000000000000f97207b95138b23d225fdabee33e48b5f5975b33"
          ],
          "data": "0x00000000000000000000000000000000000000000000001b1ae4d6e2ef500000",
          "blockHash": "0xafc2be417b3dda86f665d476d9c208eed9e8f85ffe49fd5a1572b6fb203a54b4",
          "blockNumber": "0x4188309",
          "blockTimestamp": "0x691d72a9",
          "transactionHash": "0xb20ab0d2c9020b1e51e61b3356ef2cff7925dcc0dbfa2fd1fafb4ca8a19949b4",
          "transactionIndex": "0xad",
          "logIndex": "0x3d2",
          "removed": false
        },
        {
          "address": "0x21cca8546b1550ee47134af86ae929c1fa3671c9",
          "topics": [
            "0xedfc909d0ab2a1625b7911d925efbd8200cdd99d4c7ba44e720328b17879f0b3",
            "0x000000000000000000000000533d368ad9a099d1001b90fca160603829f08647"
          ],
          "data": "0x00000000000000000000000000000000000000000000001b1ae4d6e2ef500000",
          "blockHash": "0xafc2be417b3dda86f665d476d9c208eed9e8f85ffe49fd5a1572b6fb203a54b4",
          "blockNumber": "0x4188309",
          "blockTimestamp": "0x691d72a9",
          "transactionHash": "0xb20ab0d2c9020b1e51e61b3356ef2cff7925dcc0dbfa2fd1fafb4ca8a19949b4",
          "transactionIndex": "0xad",
          "logIndex": "0x3d3",
          "removed": false
        },
        {
          "address": "0x21cca8546b1550ee47134af86ae929c1fa3671c9",
          "topics": [
            "0xedfc909d0ab2a1625b7911d925efbd8200cdd99d4c7ba44e720328b17879f0b3",
            "0x000000000000000000000000d87c4665c4f41a46136ced2d10c4424f269458dc"
          ],
          "data": "0x00000000000000000000000000000000000000000000001b1ae4d6e2ef500000",
          "blockHash": "0xafc2be417b3dda86f665d476d9c208eed9e8f85ffe49fd5a1572b6fb203a54b4",
          "blockNumber": "0x4188309",
          "blockTimestamp": "0x691d72a9",
          "transactionHash": "0xb20ab0d2c9020b1e51e61b3356ef2cff7925dcc0dbfa2fd1fafb4ca8a19949b4",
          "transactionIndex": "0xad",
          "logIndex": "0x3d4",
          "removed": false
        },
        {
          "address": "0x21cca8546b1550ee47134af86ae929c1fa3671c9",
          "topics": [
            "0xedfc909d0ab2a1625b7911d925efbd8200cdd99d4c7ba44e720328b17879f0b3",
            "0x00000000000000000000000079c5d862c0fb46091194ae2f893e4817a2e5cb4c"
          ],
          "data": "0x00000000000000000000000000000000000000000000001b1ae4d6e2ef500000",
          "blockHash": "0xafc2be417b3dda86f665d476d9c208eed9e8f85ffe49fd5a1572b6fb203a54b4",
          "blockNumber": "0x4188309",
          "blockTimestamp": "0x691d72a9",
          "transactionHash": "0xb20ab0d2c9020b1e51e61b3356ef2cff7925dcc0dbfa2fd1fafb4ca8a19949b4",
          "transactionIndex": "0xad",
          "logIndex": "0x3d5",
          "removed": false
        },
        {
          "address": "0x21cca8546b1550ee47134af86ae929c1fa3671c9",
          "topics": [
            "0xedfc909d0ab2a1625b7911d925efbd8200cdd99d4c7ba44e720328b17879f0b3",
            "0x0000000000000000000000008519d73f56e160336cdf69fb114f803ba149c764"
          ],
          "data": "0x00000000000000000000000000000000000000000000001b1ae4d6e2ef500000",
          "blockHash": "0xafc2be417b3dda86f665d476d9c208eed9e8f85ffe49fd5a1572b6fb203a54b4",
          "blockNumber": "0x4188309",
          "blockTimestamp": "0x691d72a9",
          "transactionHash": "0xb20ab0d2c9020b1e51e61b3356ef2cff7925dcc0dbfa2fd1fafb4ca8a19949b4",
          "transactionIndex": "0xad",
          "logIndex": "0x3d6",
          "removed": false
        },
        {
          "address": "0x21cca8546b1550ee47134af86ae929c1fa3671c9",
          "topics": [
            "0xedfc909d0ab2a1625b7911d925efbd8200cdd99d4c7ba44e720328b17879f0b3",
            "0x0000000000000000000000004e29c9f65886862ec9eef6c1d4d9a2fc4d9ae14f"
          ],
          "data": "0x00000000000000000000000000000000000000000000001b1ae4d6e2ef500000",
          "blockHash": "0xafc2be417b3dda86f665d476d9c208eed9e8f85ffe49fd5a1572b6fb203a54b4",
          "blockNumber": "0x4188309",
          "blockTimestamp": "0x691d72a9",
          "transactionHash": "0xb20ab0d2c9020b1e51e61b3356ef2cff7925dcc0dbfa2fd1fafb4ca8a19949b4",
          "transactionIndex": "0xad",
          "logIndex": "0x3d7",
          "removed": false
        },
        {
          "address": "0x21cca8546b1550ee47134af86ae929c1fa3671c9",
          "topics": [
            "0xedfc909d0ab2a1625b7911d925efbd8200cdd99d4c7ba44e720328b17879f0b3",
            "0x0000000000000000000000009e6343360065b844b6dbbd72a3be2edd3979d0d0"
          ],
          "data": "0x00000000000000000000000000000000000000000000001b1ae4d6e2ef500000",
          "blockHash": "0xafc2be417b3dda86f665d476d9c208eed9e8f85ffe49fd5a1572b6fb203a54b4",
          "blockNumber": "0x4188309",
          "blockTimestamp": "0x691d72a9",
          "transactionHash": "0xb20ab0d2c9020b1e51e61b3356ef2cff7925dcc0dbfa2fd1fafb4ca8a19949b4",
          "transactionIndex": "0xad",
          "logIndex": "0x3d8",
          "removed": false
        },
        {
          "address": "0x21cca8546b1550ee47134af86ae929c1fa3671c9",
          "topics": [
            "0xedfc909d0ab2a1625b7911d925efbd8200cdd99d4c7ba44e720328b17879f0b3",
            "0x00000000000000000000000028d5273fdaba6bb9092e5ffa864688f763064694"
          ],
          "data": "0x00000000000000000000000000000000000000000000001b1ae4d6e2ef500000",
          "blockHash": "0xafc2be417b3dda86f665d476d9c208eed9e8f85ffe49fd5a1572b6fb203a54b4",
          "blockNumber": "0x4188309",
          "blockTimestamp": "0x691d72a9",
          "transactionHash": "0xb20ab0d2c9020b1e51e61b3356ef2cff7925dcc0dbfa2fd1fafb4ca8a19949b4",
          "transactionIndex": "0xad",
          "logIndex": "0x3d9",
          "removed": false
        }
      ],
      "logsBloom": "0x00200410400284c80040000000800040004000000000000100000000800220000002000800001020000100000000022480000800000000010100000000010080020400000010000400001000d2002120000000002400030a00001040000000000040200021001000000080000000a00008800200400010000140104040000004000a000000008000000001000880000000000400000821102000300260010100000010020002000000008100210820008b00c0008000000000140102c010000220200001200010050200200510000044004d00002200000001000000080008000000002012000000008000480020002001400048020000000000100000005000",
      "type": "0x0",
      "transactionHash": "0xb20ab0d2c9020b1e51e61b3356ef2cff7925dcc0dbfa2fd1fafb4ca8a19949b4",
      "transactionIndex": "0xad",
      "blockHash": "0xafc2be417b3dda86f665d476d9c208eed9e8f85ffe49fd5a1572b6fb203a54b4",
      "blockNumber": "0x4188309",
      "gasUsed": "0x1396e1",
      "effectiveGasPrice": "0x2faf080",
      "from": "0x91935e2e959fb504640280c08530156c67f89479",
      "to": "0x21cca8546b1550ee47134af86ae929c1fa3671c9",
      "contractAddress": null
    },
    {
      "status": "0x1",
      "cumulativeGasUsed": "0x1e69d77",
      "logs": [
        {
          "address": "0x21cca8546b1550ee47134af86ae929c1fa3671c9",
          "topics": [
            "0xedfc909d0ab2a1625b7911d925efbd8200cdd99d4c7ba44e720328b17879f0b3",
            "0x0000000000000000000000000ca055852c1184031ad84d63d642516c18b9e143"
          ],
          "data": "0x00000000000000000000000000000000000000000000001b1ae4d6e2ef500000",
          "blockHash": "0xafc2be417b3dda86f665d476d9c208eed9e8f85ffe49fd5a1572b6fb203a54b4",
          "blockNumber": "0x4188309",
          "blockTimestamp": "0x691d72a9",
          "transactionHash": "0xb25e2494175c8cc6b0e7e04584ed1233632d359c2f6c4cc7f599b60437980727",
          "transactionIndex": "0xd9",
          "logIndex": "0x472",
          "removed": false
        },
        {
          "address": "0x21cca8546b1550ee47134af86ae929c1fa3671c9",
          "topics": [
            "0xedfc909d0ab2a1625b7911d925efbd8200cdd99d4c7ba44e720328b17879f0b3",
            "0x0000000000000000000000009d23e47ce311eba96a8d2a248c38817748e17042"
          ],
          "data": "0x00000000000000000000000000000000000000000000001b1ae4d6e2ef500000",
          "blockHash": "0xafc2be417b3dda86f665d476d9c208eed9e8f85ffe49fd5a1572b6fb203a54b4",
          "blockNumber": "0x4188309",
          "blockTimestamp": "0x691d72a9",
          "transactionHash": "0xb25e2494175c8cc6b0e7e04584ed1233632d359c2f6c4cc7f599b60437980727",
          "transactionIndex": "0xd9",
          "logIndex": "0x473",
          "removed": false
        },
        {
          "address": "0x21cca8546b1550ee47134af86ae929c1fa3671c9",
          "topics": [
            "0xedfc909d0ab2a1625b7911d925efbd8200cdd99d4c7ba44e720328b17879f0b3",
            "0x000000000000000000000000180de854bf3eb186c048720546413fb1150a12ce"
          ],
          "data": "0x00000000000000000000000000000000000000000000001b1ae4d6e2ef500000",
          "blockHash": "0xafc2be417b3dda86f665d476d9c208eed9e8f85ffe49fd5a1572b6fb203a54b4",
          "blockNumber": "0x4188309",
          "blockTimestamp": "0x691d72a9",
          "transactionHash": "0xb25e2494175c8cc6b0e7e04584ed1233632d359c2f6c4cc7f599b60437980727",
          "transactionIndex": "0xd9",
          "logIndex": "0x474",
          "removed": false
        },
        {
          "address": "0x21cca8546b1550ee47134af86ae929c1fa3671c9",
          "topics": [
            "0xedfc909d0ab2a1625b7911d925efbd8200cdd99d4c7ba44e720328b17879f0b3",
            "0x000000000000000000000000b6ea526334e4a2b9278c5b7d1678a120bdb2554d"
          ],
          "data": "0x00000000000000000000000000000000000000000000001b1ae4d6e2ef500000",
          "blockHash": "0xafc2be417b3dda86f665d476d9c208eed9e8f85ffe49fd5a1572b6fb203a54b4",
          "blockNumber": "0x4188309",
          "blockTimestamp": "0x691d72a9",
          "transactionHash": "0xb25e2494175c8cc6b0e7e04584ed1233632d359c2f6c4cc7f599b60437980727",
          "transactionIndex": "0xd9",
          "logIndex": "0x475",
          "removed": false
        },
        {
          "address": "0x21cca8546b1550ee47134af86ae929c1fa3671c9",
          "topics": [
            "0xedfc909d0ab2a1625b7911d925efbd8200cdd99d4c7ba44e720328b17879f0b3",
            "0x0000000000000000000000000b214071926684b71976d0dbe0316b5210c91ca6"
          ],
          "data": "0x00000000000000000000000000000000000000000000001b1ae4d6e2ef500000",
          "blockHash": "0xafc2be417b3dda86f665d476d9c208eed9e8f85ffe49fd5a1572b6fb203a54b4",
          "blockNumber": "0x4188309",
          "blockTimestamp": "0x691d72a9",
          "transactionHash": "0xb25e2494175c8cc6b0e7e04584ed1233632d359c2f6c4cc7f599b60437980727",
          "transactionIndex": "0xd9",
          "logIndex": "0x476",
          "removed": false
        },
        {
          "address": "0x21cca8546b1550ee47134af86ae929c1fa3671c9",
          "topics": [
            "0xedfc909d0ab2a1625b7911d925efbd8200cdd99d4c7ba44e720328b17879f0b3",
            "0x000000000000000000000000f3848c5623e6f72fbe53f8e2f0834a1340a615f3"
          ],
          "data": "0x00000000000000000000000000000000000000000000001b1ae4d6e2ef500000",
          "blockHash": "0xafc2be417b3dda86f665d476d9c208eed9e8f85ffe49fd5a1572b6fb203a54b4",
          "blockNumber": "0x4188309",
          "blockTimestamp": "0x691d72a9",
          "transactionHash": "0xb25e2494175c8cc6b0e7e04584ed1233632d359c2f6c4cc7f599b60437980727",
          "transactionIndex": "0xd9",
          "logIndex": "0x477",
          "removed": false
        },
        {
          "address": "0x21cca8546b1550ee47134af86ae929c1fa3671c9",
          "topics": [
            "0xedfc909d0ab2a1625b7911d925efbd8200cdd99d4c7ba44e720328b17879f0b3",
            "0x000000000000000000000000f9e56bc80af4b54121841bb5a1148d9deda54d28"
          ],
          "data": "0x00000000000000000000000000000000000000000000001b1ae4d6e2ef500000",
          "blockHash": "0xafc2be417b3dda86f665d476d9c208eed9e8f85ffe49fd5a1572b6fb203a54b4",
          "blockNumber": "0x4188309",
          "blockTimestamp": "0x691d72a9",
          "transactionHash": "0xb25e2494175c8cc6b0e7e04584ed1233632d359c2f6c4cc7f599b60437980727",
          "transactionIndex": "0xd9",
          "logIndex": "0x478",
          "removed": false
        },
        {
          "address": "0x21cca8546b1550ee47134af86ae929c1fa3671c9",
          "topics": [
            "0xedfc909d0ab2a1625b7911d925efbd8200cdd99d4c7ba44e720328b17879f0b3",
            "0x000000000000000000000000fd94c9dc6e5858c71b4062ed37689384a6df54ef"
          ],
          "data": "0x00000000000000000000000000000000000000000000001b1ae4d6e2ef500000",
          "blockHash": "0xafc2be417b3dda86f665d476d9c208eed9e8f85ffe49fd5a1572b6fb203a54b4",
          "blockNumber": "0x4188309",
          "blockTimestamp": "0x691d72a9",
          "transactionHash": "0xb25e2494175c8cc6b0e7e04584ed1233632d359c2f6c4cc7f599b60437980727",
          "transactionIndex": "0xd9",
          "logIndex": "0x479",
          "removed": false
        },
        {
          "address": "0x21cca8546b1550ee47134af86ae929c1fa3671c9",
          "topics": [
            "0xedfc909d0ab2a1625b7911d925efbd8200cdd99d4c7ba44e720328b17879f0b3",
            "0x000000000000000000000000c35f17047b76133a251812166e9ef8558d57ed96"
          ],
          "data": "0x00000000000000000000000000000000000000000000001b1ae4d6e2ef500000",
          "blockHash": "0xafc2be417b3dda86f665d476d9c208eed9e8f85ffe49fd5a1572b6fb203a54b4",
          "blockNumber": "0x4188309",
          "blockTimestamp": "0x691d72a9",
          "transactionHash": "0xb25e2494175c8cc6b0e7e04584ed1233632d359c2f6c4cc7f599b60437980727",
          "transactionIndex": "0xd9",
          "logIndex": "0x47a",
          "removed": false
        },
        {
          "address": "0x21cca8546b1550ee47134af86ae929c1fa3671c9",
          "topics": [
            "0xedfc909d0ab2a1625b7911d925efbd8200cdd99d4c7ba44e720328b17879f0b3",
            "0x000000000000000000000000125d96334bfc32175fcb304bcc381d860395a138"
          ],
          "data": "0x00000000000000000000000000000000000000000000001b1ae4d6e2ef500000",
          "blockHash": "0xafc2be417b3dda86f665d476d9c208eed9e8f85ffe49fd5a1572b6fb203a54b4",
          "blockNumber": "0x4188309",
          "blockTimestamp": "0x691d72a9",
          "transactionHash": "0xb25e2494175c8cc6b0e7e04584ed1233632d359c2f6c4cc7f599b60437980727",
          "transactionIndex": "0xd9",
          "logIndex": "0x47b",
          "removed": false
        },
        {
          "address": "0x21cca8546b1550ee47134af86ae929c1fa3671c9",
          "topics": [
            "0xedfc909d0ab2a1625b7911d925efbd8200cdd99d4c7ba44e720328b17879f0b3",
            "0x0000000000000000000000007dd2ab36704fd4a8cc4a0073311a24b19e02ddfc"
          ],
          "data": "0x00000000000000000000000000000000000000000000001b1ae4d6e2ef500000",
          "blockHash": "0xafc2be417b3dda86f665d476d9c208eed9e8f85ffe49fd5a1572b6fb203a54b4",
          "blockNumber": "0x4188309",
          "blockTimestamp": "0x691d72a9",
          "transactionHash": "0xb25e2494175c8cc6b0e7e04584ed1233632d359c2f6c4cc7f599b60437980727",
          "transactionIndex": "0xd9",
          "logIndex": "0x47c",
          "removed": false
        },
        {
          "address": "0x21cca8546b1550ee47134af86ae929c1fa3671c9",
          "topics": [
            "0xedfc909d0ab2a1625b7911d925efbd8200cdd99d4c7ba44e720328b17879f0b3",
            "0x000000000000000000000000474dddd102423dd9deb01dcbbf4a11504b1a337b"
          ],
          "data": "0x00000000000000000000000000000000000000000000001b1ae4d6e2ef500000",
          "blockHash": "0xafc2be417b3dda86f665d476d9c208eed9e8f85ffe49fd5a1572b6fb203a54b4",
          "blockNumber": "0x4188309",
          "blockTimestamp": "0x691d72a9",
          "transactionHash": "0xb25e2494175c8cc6b0e7e04584ed1233632d359c2f6c4cc7f599b60437980727",
          "transactionIndex": "0xd9",
          "logIndex": "0x47d",
          "removed": false
        },
        {
          "address": "0x21cca8546b1550ee47134af86ae929c1fa3671c9",
          "topics": [
            "0xedfc909d0ab2a1625b7911d925efbd8200cdd99d4c7ba44e720328b17879f0b3",
            "0x0000000000000000000000004bff703142ac5b310923cf96a89ecac9020a2b85"
          ],
          "data": "0x00000000000000000000000000000000000000000000001b1ae4d6e2ef500000",
          "blockHash": "0xafc2be417b3dda86f665d476d9c208eed9e8f85ffe49fd5a1572b6fb203a54b4",
          "blockNumber": "0x4188309",
          "blockTimestamp": "0x691d72a9",
          "transactionHash": "0xb25e2494175c8cc6b0e7e04584ed1233632d359c2f6c4cc7f599b60437980727",
          "transactionIndex": "0xd9",
          "logIndex": "0x47e",
          "removed": false
        },
        {
          "address": "0x21cca8546b1550ee47134af86ae929c1fa3671c9",
          "topics": [
            "0xedfc909d0ab2a1625b7911d925efbd8200cdd99d4c7ba44e720328b17879f0b3",
            "0x000000000000000000000000178e7dcbec6e4b1d16e9903d76b352378f3bdb75"
          ],
          "data": "0x00000000000000000000000000000000000000000000001b1ae4d6e2ef500000",
          "blockHash": "0xafc2be417b3dda86f665d476d9c208eed9e8f85ffe49fd5a1572b6fb203a54b4",
          "blockNumber": "0x4188309",
          "blockTimestamp": "0x691d72a9",
          "transactionHash": "0xb25e2494175c8cc6b0e7e04584ed1233632d359c2f6c4cc7f599b60437980727",
          "transactionIndex": "0xd9",
          "logIndex": "0x47f",
          "removed": false
        },
        {
          "address": "0x21cca8546b1550ee47134af86ae929c1fa3671c9",
          "topics": [
            "0xedfc909d0ab2a1625b7911d925efbd8200cdd99d4c7ba44e720328b17879f0b3",
            "0x0000000000000000000000001029522c25bfceea0d619aa451c12ea0e59bb2e1"
          ],
          "data": "0x00000000000000000000000000000000000000000000001b1ae4d6e2ef500000",
          "blockHash": "0xafc2be417b3dda86f665d476d9c208eed9e8f85ffe49fd5a1572b6fb203a54b4",
          "blockNumber": "0x4188309",
          "blockTimestamp": "0x691d72a9",
          "transactionHash": "0xb25e2494175c8cc6b0e7e04584ed1233632d359c2f6c4cc7f599b60437980727",
          "transactionIndex": "0xd9",
          "logIndex": "0x480",
          "removed": false
        },
        {
          "address": "0x21cca8546b1550ee47134af86ae929c1fa3671c9",
          "topics": [
            "0xedfc909d0ab2a1625b7911d925efbd8200cdd99d4c7ba44e720328b17879f0b3",
            "0x00000000000000000000000066c0c23d13706e8b664db0d50f81c496caa4e243"
          ],
          "data": "0x00000000000000000000000000000000000000000000001b1ae4d6e2ef500000",
          "blockHash": "0xafc2be417b3dda86f665d476d9c208eed9e8f85ffe49fd5a1572b6fb203a54b4",
          "blockNumber": "0x4188309",
          "blockTimestamp": "0x691d72a9",
          "transactionHash": "0xb25e2494175c8cc6b0e7e04584ed1233632d359c2f6c4cc7f599b60437980727",
          "transactionIndex": "0xd9",
          "logIndex": "0x481",
          "removed": false
        },
        {
          "address": "0x21cca8546b1550ee47134af86ae929c1fa3671c9",
          "topics": [
            "0xedfc909d0ab2a1625b7911d925efbd8200cdd99d4c7ba44e720328b17879f0b3",
            "0x000000000000000000000000aeba119a4fbaff929a7c6b47d368a6560649cbc7"
          ],
          "data": "0x00000000000000000000000000000000000000000000001b1ae4d6e2ef500000",
          "blockHash": "0xafc2be417b3dda86f665d476d9c208eed9e8f85ffe49fd5a1572b6fb203a54b4",
          "blockNumber": "0x4188309",
          "blockTimestamp": "0x691d72a9",
          "transactionHash": "0xb25e2494175c8cc6b0e7e04584ed1233632d359c2f6c4cc7f599b60437980727",
          "transactionIndex": "0xd9",
          "logIndex": "0x482",
          "removed": false
        },
        {
          "address": "0x21cca8546b1550ee47134af86ae929c1fa3671c9",
          "topics": [
            "0xedfc909d0ab2a1625b7911d925efbd8200cdd99d4c7ba44e720328b17879f0b3",
            "0x0000000000000000000000007935dba2dbee1f013b766e4238615b55cacd2659"
          ],
          "data": "0x00000000000000000000000000000000000000000000001b1ae4d6e2ef500000",
          "blockHash": "0xafc2be417b3dda86f665d476d9c208eed9e8f85ffe49fd5a1572b6fb203a54b4",
          "blockNumber": "0x4188309",
          "blockTimestamp": "0x691d72a9",
          "transactionHash": "0xb25e2494175c8cc6b0e7e04584ed1233632d359c2f6c4cc7f599b60437980727",
          "transactionIndex": "0xd9",
          "logIndex": "0x483",
          "removed": false
        },
        {
          "address": "0x21cca8546b1550ee47134af86ae929c1fa3671c9",
          "topics": [
            "0xedfc909d0ab2a1625b7911d925efbd8200cdd99d4c7ba44e720328b17879f0b3",
            "0x0000000000000000000000001c23bfcfbac2dd9a3215a1c23f88beb5da7c6966"
          ],
          "data": "0x00000000000000000000000000000000000000000000001b1ae4d6e2ef500000",
          "blockHash": "0xafc2be417b3dda86f665d476d9c208eed9e8f85ffe49fd5a1572b6fb203a54b4",
          "blockNumber": "0x4188309",
          "blockTimestamp": "0x691d72a9",
          "transactionHash": "0xb25e2494175c8cc6b0e7e04584ed1233632d359c2f6c4cc7f599b60437980727",
          "transactionIndex": "0xd9",
          "logIndex": "0x484",
          "removed": false
        },
        {
          "address": "0x21cca8546b1550ee47134af86ae929c1fa3671c9",
          "topics": [
            "0xedfc909d0ab2a1625b7911d925efbd8200cdd99d4c7ba44e720328b17879f0b3",
            "0x000000000000000000000000a3c2d28f5ff7b0b78a1cc19d47a5439a42829b52"
          ],
          "data": "0x00000000000000000000000000000000000000000000001b1ae4d6e2ef500000",
          "blockHash": "0xafc2be417b3dda86f665d476d9c208eed9e8f85ffe49fd5a1572b6fb203a54b4",
          "blockNumber": "0x4188309",
          "blockTimestamp": "0x691d72a9",
          "transactionHash": "0xb25e2494175c8cc6b0e7e04584ed1233632d359c2f6c4cc7f599b60437980727",
          "transactionIndex": "0xd9",
          "logIndex": "0x485",
          "removed": false
        },
        {
          "address": "0x21cca8546b1550ee47134af86ae929c1fa3671c9",
          "topics": [
            "0xedfc909d0ab2a1625b7911d925efbd8200cdd99d4c7ba44e720328b17879f0b3",
            "0x000000000000000000000000fa01b066d8af1ec582580aa814947e4991f7092e"
          ],
          "data": "0x00000000000000000000000000000000000000000000001b1ae4d6e2ef500000",
          "blockHash": "0xafc2be417b3dda86f665d476d9c208eed9e8f85ffe49fd5a1572b6fb203a54b4",
          "blockNumber": "0x4188309",
          "blockTimestamp": "0x691d72a9",
          "transactionHash": "0xb25e2494175c8cc6b0e7e04584ed1233632d359c2f6c4cc7f599b60437980727",
          "transactionIndex": "0xd9",
          "logIndex": "0x486",
          "removed": false
        },
        {
          "address": "0x21cca8546b1550ee47134af86ae929c1fa3671c9",
          "topics": [
            "0xedfc909d0ab2a1625b7911d925efbd8200cdd99d4c7ba44e720328b17879f0b3",
            "0x000000000000000000000000d91b8fd15aebdd435dda3277ff37356c722feec9"
          ],
          "data": "0x00000000000000000000000000000000000000000000001b1ae4d6e2ef500000",
          "blockHash": "0xafc2be417b3dda86f665d476d9c208eed9e8f85ffe49fd5a1572b6fb203a54b4",
          "blockNumber": "0x4188309",
          "blockTimestamp": "0x691d72a9",
          "transactionHash": "0xb25e2494175c8cc6b0e7e04584ed1233632d359c2f6c4cc7f599b60437980727",
          "transactionIndex": "0xd9",
          "logIndex": "0x487",
          "removed": false
        },
        {
          "address": "0x21cca8546b1550ee47134af86ae929c1fa3671c9",
          "topics": [
            "0xedfc909d0ab2a1625b7911d925efbd8200cdd99d4c7ba44e720328b17879f0b3",
            "0x000000000000000000000000164731462ba05f2487c1c7af3d011a6ffaf57327"
          ],
          "data": "0x00000000000000000000000000000000000000000000001b1ae4d6e2ef500000",
          "blockHash": "0xafc2be417b3dda86f665d476d9c208eed9e8f85ffe49fd5a1572b6fb203a54b4",
          "blockNumber": "0x4188309",
          "blockTimestamp": "0x691d72a9",
          "transactionHash": "0xb25e2494175c8cc6b0e7e04584ed1233632d359c2f6c4cc7f599b60437980727",
          "transactionIndex": "0xd9",
          "logIndex": "0x488",
          "removed": false
        },
        {
          "address": "0x21cca8546b1550ee47134af86ae929c1fa3671c9",
          "topics": [
            "0xedfc909d0ab2a1625b7911d925efbd8200cdd99d4c7ba44e720328b17879f0b3",
            "0x0000000000000000000000006ec53dc8807575fe38c9073f32d047291ffc8a0a"
          ],
          "data": "0x00000000000000000000000000000000000000000000001b1ae4d6e2ef500000",
          "blockHash": "0xafc2be417b3dda86f665d476d9c208eed9e8f85ffe49fd5a1572b6fb203a54b4",
          "blockNumber": "0x4188309",
          "blockTimestamp": "0x691d72a9",
          "transactionHash": "0xb25e2494175c8cc6b0e7e04584ed1233632d359c2f6c4cc7f599b60437980727",
          "transactionIndex": "0xd9",
          "logIndex": "0x489",
          "removed": false
        },
        {
          "address": "0x21cca8546b1550ee47134af86ae929c1fa3671c9",
          "topics": [
            "0xedfc909d0ab2a1625b7911d925efbd8200cdd99d4c7ba44e720328b17879f0b3",
            "0x000000000000000000000000d0936baabecb7af8cfffda997c518ec4ca0fe976"
          ],
          "data": "0x00000000000000000000000000000000000000000000001b1ae4d6e2ef500000",
          "blockHash": "0xafc2be417b3dda86f665d476d9c208eed9e8f85ffe49fd5a1572b6fb203a54b4",
          "blockNumber": "0x4188309",
          "blockTimestamp": "0x691d72a9",
          "transactionHash": "0xb25e2494175c8cc6b0e7e04584ed1233632d359c2f6c4cc7f599b60437980727",
          "transactionIndex": "0xd9",
          "logIndex": "0x48a",
          "removed": false
        },
        {
          "address": "0x21cca8546b1550ee47134af86ae929c1fa3671c9",
          "topics": [
            "0xedfc909d0ab2a1625b7911d925efbd8200cdd99d4c7ba44e720328b17879f0b3",
            "0x0000000000000000000000006008d40f01ba3e8973e6a34d4e1f0f757c7b4639"
          ],
          "data": "0x00000000000000000000000000000000000000000000001b1ae4d6e2ef500000",
          "blockHash": "0xafc2be417b3dda86f665d476d9c208eed9e8f85ffe49fd5a1572b6fb203a54b4",
          "blockNumber": "0x4188309",
          "blockTimestamp": "0x691d72a9",
          "transactionHash": "0xb25e2494175c8cc6b0e7e04584ed1233632d359c2f6c4cc7f599b60437980727",
          "transactionIndex": "0xd9",
          "logIndex": "0x48b",
          "removed": false
        },
        {
          "address": "0x21cca8546b1550ee47134af86ae929c1fa3671c9",
          "topics": [
            "0xedfc909d0ab2a1625b7911d925efbd8200cdd99d4c7ba44e720328b17879f0b3",
            "0x0000000000000000000000008ae9796ade4cf200f7339658dacc63a67e092ad4"
          ],
          "data": "0x00000000000000000000000000000000000000000000001b1ae4d6e2ef500000",
          "blockHash": "0xafc2be417b3dda86f665d476d9c208eed9e8f85ffe49fd5a1572b6fb203a54b4",
          "blockNumber": "0x4188309",
          "blockTimestamp": "0x691d72a9",
          "transactionHash": "0xb25e2494175c8cc6b0e7e04584ed1233632d359c2f6c4cc7f599b60437980727",
          "transactionIndex": "0xd9",
          "logIndex": "0x48c",
          "removed": false
        },
        {
          "address": "0x21cca8546b1550ee47134af86ae929c1fa3671c9",
          "topics": [
            "0xedfc909d0ab2a1625b7911d925efbd8200cdd99d4c7ba44e720328b17879f0b3",
            "0x000000000000000000000000c07bb01374623f72d7994841ca7f824d9c13def4"
          ],
          "data": "0x00000000000000000000000000000000000000000000001b1ae4d6e2ef500000",
          "blockHash": "0xafc2be417b3dda86f665d476d9c208eed9e8f85ffe49fd5a1572b6fb203a54b4",
          "blockNumber": "0x4188309",
          "blockTimestamp": "0x691d72a9",
          "transactionHash": "0xb25e2494175c8cc6b0e7e04584ed1233632d359c2f6c4cc7f599b60437980727",
          "transactionIndex": "0xd9",
          "logIndex": "0x48d",
          "removed": false
        },
        {
          "address": "0x21cca8546b1550ee47134af86ae929c1fa3671c9",
          "topics": [
            "0xedfc909d0ab2a1625b7911d925efbd8200cdd99d4c7ba44e720328b17879f0b3",
            "0x0000000000000000000000004dd9e6c8cb043c459e50e9f982eda7b0f99c6ae1"
          ],
          "data": "0x00000000000000000000000000000000000000000000001b1ae4d6e2ef500000",
          "blockHash": "0xafc2be417b3dda86f665d476d9c208eed9e8f85ffe49fd5a1572b6fb203a54b4",
          "blockNumber": "0x4188309",
          "blockTimestamp": "0x691d72a9",
          "transactionHash": "0xb25e2494175c8cc6b0e7e04584ed1233632d359c2f6c4cc7f599b60437980727",
          "transactionIndex": "0xd9",
          "logIndex": "0x48e",
          "removed": false
        },
        {
          "address": "0x21cca8546b1550ee47134af86ae929c1fa3671c9",
          "topics": [
            "0xedfc909d0ab2a1625b7911d925efbd8200cdd99d4c7ba44e720328b17879f0b3",
            "0x00000000000000000000000017f1ad4bdaff01d9bb1c1b89f3a296daccc84cda"
          ],
          "data": "0x00000000000000000000000000000000000000000000001b1ae4d6e2ef500000",
          "blockHash": "0xafc2be417b3dda86f665d476d9c208eed9e8f85ffe49fd5a1572b6fb203a54b4",
          "blockNumber": "0x4188309",
          "blockTimestamp": "0x691d72a9",
          "transactionHash": "0xb25e2494175c8cc6b0e7e04584ed1233632d359c2f6c4cc7f599b60437980727",
          "transactionIndex": "0xd9",
          "logIndex": "0x48f",
          "removed": false
        },
        {
          "address": "0x21cca8546b1550ee47134af86ae929c1fa3671c9",
          "topics": [
            "0xedfc909d0ab2a1625b7911d925efbd8200cdd99d4c7ba44e720328b17879f0b3",
            "0x0000000000000000000000008d54a0509034657764b39635fa8af4d731a3d2b9"
          ],
          "data": "0x00000000000000000000000000000000000000000000001b1ae4d6e2ef500000",
          "blockHash": "0xafc2be417b3dda86f665d476d9c208eed9e8f85ffe49fd5a1572b6fb203a54b4",
          "blockNumber": "0x4188309",
          "blockTimestamp": "0x691d72a9",
          "transactionHash": "0xb25e2494175c8cc6b0e7e04584ed1233632d359c2f6c4cc7f599b60437980727",
          "transactionIndex": "0xd9",
          "logIndex": "0x490",
          "removed": false
        },
        {
          "address": "0x21cca8546b1550ee47134af86ae929c1fa3671c9",
          "topics": [
            "0xedfc909d0ab2a1625b7911d925efbd8200cdd99d4c7ba44e720328b17879f0b3",
            "0x00000000000000000000000083bce3861f3bcde7fdf03fa16cd9684cc12adf86"
          ],
          "data": "0x00000000000000000000000000000000000000000000001b1ae4d6e2ef500000",
          "blockHash": "0xafc2be417b3dda86f665d476d9c208eed9e8f85ffe49fd5a1572b6fb203a54b4",
          "blockNumber": "0x4188309",
          "blockTimestamp": "0x691d72a9",
          "transactionHash": "0xb25e2494175c8cc6b0e7e04584ed1233632d359c2f6c4cc7f599b60437980727",
          "transactionIndex": "0xd9",
          "logIndex": "0x491",
          "removed": false
        },
        {
          "address": "0x21cca8546b1550ee47134af86ae929c1fa3671c9",
          "topics": [
            "0xedfc909d0ab2a1625b7911d925efbd8200cdd99d4c7ba44e720328b17879f0b3",
            "0x00000000000000000000000005f77eaa9e592dde91e8aa3efa305a134f040ca5"
          ],
          "data": "0x00000000000000000000000000000000000000000000001b1ae4d6e2ef500000",
          "blockHash": "0xafc2be417b3dda86f665d476d9c208eed9e8f85ffe49fd5a1572b6fb203a54b4",
          "blockNumber": "0x4188309",
          "blockTimestamp": "0x691d72a9",
          "transactionHash": "0xb25e2494175c8cc6b0e7e04584ed1233632d359c2f6c4cc7f599b60437980727",
          "transactionIndex": "0xd9",
          "logIndex": "0x492",
          "removed": false
        },
        {
          "address": "0x21cca8546b1550ee47134af86ae929c1fa3671c9",
          "topics": [
            "0xedfc909d0ab2a1625b7911d925efbd8200cdd99d4c7ba44e720328b17879f0b3",
            "0x000000000000000000000000a895626dcd0d7cb709a94b1b7ca09a6cb0f95139"
          ],
          "data": "0x00000000000000000000000000000000000000000000001b1ae4d6e2ef500000",
          "blockHash": "0xafc2be417b3dda86f665d476d9c208eed9e8f85ffe49fd5a1572b6fb203a54b4",
          "blockNumber": "0x4188309",
          "blockTimestamp": "0x691d72a9",
          "transactionHash": "0xb25e2494175c8cc6b0e7e04584ed1233632d359c2f6c4cc7f599b60437980727",
          "transactionIndex": "0xd9",
          "logIndex": "0x493",
          "removed": false
        },
        {
          "address": "0x21cca8546b1550ee47134af86ae929c1fa3671c9",
          "topics": [
            "0xedfc909d0ab2a1625b7911d925efbd8200cdd99d4c7ba44e720328b17879f0b3",
            "0x000000000000000000000000bc5eef78271ba358a6701d5d5f1fa7aff44b3832"
          ],
          "data": "0x00000000000000000000000000000000000000000000001b1ae4d6e2ef500000",
          "blockHash": "0xafc2be417b3dda86f665d476d9c208eed9e8f85ffe49fd5a1572b6fb203a54b4",
          "blockNumber": "0x4188309",
          "blockTimestamp": "0x691d72a9",
          "transactionHash": "0xb25e2494175c8cc6b0e7e04584ed1233632d359c2f6c4cc7f599b60437980727",
          "transactionIndex": "0xd9",
          "logIndex": "0x494",
          "removed": false
        },
        {
          "address": "0x21cca8546b1550ee47134af86ae929c1fa3671c9",
          "topics": [
            "0xedfc909d0ab2a1625b7911d925efbd8200cdd99d4c7ba44e720328b17879f0b3",
            "0x0000000000000000000000008a5e940dbe6d0670292eada6e9f3ec786fac9c3c"
          ],
          "data": "0x00000000000000000000000000000000000000000000001b1ae4d6e2ef500000",
          "blockHash": "0xafc2be417b3dda86f665d476d9c208eed9e8f85ffe49fd5a1572b6fb203a54b4",
          "blockNumber": "0x4188309",
          "blockTimestamp": "0x691d72a9",
          "transactionHash": "0xb25e2494175c8cc6b0e7e04584ed1233632d359c2f6c4cc7f599b60437980727",
          "transactionIndex": "0xd9",
          "logIndex": "0x495",
          "removed": false
        },
        {
          "address": "0x21cca8546b1550ee47134af86ae929c1fa3671c9",
          "topics": [
            "0xedfc909d0ab2a1625b7911d925efbd8200cdd99d4c7ba44e720328b17879f0b3",
            "0x000000000000000000000000a152c1b49fca038e082d3b12498801625f34f07b"
          ],
          "data": "0x00000000000000000000000000000000000000000000001b1ae4d6e2ef500000",
          "blockHash": "0xafc2be417b3dda86f665d476d9c208eed9e8f85ffe49fd5a1572b6fb203a54b4",
          "blockNumber": "0x4188309",
          "blockTimestamp": "0x691d72a9",
          "transactionHash": "0xb25e2494175c8cc6b0e7e04584ed1233632d359c2f6c4cc7f599b60437980727",
          "transactionIndex": "0xd9",
          "logIndex": "0x496",
          "removed": false
        },
        {
          "address": "0x21cca8546b1550ee47134af86ae929c1fa3671c9",
          "topics": [
            "0xedfc909d0ab2a1625b7911d925efbd8200cdd99d4c7ba44e720328b17879f0b3",
            "0x0000000000000000000000002572876e75d15c2c072505f2e8072d2a34a375ee"
          ],
          "data": "0x00000000000000000000000000000000000000000000001b1ae4d6e2ef500000",
          "blockHash": "0xafc2be417b3dda86f665d476d9c208eed9e8f85ffe49fd5a1572b6fb203a54b4",
          "blockNumber": "0x4188309",
          "blockTimestamp": "0x691d72a9",
          "transactionHash": "0xb25e2494175c8cc6b0e7e04584ed1233632d359c2f6c4cc7f599b60437980727",
          "transactionIndex": "0xd9",
          "logIndex": "0x497",
          "removed": false
        },
        {
          "address": "0x21cca8546b1550ee47134af86ae929c1fa3671c9",
          "topics": [
            "0xedfc909d0ab2a1625b7911d925efbd8200cdd99d4c7ba44e720328b17879f0b3",
            "0x0000000000000000000000004597b6b058241c0c5c3fb0cffe3e1c7b272c1385"
          ],
          "data": "0x00000000000000000000000000000000000000000000001b1ae4d6e2ef500000",
          "blockHash": "0xafc2be417b3dda86f665d476d9c208eed9e8f85ffe49fd5a1572b6fb203a54b4",
          "blockNumber": "0x4188309",
          "blockTimestamp": "0x691d72a9",
          "transactionHash": "0xb25e2494175c8cc6b0e7e04584ed1233632d359c2f6c4cc7f599b60437980727",
          "transactionIndex": "0xd9",
          "logIndex": "0x498",
          "removed": false
        },
        {
          "address": "0x21cca8546b1550ee47134af86ae929c1fa3671c9",
          "topics": [
            "0xedfc909d0ab2a1625b7911d925efbd8200cdd99d4c7ba44e720328b17879f0b3",
            "0x0000000000000000000000008534674d8fda132b69e062be09e28e34632c91b0"
          ],
          "data": "0x00000000000000000000000000000000000000000000001b1ae4d6e2ef500000",
          "blockHash": "0xafc2be417b3dda86f665d476d9c208eed9e8f85ffe49fd5a1572b6fb203a54b4",
          "blockNumber": "0x4188309",
          "blockTimestamp": "0x691d72a9",
          "transactionHash": "0xb25e2494175c8cc6b0e7e04584ed1233632d359c2f6c4cc7f599b60437980727",
          "transactionIndex": "0xd9",
          "logIndex": "0x499",
          "removed": false
        },
        {
          "address": "0x21cca8546b1550ee47134af86ae929c1fa3671c9",
          "topics": [
            "0xedfc909d0ab2a1625b7911d925efbd8200cdd99d4c7ba44e720328b17879f0b3",
            "0x000000000000000000000000bab599d7eb0442e60287bcf51c9e799994976181"
          ],
          "data": "0x00000000000000000000000000000000000000000000001b1ae4d6e2ef500000",
          "blockHash": "0xafc2be417b3dda86f665d476d9c208eed9e8f85ffe49fd5a1572b6fb203a54b4",
          "blockNumber": "0x4188309",
          "blockTimestamp": "0x691d72a9",
          "transactionHash": "0xb25e2494175c8cc6b0e7e04584ed1233632d359c2f6c4cc7f599b60437980727",
          "transactionIndex": "0xd9",
          "logIndex": "0x49a",
          "removed": false
        },
        {
          "address": "0x21cca8546b1550ee47134af86ae929c1fa3671c9",
          "topics": [
            "0xedfc909d0ab2a1625b7911d925efbd8200cdd99d4c7ba44e720328b17879f0b3",
            "0x000000000000000000000000019a5b8e3dfa85271a2f1b6eca486d79d3da319b"
          ],
          "data": "0x00000000000000000000000000000000000000000000001b1ae4d6e2ef500000",
          "blockHash": "0xafc2be417b3dda86f665d476d9c208eed9e8f85ffe49fd5a1572b6fb203a54b4",
          "blockNumber": "0x4188309",
          "blockTimestamp": "0x691d72a9",
          "transactionHash": "0xb25e2494175c8cc6b0e7e04584ed1233632d359c2f6c4cc7f599b60437980727",
          "transactionIndex": "0xd9",
          "logIndex": "0x49b",
          "removed": false
        },
        {
          "address": "0x21cca8546b1550ee47134af86ae929c1fa3671c9",
          "topics": [
            "0xedfc909d0ab2a1625b7911d925efbd8200cdd99d4c7ba44e720328b17879f0b3",
            "0x0000000000000000000000009c28f3b07864ea8296c3d5c88ab0b1856b98df6a"
          ],
          "data": "0x00000000000000000000000000000000000000000000001b1ae4d6e2ef500000",
          "blockHash": "0xafc2be417b3dda86f665d476d9c208eed9e8f85ffe49fd5a1572b6fb203a54b4",
          "blockNumber": "0x4188309",
          "blockTimestamp": "0x691d72a9",
          "transactionHash": "0xb25e2494175c8cc6b0e7e04584ed1233632d359c2f6c4cc7f599b60437980727",
          "transactionIndex": "0xd9",
          "logIndex": "0x49c",
          "removed": false
        },
        {
          "address": "0x21cca8546b1550ee47134af86ae929c1fa3671c9",
          "topics": [
            "0xedfc909d0ab2a1625b7911d925efbd8200cdd99d4c7ba44e720328b17879f0b3",
            "0x000000000000000000000000d474b4485832c77bbded17079b0a1e2dd9e1d964"
          ],
          "data": "0x00000000000000000000000000000000000000000000001b1ae4d6e2ef500000",
          "blockHash": "0xafc2be417b3dda86f665d476d9c208eed9e8f85ffe49fd5a1572b6fb203a54b4",
          "blockNumber": "0x4188309",
          "blockTimestamp": "0x691d72a9",
          "transactionHash": "0xb25e2494175c8cc6b0e7e04584ed1233632d359c2f6c4cc7f599b60437980727",
          "transactionIndex": "0xd9",
          "logIndex": "0x49d",
          "removed": false
        },
        {
          "address": "0x21cca8546b1550ee47134af86ae929c1fa3671c9",
          "topics": [
            "0xedfc909d0ab2a1625b7911d925efbd8200cdd99d4c7ba44e720328b17879f0b3",
            "0x0000000000000000000000008b7842bb9c00045e2d9766ba20d72fd4685fca30"
          ],
          "data": "0x00000000000000000000000000000000000000000000001b1ae4d6e2ef500000",
          "blockHash": "0xafc2be417b3dda86f665d476d9c208eed9e8f85ffe49fd5a1572b6fb203a54b4",
          "blockNumber": "0x4188309",
          "blockTimestamp": "0x691d72a9",
          "transactionHash": "0xb25e2494175c8cc6b0e7e04584ed1233632d359c2f6c4cc7f599b60437980727",
          "transactionIndex": "0xd9",
          "logIndex": "0x49e",
          "removed": false
        },
        {
          "address": "0x21cca8546b1550ee47134af86ae929c1fa3671c9",
          "topics": [
            "0xedfc909d0ab2a1625b7911d925efbd8200cdd99d4c7ba44e720328b17879f0b3",
            "0x000000000000000000000000f1cebe6cf1a12a4ef643b0937ceb2fb8e23e8a20"
          ],
          "data": "0x00000000000000000000000000000000000000000000001b1ae4d6e2ef500000",
          "blockHash": "0xafc2be417b3dda86f665d476d9c208eed9e8f85ffe49fd5a1572b6fb203a54b4",
          "blockNumber": "0x4188309",
          "blockTimestamp": "0x691d72a9",
          "transactionHash": "0xb25e2494175c8cc6b0e7e04584ed1233632d359c2f6c4cc7f599b60437980727",
          "transactionIndex": "0xd9",
          "logIndex": "0x49f",
          "removed": false
        },
        {
          "address": "0x21cca8546b1550ee47134af86ae929c1fa3671c9",
          "topics": [
            "0xedfc909d0ab2a1625b7911d925efbd8200cdd99d4c7ba44e720328b17879f0b3",
            "0x00000000000000000000000075440b6d4074cf03b18a848797981fba271293d8"
          ],
          "data": "0x00000000000000000000000000000000000000000000001b1ae4d6e2ef500000",
          "blockHash": "0xafc2be417b3dda86f665d476d9c208eed9e8f85ffe49fd5a1572b6fb203a54b4",
          "blockNumber": "0x4188309",
          "blockTimestamp": "0x691d72a9",
          "transactionHash": "0xb25e2494175c8cc6b0e7e04584ed1233632d359c2f6c4cc7f599b60437980727",
          "transactionIndex": "0xd9",
          "logIndex": "0x4a0",
          "removed": false
        },
        {
          "address": "0x21cca8546b1550ee47134af86ae929c1fa3671c9",
          "topics": [
            "0xedfc909d0ab2a1625b7911d925efbd8200cdd99d4c7ba44e720328b17879f0b3",
            "0x000000000000000000000000d2ae1b2959eea2eccf21aa8c6a73e5b3c9b68cd4"
          ],
          "data": "0x00000000000000000000000000000000000000000000001b1ae4d6e2ef500000",
          "blockHash": "0xafc2be417b3dda86f665d476d9c208eed9e8f85ffe49fd5a1572b6fb203a54b4",
          "blockNumber": "0x4188309",
          "blockTimestamp": "0x691d72a9",
          "transactionHash": "0xb25e2494175c8cc6b0e7e04584ed1233632d359c2f6c4cc7f599b60437980727",
          "transactionIndex": "0xd9",
          "logIndex": "0x4a1",
          "removed": false
        },
        {
          "address": "0x21cca8546b1550ee47134af86ae929c1fa3671c9",
          "topics": [
            "0xedfc909d0ab2a1625b7911d925efbd8200cdd99d4c7ba44e720328b17879f0b3",
            "0x00000000000000000000000010b11e3a0d27576e8e6a999e97e1383037f6f05a"
          ],
          "data": "0x00000000000000000000000000000000000000000000001b1ae4d6e2ef500000",
          "blockHash": "0xafc2be417b3dda86f665d476d9c208eed9e8f85ffe49fd5a1572b6fb203a54b4",
          "blockNumber": "0x4188309",
          "blockTimestamp": "0x691d72a9",
          "transactionHash": "0xb25e2494175c8cc6b0e7e04584ed1233632d359c2f6c4cc7f599b60437980727",
          "transactionIndex": "0xd9",
          "logIndex": "0x4a2",
          "removed": false
        },
        {
          "address": "0x21cca8546b1550ee47134af86ae929c1fa3671c9",
          "topics": [
            "0xedfc909d0ab2a1625b7911d925efbd8200cdd99d4c7ba44e720328b17879f0b3",
            "0x000000000000000000000000b674ae59ba11195573c2c49a9617316f8b0ae05b"
          ],
          "data": "0x00000000000000000000000000000000000000000000001b1ae4d6e2ef500000",
          "blockHash": "0xafc2be417b3dda86f665d476d9c208eed9e8f85ffe49fd5a1572b6fb203a54b4",
          "blockNumber": "0x4188309",
          "blockTimestamp": "0x691d72a9",
          "transactionHash": "0xb25e2494175c8cc6b0e7e04584ed1233632d359c2f6c4cc7f599b60437980727",
          "transactionIndex": "0xd9",
          "logIndex": "0x4a3",
          "removed": false
        }
      ],
      "logsBloom": "0x8040020000000802880020000008400004000000200000004002002240000000000224000020006a002000400060002004200c0400004000010001000100000000001000100000000000000800000040000020000000a01000088002020000002010001000101000010801004800800000410c0800000808084011000000808240000000008000080800000020800400000000000010000800001040001040018000000004000010010000504003020000200400000010005000004010001000100000100000c0002840000008043000000001840000000100000000060088000040000020008100000400008002008008000000800800a20200190500041040",
      "type": "0x0",
      "transactionHash": "0xb25e2494175c8cc6b0e7e04584ed1233632d359c2f6c4cc7f599b60437980727",
      "transactionIndex": "0xd9",
      "blockHash": "0xafc2be417b3dda86f665d476d9c208eed9e8f85ffe49fd5a1572b6fb203a54b4",
      "blockNumber": "0x4188309",
      "gasUsed": "0x139711",
      "effectiveGasPrice": "0x2faf080",
      "from": "0x91935e2e959fb504640280c08530156c67f89479",
      "to": "0x21cca8546b1550ee47134af86ae929c1fa3671c9",
      "contractAddress": null
    },
    {
      "status": "0x1",
      "cumulativeGasUsed": "0xf97036",
      "logs": [
        {
          "address": "0x21cca8546b1550ee47134af86ae929c1fa3671c9",
          "topics": [
            "0xedfc909d0ab2a1625b7911d925efbd8200cdd99d4c7ba44e720328b17879f0b3",
            "0x00000000000000000000000035793ba96e5e1faa752cccd00c01dcb4c9902d51"
          ],
          "data": "0x00000000000000000000000000000000000000000000001b1ae4d6e2ef500000",
          "blockHash": "0x38c917a261f23f208309cf5a23c2d277325a44461035d1f0a096eb13827283b8",
          "blockNumber": "0x418830a",
          "blockTimestamp": "0x691d72aa",
          "transactionHash": "0xacdf3fa9766420abfd598b5d9451e37e1bd62f0db637c13137faed9ec768241d",
          "transactionIndex": "0x6d",
          "logIndex": "0x1a6",
          "removed": false
        },
        {
          "address": "0x21cca8546b1550ee47134af86ae929c1fa3671c9",
          "topics": [
            "0xedfc909d0ab2a1625b7911d925efbd8200cdd99d4c7ba44e720328b17879f0b3",
            "0x000000000000000000000000c90cf1cd65c343db87b94a73da94d558060120e6"
          ],
          "data": "0x00000000000000000000000000000000000000000000001b1ae4d6e2ef500000",
          "blockHash": "0x38c917a261f23f208309cf5a23c2d277325a44461035d1f0a096eb13827283b8",
          "blockNumber": "0x418830a",
          "blockTimestamp": "0x691d72aa",
          "transactionHash": "0xacdf3fa9766420abfd598b5d9451e37e1bd62f0db637c13137faed9ec768241d",
          "transactionIndex": "0x6d",
          "logIndex": "0x1a7",
          "removed": false
        },
        {
          "address": "0x21cca8546b1550ee47134af86ae929c1fa3671c9",
          "topics": [
            "0xedfc909d0ab2a1625b7911d925efbd8200cdd99d4c7ba44e720328b17879f0b3",
            "0x000000000000000000000000966243b166cd623ad3b699a6d21a0ed062962a6d"
          ],
          "data": "0x00000000000000000000000000000000000000000000001b1ae4d6e2ef500000",
          "blockHash": "0x38c917a261f23f208309cf5a23c2d277325a44461035d1f0a096eb13827283b8",
          "blockNumber": "0x418830a",
          "blockTimestamp": "0x691d72aa",
          "transactionHash": "0xacdf3fa9766420abfd598b5d9451e37e1bd62f0db637c13137faed9ec768241d",
          "transactionIndex": "0x6d",
          "logIndex": "0x1a8",
          "removed": false
        },
        {
          "address": "0x21cca8546b1550ee47134af86ae929c1fa3671c9",
          "topics": [
            "0xedfc909d0ab2a1625b7911d925efbd8200cdd99d4c7ba44e720328b17879f0b3",
            "0x000000000000000000000000432ac4b829de52cfaa3bc7388e4e7e7737953898"
          ],
          "data": "0x00000000000000000000000000000000000000000000001b1ae4d6e2ef500000",
          "blockHash": "0x38c917a261f23f208309cf5a23c2d277325a44461035d1f0a096eb13827283b8",
          "blockNumber": "0x418830a",
          "blockTimestamp": "0x691d72aa",
          "transactionHash": "0xacdf3fa9766420abfd598b5d9451e37e1bd62f0db637c13137faed9ec768241d",
          "transactionIndex": "0x6d",
          "logIndex": "0x1a9",
          "removed": false
        },
        {
          "address": "0x21cca8546b1550ee47134af86ae929c1fa3671c9",
          "topics": [
            "0xedfc909d0ab2a1625b7911d925efbd8200cdd99d4c7ba44e720328b17879f0b3",
            "0x00000000000000000000000079cef3cdd33c5b02da082444d96ce6a61368d0b0"
          ],
          "data": "0x00000000000000000000000000000000000000000000001b1ae4d6e2ef500000",
          "blockHash": "0x38c917a261f23f208309cf5a23c2d277325a44461035d1f0a096eb13827283b8",
          "blockNumber": "0x418830a",
          "blockTimestamp": "0x691d72aa",
          "transactionHash": "0xacdf3fa9766420abfd598b5d9451e37e1bd62f0db637c13137faed9ec768241d",
          "transactionIndex": "0x6d",
          "logIndex": "0x1aa",
          "removed": false
        },
        {
          "address": "0x21cca8546b1550ee47134af86ae929c1fa3671c9",
          "topics": [
            "0xedfc909d0ab2a1625b7911d925efbd8200cdd99d4c7ba44e720328b17879f0b3",
            "0x0000000000000000000000007586bd1be44a8f78c67d66152015586ace636ed1"
          ],
          "data": "0x00000000000000000000000000000000000000000000001b1ae4d6e2ef500000",
          "blockHash": "0x38c917a261f23f208309cf5a23c2d277325a44461035d1f0a096eb13827283b8",
          "blockNumber": "0x418830a",
          "blockTimestamp": "0x691d72aa",
          "transactionHash": "0xacdf3fa9766420abfd598b5d9451e37e1bd62f0db637c13137faed9ec768241d",
          "transactionIndex": "0x6d",
          "logIndex": "0x1ab",
          "removed": false
        },
        {
          "address": "0x21cca8546b1550ee47134af86ae929c1fa3671c9",
          "topics": [
            "0xedfc909d0ab2a1625b7911d925efbd8200cdd99d4c7ba44e720328b17879f0b3",
            "0x000000000000000000000000f7d7aba564258b460f51caddae41c8f2fc2166c8"
          ],
          "data": "0x00000000000000000000000000000000000000000000001b1ae4d6e2ef500000",
          "blockHash": "0x38c917a261f23f208309cf5a23c2d277325a44461035d1f0a096eb13827283b8",
          "blockNumber": "0x418830a",
          "blockTimestamp": "0x691d72aa",
          "transactionHash": "0xacdf3fa9766420abfd598b5d9451e37e1bd62f0db637c13137faed9ec768241d",
          "transactionIndex": "0x6d",
          "logIndex": "0x1ac",
          "removed": false
        },
        {
          "address": "0x21cca8546b1550ee47134af86ae929c1fa3671c9",
          "topics": [
            "0xedfc909d0ab2a1625b7911d925efbd8200cdd99d4c7ba44e720328b17879f0b3",
            "0x0000000000000000000000009fdd8f32484951abc84df95579beed8b6e8cb4a8"
          ],
          "data": "0x00000000000000000000000000000000000000000000001b1ae4d6e2ef500000",
          "blockHash": "0x38c917a261f23f208309cf5a23c2d277325a44461035d1f0a096eb13827283b8",
          "blockNumber": "0x418830a",
          "blockTimestamp": "0x691d72aa",
          "transactionHash": "0xacdf3fa9766420abfd598b5d9451e37e1bd62f0db637c13137faed9ec768241d",
          "transactionIndex": "0x6d",
          "logIndex": "0x1ad",
          "removed": false
        },
        {
          "address": "0x21cca8546b1550ee47134af86ae929c1fa3671c9",
          "topics": [
            "0xedfc909d0ab2a1625b7911d925efbd8200cdd99d4c7ba44e720328b17879f0b3",
            "0x000000000000000000000000563674c74633224d8dcabebe6a43a49eb3a69634"
          ],
          "data": "0x00000000000000000000000000000000000000000000001b1ae4d6e2ef500000",
          "blockHash": "0x38c917a261f23f208309cf5a23c2d277325a44461035d1f0a096eb13827283b8",
          "blockNumber": "0x418830a",
          "blockTimestamp": "0x691d72aa",
          "transactionHash": "0xacdf3fa9766420abfd598b5d9451e37e1bd62f0db637c13137faed9ec768241d",
          "transactionIndex": "0x6d",
          "logIndex": "0x1ae",
          "removed": false
        },
        {
          "address": "0x21cca8546b1550ee47134af86ae929c1fa3671c9",
          "topics": [
            "0xedfc909d0ab2a1625b7911d925efbd8200cdd99d4c7ba44e720328b17879f0b3",
            "0x000000000000000000000000d0323d73f0484b8c819ba79d81eeff8d39cdf830"
          ],
          "data": "0x00000000000000000000000000000000000000000000001b1ae4d6e2ef500000",
          "blockHash": "0x38c917a261f23f208309cf5a23c2d277325a44461035d1f0a096eb13827283b8",
          "blockNumber": "0x418830a",
          "blockTimestamp": "0x691d72aa",
          "transactionHash": "0xacdf3fa9766420abfd598b5d9451e37e1bd62f0db637c13137faed9ec768241d",
          "transactionIndex": "0x6d",
          "logIndex": "0x1af",
          "removed": false
        },
        {
          "address": "0x21cca8546b1550ee47134af86ae929c1fa3671c9",
          "topics": [
            "0xedfc909d0ab2a1625b7911d925efbd8200cdd99d4c7ba44e720328b17879f0b3",
            "0x0000000000000000000000002293514911b543891665348a38866c527055d95c"
          ],
          "data": "0x00000000000000000000000000000000000000000000001b1ae4d6e2ef500000",
          "blockHash": "0x38c917a261f23f208309cf5a23c2d277325a44461035d1f0a096eb13827283b8",
          "blockNumber": "0x418830a",
          "blockTimestamp": "0x691d72aa",
          "transactionHash": "0xacdf3fa9766420abfd598b5d9451e37e1bd62f0db637c13137faed9ec768241d",
          "transactionIndex": "0x6d",
          "logIndex": "0x1b0",
          "removed": false
        },
        {
          "address": "0x21cca8546b1550ee47134af86ae929c1fa3671c9",
          "topics": [
            "0xedfc909d0ab2a1625b7911d925efbd8200cdd99d4c7ba44e720328b17879f0b3",
            "0x000000000000000000000000c4cbd51de74df13c08fbded6d026b35c9a6b204c"
          ],
          "data": "0x00000000000000000000000000000000000000000000001b1ae4d6e2ef500000",
          "blockHash": "0x38c917a261f23f208309cf5a23c2d277325a44461035d1f0a096eb13827283b8",
          "blockNumber": "0x418830a",
          "blockTimestamp": "0x691d72aa",
          "transactionHash": "0xacdf3fa9766420abfd598b5d9451e37e1bd62f0db637c13137faed9ec768241d",
          "transactionIndex": "0x6d",
          "logIndex": "0x1b1",
          "removed": false
        },
        {
          "address": "0x21cca8546b1550ee47134af86ae929c1fa3671c9",
          "topics": [
            "0xedfc909d0ab2a1625b7911d925efbd8200cdd99d4c7ba44e720328b17879f0b3",
            "0x000000000000000000000000da7c5a25ae7078c7e24094a63ed5ff6991e21713"
          ],
          "data": "0x00000000000000000000000000000000000000000000001b1ae4d6e2ef500000",
          "blockHash": "0x38c917a261f23f208309cf5a23c2d277325a44461035d1f0a096eb13827283b8",
          "blockNumber": "0x418830a",
          "blockTimestamp": "0x691d72aa",
          "transactionHash": "0xacdf3fa9766420abfd598b5d9451e37e1bd62f0db637c13137faed9ec768241d",
          "transactionIndex": "0x6d",
          "logIndex": "0x1b2",
          "removed": false
        },
        {
          "address": "0x21cca8546b1550ee47134af86ae929c1fa3671c9",
          "topics": [
            "0xedfc909d0ab2a1625b7911d925efbd8200cdd99d4c7ba44e720328b17879f0b3",
            "0x00000000000000000000000025aa2decc3e71943c1f5fe973767dda486e55ac9"
          ],
          "data": "0x00000000000000000000000000000000000000000000001b1ae4d6e2ef500000",
          "blockHash": "0x38c917a261f23f208309cf5a23c2d277325a44461035d1f0a096eb13827283b8",
          "blockNumber": "0x418830a",
          "blockTimestamp": "0x691d72aa",
          "transactionHash": "0xacdf3fa9766420abfd598b5d9451e37e1bd62f0db637c13137faed9ec768241d",
          "transactionIndex": "0x6d",
          "logIndex": "0x1b3",
          "removed": false
        },
        {
          "address": "0x21cca8546b1550ee47134af86ae929c1fa3671c9",
          "topics": [
            "0xedfc909d0ab2a1625b7911d925efbd8200cdd99d4c7ba44e720328b17879f0b3",
            "0x000000000000000000000000879016e093091b7dae292d2668c2c8d3705d0bfa"
          ],
          "data": "0x00000000000000000000000000000000000000000000001b1ae4d6e2ef500000",
          "blockHash": "0x38c917a261f23f208309cf5a23c2d277325a44461035d1f0a096eb13827283b8",
          "blockNumber": "0x418830a",
          "blockTimestamp": "0x691d72aa",
          "transactionHash": "0xacdf3fa9766420abfd598b5d9451e37e1bd62f0db637c13137faed9ec768241d",
          "transactionIndex": "0x6d",
          "logIndex": "0x1b4",
          "removed": false
        },
        {
          "address": "0x21cca8546b1550ee47134af86ae929c1fa3671c9",
          "topics": [
            "0xedfc909d0ab2a1625b7911d925efbd8200cdd99d4c7ba44e720328b17879f0b3",
            "0x00000000000000000000000027ad66009b0091fdcfbe82103b3f43085c103f9e"
          ],
          "data": "0x00000000000000000000000000000000000000000000001b1ae4d6e2ef500000",
          "blockHash": "0x38c917a261f23f208309cf5a23c2d277325a44461035d1f0a096eb13827283b8",
          "blockNumber": "0x418830a",
          "blockTimestamp": "0x691d72aa",
          "transactionHash": "0xacdf3fa9766420abfd598b5d9451e37e1bd62f0db637c13137faed9ec768241d",
          "transactionIndex": "0x6d",
          "logIndex": "0x1b5",
          "removed": false
        },
        {
          "address": "0x21cca8546b1550ee47134af86ae929c1fa3671c9",
          "topics": [
            "0xedfc909d0ab2a1625b7911d925efbd8200cdd99d4c7ba44e720328b17879f0b3",
            "0x00000000000000000000000007f40420adca57a825675e90b3a9ba5e9fedfd38"
          ],
          "data": "0x00000000000000000000000000000000000000000000001b1ae4d6e2ef500000",
          "blockHash": "0x38c917a261f23f208309cf5a23c2d277325a44461035d1f0a096eb13827283b8",
          "blockNumber": "0x418830a",
          "blockTimestamp": "0x691d72aa",
          "transactionHash": "0xacdf3fa9766420abfd598b5d9451e37e1bd62f0db637c13137faed9ec768241d",
          "transactionIndex": "0x6d",
          "logIndex": "0x1b6",
          "removed": false
        },
        {
          "address": "0x21cca8546b1550ee47134af86ae929c1fa3671c9",
          "topics": [
            "0xedfc909d0ab2a1625b7911d925efbd8200cdd99d4c7ba44e720328b17879f0b3",
            "0x0000000000000000000000009429a0ee59c387605e3a1436d987fbe6a4a99c44"
          ],
          "data": "0x00000000000000000000000000000000000000000000001b1ae4d6e2ef500000",
          "blockHash": "0x38c917a261f23f208309cf5a23c2d277325a44461035d1f0a096eb13827283b8",
          "blockNumber": "0x418830a",
          "blockTimestamp": "0x691d72aa",
          "transactionHash": "0xacdf3fa9766420abfd598b5d9451e37e1bd62f0db637c13137faed9ec768241d",
          "transactionIndex": "0x6d",
          "logIndex": "0x1b7",
          "removed": false
        },
        {
          "address": "0x21cca8546b1550ee47134af86ae929c1fa3671c9",
          "topics": [
            "0xedfc909d0ab2a1625b7911d925efbd8200cdd99d4c7ba44e720328b17879f0b3",
            "0x000000000000000000000000594cc2aef09d8e0bee5fb5dd768785397ea5697c"
          ],
          "data": "0x00000000000000000000000000000000000000000000001b1ae4d6e2ef500000",
          "blockHash": "0x38c917a261f23f208309cf5a23c2d277325a44461035d1f0a096eb13827283b8",
          "blockNumber": "0x418830a",
          "blockTimestamp": "0x691d72aa",
          "transactionHash": "0xacdf3fa9766420abfd598b5d9451e37e1bd62f0db637c13137faed9ec768241d",
          "transactionIndex": "0x6d",
          "logIndex": "0x1b8",
          "removed": false
        },
        {
          "address": "0x21cca8546b1550ee47134af86ae929c1fa3671c9",
          "topics": [
            "0xedfc909d0ab2a1625b7911d925efbd8200cdd99d4c7ba44e720328b17879f0b3",
            "0x000000000000000000000000735fd94bbae511886c0c3481cf671f236c717a5b"
          ],
          "data": "0x00000000000000000000000000000000000000000000001b1ae4d6e2ef500000",
          "blockHash": "0x38c917a261f23f208309cf5a23c2d277325a44461035d1f0a096eb13827283b8",
          "blockNumber": "0x418830a",
          "blockTimestamp": "0x691d72aa",
          "transactionHash": "0xacdf3fa9766420abfd598b5d9451e37e1bd62f0db637c13137faed9ec768241d",
          "transactionIndex": "0x6d",
          "logIndex": "0x1b9",
          "removed": false
        },
        {
          "address": "0x21cca8546b1550ee47134af86ae929c1fa3671c9",
          "topics": [
            "0xedfc909d0ab2a1625b7911d925efbd8200cdd99d4c7ba44e720328b17879f0b3",
            "0x0000000000000000000000009d0faf96b2ec40722cb118a136565878b73b2887"
          ],
          "data": "0x00000000000000000000000000000000000000000000001b1ae4d6e2ef500000",
          "blockHash": "0x38c917a261f23f208309cf5a23c2d277325a44461035d1f0a096eb13827283b8",
          "blockNumber": "0x418830a",
          "blockTimestamp": "0x691d72aa",
          "transactionHash": "0xacdf3fa9766420abfd598b5d9451e37e1bd62f0db637c13137faed9ec768241d",
          "transactionIndex": "0x6d",
          "logIndex": "0x1ba",
          "removed": false
        },
        {
          "address": "0x21cca8546b1550ee47134af86ae929c1fa3671c9",
          "topics": [
            "0xedfc909d0ab2a1625b7911d925efbd8200cdd99d4c7ba44e720328b17879f0b3",
            "0x000000000000000000000000b5eb818ddb7bce606d1e9c344478231405aec93a"
          ],
          "data": "0x00000000000000000000000000000000000000000000001b1ae4d6e2ef500000",
          "blockHash": "0x38c917a261f23f208309cf5a23c2d277325a44461035d1f0a096eb13827283b8",
          "blockNumber": "0x418830a",
          "blockTimestamp": "0x691d72aa",
          "transactionHash": "0xacdf3fa9766420abfd598b5d9451e37e1bd62f0db637c13137faed9ec768241d",
          "transactionIndex": "0x6d",
          "logIndex": "0x1bb",
          "removed": false
        },
        {
          "address": "0x21cca8546b1550ee47134af86ae929c1fa3671c9",
          "topics": [
            "0xedfc909d0ab2a1625b7911d925efbd8200cdd99d4c7ba44e720328b17879f0b3",
            "0x000000000000000000000000fda1f04180b9a7aea8d5fc0ff77bd6f2a9d4309c"
          ],
          "data": "0x00000000000000000000000000000000000000000000001b1ae4d6e2ef500000",
          "blockHash": "0x38c917a261f23f208309cf5a23c2d277325a44461035d1f0a096eb13827283b8",
          "blockNumber": "0x418830a",
          "blockTimestamp": "0x691d72aa",
          "transactionHash": "0xacdf3fa9766420abfd598b5d9451e37e1bd62f0db637c13137faed9ec768241d",
          "transactionIndex": "0x6d",
          "logIndex": "0x1bc",
          "removed": false
        },
        {
          "address": "0x21cca8546b1550ee47134af86ae929c1fa3671c9",
          "topics": [
            "0xedfc909d0ab2a1625b7911d925efbd8200cdd99d4c7ba44e720328b17879f0b3",
            "0x00000000000000000000000080a54400023067a6be15238b27d79d77fa2562c5"
          ],
          "data": "0x00000000000000000000000000000000000000000000001b1ae4d6e2ef500000",
          "blockHash": "0x38c917a261f23f208309cf5a23c2d277325a44461035d1f0a096eb13827283b8",
          "blockNumber": "0x418830a",
          "blockTimestamp": "0x691d72aa",
          "transactionHash": "0xacdf3fa9766420abfd598b5d9451e37e1bd62f0db637c13137faed9ec768241d",
          "transactionIndex": "0x6d",
          "logIndex": "0x1bd",
          "removed": false
        },
        {
          "address": "0x21cca8546b1550ee47134af86ae929c1fa3671c9",
          "topics": [
            "0xedfc909d0ab2a1625b7911d925efbd8200cdd99d4c7ba44e720328b17879f0b3",
            "0x000000000000000000000000d73103c3fce3dc0aeaab70c2f50a364989f60eac"
          ],
          "data": "0x00000000000000000000000000000000000000000000001b1ae4d6e2ef500000",
          "blockHash": "0x38c917a261f23f208309cf5a23c2d277325a44461035d1f0a096eb13827283b8",
          "blockNumber": "0x418830a",
          "blockTimestamp": "0x691d72aa",
          "transactionHash": "0xacdf3fa9766420abfd598b5d9451e37e1bd62f0db637c13137faed9ec768241d",
          "transactionIndex": "0x6d",
          "logIndex": "0x1be",
          "removed": false
        },
        {
          "address": "0x21cca8546b1550ee47134af86ae929c1fa3671c9",
          "topics": [
            "0xedfc909d0ab2a1625b7911d925efbd8200cdd99d4c7ba44e720328b17879f0b3",
            "0x0000000000000000000000000082792148bfbfee8b97e9866d79418ff7505509"
          ],
          "data": "0x00000000000000000000000000000000000000000000001b1ae4d6e2ef500000",
          "blockHash": "0x38c917a261f23f208309cf5a23c2d277325a44461035d1f0a096eb13827283b8",
          "blockNumber": "0x418830a",
          "blockTimestamp": "0x691d72aa",
          "transactionHash": "0xacdf3fa9766420abfd598b5d9451e37e1bd62f0db637c13137faed9ec768241d",
          "transactionIndex": "0x6d",
          "logIndex": "0x1bf",
          "removed": false
        },
        {
          "address": "0x21cca8546b1550ee47134af86ae929c1fa3671c9",
          "topics": [
            "0xedfc909d0ab2a1625b7911d925efbd8200cdd99d4c7ba44e720328b17879f0b3",
            "0x000000000000000000000000a28350d5c5073f7cc7166af1255d92a68d32327e"
          ],
          "data": "0x00000000000000000000000000000000000000000000001b1ae4d6e2ef500000",
          "blockHash": "0x38c917a261f23f208309cf5a23c2d277325a44461035d1f0a096eb13827283b8",
          "blockNumber": "0x418830a",
          "blockTimestamp": "0x691d72aa",
          "transactionHash": "0xacdf3fa9766420abfd598b5d9451e37e1bd62f0db637c13137faed9ec768241d",
          "transactionIndex": "0x6d",
          "logIndex": "0x1c0",
          "removed": false
        },
        {
          "address": "0x21cca8546b1550ee47134af86ae929c1fa3671c9",
          "topics": [
            "0xedfc909d0ab2a1625b7911d925efbd8200cdd99d4c7ba44e720328b17879f0b3",
            "0x00000000000000000000000054cab4f63a210c7730139baac03525df6f53a083"
          ],
          "data": "0x00000000000000000000000000000000000000000000001b1ae4d6e2ef500000",
          "blockHash": "0x38c917a261f23f208309cf5a23c2d277325a44461035d1f0a096eb13827283b8",
          "blockNumber": "0x418830a",
          "blockTimestamp": "0x691d72aa",
          "transactionHash": "0xacdf3fa9766420abfd598b5d9451e37e1bd62f0db637c13137faed9ec768241d",
          "transactionIndex": "0x6d",
          "logIndex": "0x1c1",
          "removed": false
        },
        {
          "address": "0x21cca8546b1550ee47134af86ae929c1fa3671c9",
          "topics": [
            "0xedfc909d0ab2a1625b7911d925efbd8200cdd99d4c7ba44e720328b17879f0b3",
            "0x000000000000000000000000ef9251373ce387b18e0ecd319ef7533ee7cfff3d"
          ],
          "data": "0x00000000000000000000000000000000000000000000001b1ae4d6e2ef500000",
          "blockHash": "0x38c917a261f23f208309cf5a23c2d277325a44461035d1f0a096eb13827283b8",
          "blockNumber": "0x418830a",
          "blockTimestamp": "0x691d72aa",
          "transactionHash": "0xacdf3fa9766420abfd598b5d9451e37e1bd62f0db637c13137faed9ec768241d",
          "transactionIndex": "0x6d",
          "logIndex": "0x1c2",
          "removed": false
        },
        {
          "address": "0x21cca8546b1550ee47134af86ae929c1fa3671c9",
          "topics": [
            "0xedfc909d0ab2a1625b7911d925efbd8200cdd99d4c7ba44e720328b17879f0b3",
            "0x000000000000000000000000c546a40fe60052c31f24b17e2e33cd7d13a1e5a0"
          ],
          "data": "0x00000000000000000000000000000000000000000000001b1ae4d6e2ef500000",
          "blockHash": "0x38c917a261f23f208309cf5a23c2d277325a44461035d1f0a096eb13827283b8",
          "blockNumber": "0x418830a",
          "blockTimestamp": "0x691d72aa",
          "transactionHash": "0xacdf3fa9766420abfd598b5d9451e37e1bd62f0db637c13137faed9ec768241d",
          "transactionIndex": "0x6d",
          "logIndex": "0x1c3",
          "removed": false
        },
        {
          "address": "0x21cca8546b1550ee47134af86ae929c1fa3671c9",
          "topics": [
            "0xedfc909d0ab2a1625b7911d925efbd8200cdd99d4c7ba44e720328b17879f0b3",
            "0x0000000000000000000000004cc069d6a8d79a4d7f8c4f285c90e7ad61955fe5"
          ],
          "data": "0x00000000000000000000000000000000000000000000001b1ae4d6e2ef500000",
          "blockHash": "0x38c917a261f23f208309cf5a23c2d277325a44461035d1f0a096eb13827283b8",
          "blockNumber": "0x418830a",
          "blockTimestamp": "0x691d72aa",
          "transactionHash": "0xacdf3fa9766420abfd598b5d9451e37e1bd62f0db637c13137faed9ec768241d",
          "transactionIndex": "0x6d",
          "logIndex": "0x1c4",
          "removed": false
        },
        {
          "address": "0x21cca8546b1550ee47134af86ae929c1fa3671c9",
          "topics": [
            "0xedfc909d0ab2a1625b7911d925efbd8200cdd99d4c7ba44e720328b17879f0b3",
            "0x000000000000000000000000d89e86787ce8ddc70681814de2870b880a6b7fd3"
          ],
          "data": "0x00000000000000000000000000000000000000000000001b1ae4d6e2ef500000",
          "blockHash": "0x38c917a261f23f208309cf5a23c2d277325a44461035d1f0a096eb13827283b8",
          "blockNumber": "0x418830a",
          "blockTimestamp": "0x691d72aa",
          "transactionHash": "0xacdf3fa9766420abfd598b5d9451e37e1bd62f0db637c13137faed9ec768241d",
          "transactionIndex": "0x6d",
          "logIndex": "0x1c5",
          "removed": false
        },
        {
          "address": "0x21cca8546b1550ee47134af86ae929c1fa3671c9",
          "topics": [
            "0xedfc909d0ab2a1625b7911d925efbd8200cdd99d4c7ba44e720328b17879f0b3",
            "0x0000000000000000000000004c737406e38bc7c2a9eac3e40fa1b08dd680ba0d"
          ],
          "data": "0x00000000000000000000000000000000000000000000001b1ae4d6e2ef500000",
          "blockHash": "0x38c917a261f23f208309cf5a23c2d277325a44461035d1f0a096eb13827283b8",
          "blockNumber": "0x418830a",
          "blockTimestamp": "0x691d72aa",
          "transactionHash": "0xacdf3fa9766420abfd598b5d9451e37e1bd62f0db637c13137faed9ec768241d",
          "transactionIndex": "0x6d",
          "logIndex": "0x1c6",
          "removed": false
        },
        {
          "address": "0x21cca8546b1550ee47134af86ae929c1fa3671c9",
          "topics": [
            "0xedfc909d0ab2a1625b7911d925efbd8200cdd99d4c7ba44e720328b17879f0b3",
            "0x00000000000000000000000092843d438136b5c518af28349760546e48aba176"
          ],
          "data": "0x00000000000000000000000000000000000000000000001b1ae4d6e2ef500000",
          "blockHash": "0x38c917a261f23f208309cf5a23c2d277325a44461035d1f0a096eb13827283b8",
          "blockNumber": "0x418830a",
          "blockTimestamp": "0x691d72aa",
          "transactionHash": "0xacdf3fa9766420abfd598b5d9451e37e1bd62f0db637c13137faed9ec768241d",
          "transactionIndex": "0x6d",
          "logIndex": "0x1c7",
          "removed": false
        },
        {
          "address": "0x21cca8546b1550ee47134af86ae929c1fa3671c9",
          "topics": [
            "0xedfc909d0ab2a1625b7911d925efbd8200cdd99d4c7ba44e720328b17879f0b3",
            "0x000000000000000000000000a1377f5d977b8042bcd0ea7b605ad0082a11ae54"
          ],
          "data": "0x00000000000000000000000000000000000000000000001b1ae4d6e2ef500000",
          "blockHash": "0x38c917a261f23f208309cf5a23c2d277325a44461035d1f0a096eb13827283b8",
          "blockNumber": "0x418830a",
          "blockTimestamp": "0x691d72aa",
          "transactionHash": "0xacdf3fa9766420abfd598b5d9451e37e1bd62f0db637c13137faed9ec768241d",
          "transactionIndex": "0x6d",
          "logIndex": "0x1c8",
          "removed": false
        },
        {
          "address": "0x21cca8546b1550ee47134af86ae929c1fa3671c9",
          "topics": [
            "0xedfc909d0ab2a1625b7911d925efbd8200cdd99d4c7ba44e720328b17879f0b3",
            "0x000000000000000000000000172ed82d3997a70f3854fa6340966b6f07a83cf7"
          ],
          "data": "0x00000000000000000000000000000000000000000000001b1ae4d6e2ef500000",
          "blockHash": "0x38c917a261f23f208309cf5a23c2d277325a44461035d1f0a096eb13827283b8",
          "blockNumber": "0x418830a",
          "blockTimestamp": "0x691d72aa",
          "transactionHash": "0xacdf3fa9766420abfd598b5d9451e37e1bd62f0db637c13137faed9ec768241d",
          "transactionIndex": "0x6d",
          "logIndex": "0x1c9",
          "removed": false
        },
        {
          "address": "0x21cca8546b1550ee47134af86ae929c1fa3671c9",
          "topics": [
            "0xedfc909d0ab2a1625b7911d925efbd8200cdd99d4c7ba44e720328b17879f0b3",
            "0x0000000000000000000000003418eb6ba3a722817b19b739b8ee10d822c2f39d"
          ],
          "data": "0x00000000000000000000000000000000000000000000001b1ae4d6e2ef500000",
          "blockHash": "0x38c917a261f23f208309cf5a23c2d277325a44461035d1f0a096eb13827283b8",
          "blockNumber": "0x418830a",
          "blockTimestamp": "0x691d72aa",
          "transactionHash": "0xacdf3fa9766420abfd598b5d9451e37e1bd62f0db637c13137faed9ec768241d",
          "transactionIndex": "0x6d",
          "logIndex": "0x1ca",
          "removed": false
        },
        {
          "address": "0x21cca8546b1550ee47134af86ae929c1fa3671c9",
          "topics": [
            "0xedfc909d0ab2a1625b7911d925efbd8200cdd99d4c7ba44e720328b17879f0b3",
            "0x000000000000000000000000a74d9b53301d0c789bea8e6037d5c3fae3498bb3"
          ],
          "data": "0x00000000000000000000000000000000000000000000001b1ae4d6e2ef500000",
          "blockHash": "0x38c917a261f23f208309cf5a23c2d277325a44461035d1f0a096eb13827283b8",
          "blockNumber": "0x418830a",
          "blockTimestamp": "0x691d72aa",
          "transactionHash": "0xacdf3fa9766420abfd598b5d9451e37e1bd62f0db637c13137faed9ec768241d",
          "transactionIndex": "0x6d",
          "logIndex": "0x1cb",
          "removed": false
        },
        {
          "address": "0x21cca8546b1550ee47134af86ae929c1fa3671c9",
          "topics": [
            "0xedfc909d0ab2a1625b7911d925efbd8200cdd99d4c7ba44e720328b17879f0b3",
            "0x0000000000000000000000005890287c0d49bba295bb4854fe71e2a1b1fec6aa"
          ],
          "data": "0x00000000000000000000000000000000000000000000001b1ae4d6e2ef500000",
          "blockHash": "0x38c917a261f23f208309cf5a23c2d277325a44461035d1f0a096eb13827283b8",
          "blockNumber": "0x418830a",
          "blockTimestamp": "0x691d72aa",
          "transactionHash": "0xacdf3fa9766420abfd598b5d9451e37e1bd62f0db637c13137faed9ec768241d",
          "transactionIndex": "0x6d",
          "logIndex": "0x1cc",
          "removed": false
        },
        {
          "address": "0x21cca8546b1550ee47134af86ae929c1fa3671c9",
          "topics": [
            "0xedfc909d0ab2a1625b7911d925efbd8200cdd99d4c7ba44e720328b17879f0b3",
            "0x00000000000000000000000004470a76666cf1814addb67ce4c895c180738556"
          ],
          "data": "0x00000000000000000000000000000000000000000000001b1ae4d6e2ef500000",
          "blockHash": "0x38c917a261f23f208309cf5a23c2d277325a44461035d1f0a096eb13827283b8",
          "blockNumber": "0x418830a",
          "blockTimestamp": "0x691d72aa",
          "transactionHash": "0xacdf3fa9766420abfd598b5d9451e37e1bd62f0db637c13137faed9ec768241d",
          "transactionIndex": "0x6d",
          "logIndex": "0x1cd",
          "removed": false
        },
        {
          "address": "0x21cca8546b1550ee47134af86ae929c1fa3671c9",
          "topics": [
            "0xedfc909d0ab2a1625b7911d925efbd8200cdd99d4c7ba44e720328b17879f0b3",
            "0x000000000000000000000000b00e0aafe585f34ee85dd5e1f4936bb102d19759"
          ],
          "data": "0x00000000000000000000000000000000000000000000001b1ae4d6e2ef500000",
          "blockHash": "0x38c917a261f23f208309cf5a23c2d277325a44461035d1f0a096eb13827283b8",
          "blockNumber": "0x418830a",
          "blockTimestamp": "0x691d72aa",
          "transactionHash": "0xacdf3fa9766420abfd598b5d9451e37e1bd62f0db637c13137faed9ec768241d",
          "transactionIndex": "0x6d",
          "logIndex": "0x1ce",
          "removed": false
        },
        {
          "address": "0x21cca8546b1550ee47134af86ae929c1fa3671c9",
          "topics": [
            "0xedfc909d0ab2a1625b7911d925efbd8200cdd99d4c7ba44e720328b17879f0b3",
            "0x000000000000000000000000093fc5fdde52bc21e31fd779da02a047c0d97fa0"
          ],
          "data": "0x00000000000000000000000000000000000000000000001b1ae4d6e2ef500000",
          "blockHash": "0x38c917a261f23f208309cf5a23c2d277325a44461035d1f0a096eb13827283b8",
          "blockNumber": "0x418830a",
          "blockTimestamp": "0x691d72aa",
          "transactionHash": "0xacdf3fa9766420abfd598b5d9451e37e1bd62f0db637c13137faed9ec768241d",
          "transactionIndex": "0x6d",
          "logIndex": "0x1cf",
          "removed": false
        },
        {
          "address": "0x21cca8546b1550ee47134af86ae929c1fa3671c9",
          "topics": [
            "0xedfc909d0ab2a1625b7911d925efbd8200cdd99d4c7ba44e720328b17879f0b3",
            "0x000000000000000000000000f57de6e00da4965373ab657eef458c28ade7e46e"
          ],
          "data": "0x00000000000000000000000000000000000000000000001b1ae4d6e2ef500000",
          "blockHash": "0x38c917a261f23f208309cf5a23c2d277325a44461035d1f0a096eb13827283b8",
          "blockNumber": "0x418830a",
          "blockTimestamp": "0x691d72aa",
          "transactionHash": "0xacdf3fa9766420abfd598b5d9451e37e1bd62f0db637c13137faed9ec768241d",
          "transactionIndex": "0x6d",
          "logIndex": "0x1d0",
          "removed": false
        },
        {
          "address": "0x21cca8546b1550ee47134af86ae929c1fa3671c9",
          "topics": [
            "0xedfc909d0ab2a1625b7911d925efbd8200cdd99d4c7ba44e720328b17879f0b3",
            "0x00000000000000000000000070b5019459676233d7e55a1e7df5788d516be652"
          ],
          "data": "0x00000000000000000000000000000000000000000000001b1ae4d6e2ef500000",
          "blockHash": "0x38c917a261f23f208309cf5a23c2d277325a44461035d1f0a096eb13827283b8",
          "blockNumber": "0x418830a",
          "blockTimestamp": "0x691d72aa",
          "transactionHash": "0xacdf3fa9766420abfd598b5d9451e37e1bd62f0db637c13137faed9ec768241d",
          "transactionIndex": "0x6d",
          "logIndex": "0x1d1",
          "removed": false
        },
        {
          "address": "0x21cca8546b1550ee47134af86ae929c1fa3671c9",
          "topics": [
            "0xedfc909d0ab2a1625b7911d925efbd8200cdd99d4c7ba44e720328b17879f0b3",
            "0x000000000000000000000000870712c02c8f7a245e8c26b3ab0464ccae19f747"
          ],
          "data": "0x00000000000000000000000000000000000000000000001b1ae4d6e2ef500000",
          "blockHash": "0x38c917a261f23f208309cf5a23c2d277325a44461035d1f0a096eb13827283b8",
          "blockNumber": "0x418830a",
          "blockTimestamp": "0x691d72aa",
          "transactionHash": "0xacdf3fa9766420abfd598b5d9451e37e1bd62f0db637c13137faed9ec768241d",
          "transactionIndex": "0x6d",
          "logIndex": "0x1d2",
          "removed": false
        },
        {
          "address": "0x21cca8546b1550ee47134af86ae929c1fa3671c9",
          "topics": [
            "0xedfc909d0ab2a1625b7911d925efbd8200cdd99d4c7ba44e720328b17879f0b3",
            "0x000000000000000000000000bb54599fd5bcb34ab1f3be9a69c84f06e80663c9"
          ],
          "data": "0x00000000000000000000000000000000000000000000001b1ae4d6e2ef500000",
          "blockHash": "0x38c917a261f23f208309cf5a23c2d277325a44461035d1f0a096eb13827283b8",
          "blockNumber": "0x418830a",
          "blockTimestamp": "0x691d72aa",
          "transactionHash": "0xacdf3fa9766420abfd598b5d9451e37e1bd62f0db637c13137faed9ec768241d",
          "transactionIndex": "0x6d",
          "logIndex": "0x1d3",
          "removed": false
        },
        {
          "address": "0x21cca8546b1550ee47134af86ae929c1fa3671c9",
          "topics": [
            "0xedfc909d0ab2a1625b7911d925efbd8200cdd99d4c7ba44e720328b17879f0b3",
            "0x00000000000000000000000028ab6640e1a64896d8fd36d8f91bd319807dc6e0"
          ],
          "data": "0x00000000000000000000000000000000000000000000001b1ae4d6e2ef500000",
          "blockHash": "0x38c917a261f23f208309cf5a23c2d277325a44461035d1f0a096eb13827283b8",
          "blockNumber": "0x418830a",
          "blockTimestamp": "0x691d72aa",
          "transactionHash": "0xacdf3fa9766420abfd598b5d9451e37e1bd62f0db637c13137faed9ec768241d",
          "transactionIndex": "0x6d",
          "logIndex": "0x1d4",
          "removed": false
        },
        {
          "address": "0x21cca8546b1550ee47134af86ae929c1fa3671c9",
          "topics": [
            "0xedfc909d0ab2a1625b7911d925efbd8200cdd99d4c7ba44e720328b17879f0b3",
            "0x000000000000000000000000e8467f00c7dbf31cc5b7ee39e998d1a069b9ed7c"
          ],
          "data": "0x00000000000000000000000000000000000000000000001b1ae4d6e2ef500000",
          "blockHash": "0x38c917a261f23f208309cf5a23c2d277325a44461035d1f0a096eb13827283b8",
          "blockNumber": "0x418830a",
          "blockTimestamp": "0x691d72aa",
          "transactionHash": "0xacdf3fa9766420abfd598b5d9451e37e1bd62f0db637c13137faed9ec768241d",
          "transactionIndex": "0x6d",
          "logIndex": "0x1d5",
          "removed": false
        },
        {
          "address": "0x21cca8546b1550ee47134af86ae929c1fa3671c9",
          "topics": [
            "0xedfc909d0ab2a1625b7911d925efbd8200cdd99d4c7ba44e720328b17879f0b3",
            "0x000000000000000000000000717674e08cc056b1f5890419c6ad1f6a374a5f49"
          ],
          "data": "0x00000000000000000000000000000000000000000000001b1ae4d6e2ef500000",
          "blockHash": "0x38c917a261f23f208309cf5a23c2d277325a44461035d1f0a096eb13827283b8",
          "blockNumber": "0x418830a",
          "blockTimestamp": "0x691d72aa",
          "transactionHash": "0xacdf3fa9766420abfd598b5d9451e37e1bd62f0db637c13137faed9ec768241d",
          "transactionIndex": "0x6d",
          "logIndex": "0x1d6",
          "removed": false
        },
        {
          "address": "0x21cca8546b1550ee47134af86ae929c1fa3671c9",
          "topics": [
            "0xedfc909d0ab2a1625b7911d925efbd8200cdd99d4c7ba44e720328b17879f0b3",
            "0x0000000000000000000000001674105997b44c584bc95e296f77ebaea75362ce"
          ],
          "data": "0x00000000000000000000000000000000000000000000001b1ae4d6e2ef500000",
          "blockHash": "0x38c917a261f23f208309cf5a23c2d277325a44461035d1f0a096eb13827283b8",
          "blockNumber": "0x418830a",
          "blockTimestamp": "0x691d72aa",
          "transactionHash": "0xacdf3fa9766420abfd598b5d9451e37e1bd62f0db637c13137faed9ec768241d",
          "transactionIndex": "0x6d",
          "logIndex": "0x1d7",
          "removed": false
        }
      ],
      "logsBloom": "0x000100480042000200400200000008000800000004009040000082301000001002200020004840b80000040a2000000000000200400408005110020010000800020000400000000021000400002202040080400001008800002800000000020400000806014012000010208000028000120840002082c0000840000008800000001240000000800000000200800004000000400000000000100108010008c0200000100000000220001000000000020c0801000800000000008000100009000080000030000000000000042000000800000010000000000080000000000000100004000002801010000020000010420410000000200000000000110100208000",
      "type": "0x0",
      "transactionHash": "0xacdf3fa9766420abfd598b5d9451e37e1bd62f0db637c13137faed9ec768241d",
      "transactionIndex": "0x6d",
      "blockHash": "0x38c917a261f23f208309cf5a23c2d277325a44461035d1f0a096eb13827283b8",
      "blockNumber": "0x418830a",
      "gasUsed": "0x1396ed",
      "effectiveGasPrice": "0x2faf080",
      "from": "0x91935e2e959fb504640280c08530156c67f89479",
      "to": "0x21cca8546b1550ee47134af86ae929c1fa3671c9",
      "contractAddress": null
    },
    {
      "status": "0x1",
      "cumulativeGasUsed": "0xfff727",
      "logs": [
        {
          "address": "0x21cca8546b1550ee47134af86ae929c1fa3671c9",
          "topics": [
            "0xedfc909d0ab2a1625b7911d925efbd8200cdd99d4c7ba44e720328b17879f0b3",
            "0x000000000000000000000000da61e1797553d61b4b0a4924066a889dccd91b94"
          ],
          "data": "0x00000000000000000000000000000000000000000000001b1ae4d6e2ef500000",
          "blockHash": "0x38c917a261f23f208309cf5a23c2d277325a44461035d1f0a096eb13827283b8",
          "blockNumber": "0x418830a",
          "blockTimestamp": "0x691d72aa",
          "transactionHash": "0x8609ffcacbe0f877fe86ac5e0e9ff8f6378eb6f8185f0cdb1d5c4ea2c51b1ae0",
          "transactionIndex": "0x6e",
          "logIndex": "0x1d8",
          "removed": false
        },
        {
          "address": "0x21cca8546b1550ee47134af86ae929c1fa3671c9",
          "topics": [
            "0xedfc909d0ab2a1625b7911d925efbd8200cdd99d4c7ba44e720328b17879f0b3",
            "0x000000000000000000000000608663bf71e9faf6b9434d56d310cd0c9292712a"
          ],
          "data": "0x00000000000000000000000000000000000000000000001b1ae4d6e2ef500000",
          "blockHash": "0x38c917a261f23f208309cf5a23c2d277325a44461035d1f0a096eb13827283b8",
          "blockNumber": "0x418830a",
          "blockTimestamp": "0x691d72aa",
          "transactionHash": "0x8609ffcacbe0f877fe86ac5e0e9ff8f6378eb6f8185f0cdb1d5c4ea2c51b1ae0",
          "transactionIndex": "0x6e",
          "logIndex": "0x1d9",
          "removed": false
        },
        {
          "address": "0x21cca8546b1550ee47134af86ae929c1fa3671c9",
          "topics": [
            "0xedfc909d0ab2a1625b7911d925efbd8200cdd99d4c7ba44e720328b17879f0b3",
            "0x000000000000000000000000650072af1752223b69d905400720bcf2bbd829cf"
          ],
          "data": "0x00000000000000000000000000000000000000000000001b1ae4d6e2ef500000",
          "blockHash": "0x38c917a261f23f208309cf5a23c2d277325a44461035d1f0a096eb13827283b8",
          "blockNumber": "0x418830a",
          "blockTimestamp": "0x691d72aa",
          "transactionHash": "0x8609ffcacbe0f877fe86ac5e0e9ff8f6378eb6f8185f0cdb1d5c4ea2c51b1ae0",
          "transactionIndex": "0x6e",
          "logIndex": "0x1da",
          "removed": false
        },
        {
          "address": "0x21cca8546b1550ee47134af86ae929c1fa3671c9",
          "topics": [
            "0xedfc909d0ab2a1625b7911d925efbd8200cdd99d4c7ba44e720328b17879f0b3",
            "0x000000000000000000000000f53c6680dcc502bc21d8327acbcaa96fd80a3a91"
          ],
          "data": "0x00000000000000000000000000000000000000000000001b1ae4d6e2ef500000",
          "blockHash": "0x38c917a261f23f208309cf5a23c2d277325a44461035d1f0a096eb13827283b8",
          "blockNumber": "0x418830a",
          "blockTimestamp": "0x691d72aa",
          "transactionHash": "0x8609ffcacbe0f877fe86ac5e0e9ff8f6378eb6f8185f0cdb1d5c4ea2c51b1ae0",
          "transactionIndex": "0x6e",
          "logIndex": "0x1db",
          "removed": false
        },
        {
          "address": "0x21cca8546b1550ee47134af86ae929c1fa3671c9",
          "topics": [
            "0xedfc909d0ab2a1625b7911d925efbd8200cdd99d4c7ba44e720328b17879f0b3",
            "0x00000000000000000000000046e38c8f85bdd08648175496e5b108d4f71f8b8e"
          ],
          "data": "0x00000000000000000000000000000000000000000000001b1ae4d6e2ef500000",
          "blockHash": "0x38c917a261f23f208309cf5a23c2d277325a44461035d1f0a096eb13827283b8",
          "blockNumber": "0x418830a",
          "blockTimestamp": "0x691d72aa",
          "transactionHash": "0x8609ffcacbe0f877fe86ac5e0e9ff8f6378eb6f8185f0cdb1d5c4ea2c51b1ae0",
          "transactionIndex": "0x6e",
          "logIndex": "0x1dc",
          "removed": false
        },
        {
          "address": "0x21cca8546b1550ee47134af86ae929c1fa3671c9",
          "topics": [
            "0xedfc909d0ab2a1625b7911d925efbd8200cdd99d4c7ba44e720328b17879f0b3",
            "0x00000000000000000000000030d197b025a6a16e897d5468c91e6bc2c4af3e5b"
          ],
          "data": "0x00000000000000000000000000000000000000000000001b1ae4d6e2ef500000",
          "blockHash": "0x38c917a261f23f208309cf5a23c2d277325a44461035d1f0a096eb13827283b8",
          "blockNumber": "0x418830a",
          "blockTimestamp": "0x691d72aa",
          "transactionHash": "0x8609ffcacbe0f877fe86ac5e0e9ff8f6378eb6f8185f0cdb1d5c4ea2c51b1ae0",
          "transactionIndex": "0x6e",
          "logIndex": "0x1dd",
          "removed": false
        },
        {
          "address": "0x21cca8546b1550ee47134af86ae929c1fa3671c9",
          "topics": [
            "0xedfc909d0ab2a1625b7911d925efbd8200cdd99d4c7ba44e720328b17879f0b3",
            "0x000000000000000000000000d05d25911331a987d09ed94d242991152e5632c7"
          ],
          "data": "0x00000000000000000000000000000000000000000000001b1ae4d6e2ef500000",
          "blockHash": "0x38c917a261f23f208309cf5a23c2d277325a44461035d1f0a096eb13827283b8",
          "blockNumber": "0x418830a",
          "blockTimestamp": "0x691d72aa",
          "transactionHash": "0x8609ffcacbe0f877fe86ac5e0e9ff8f6378eb6f8185f0cdb1d5c4ea2c51b1ae0",
          "transactionIndex": "0x6e",
          "logIndex": "0x1de",
          "removed": false
        },
        {
          "address": "0x21cca8546b1550ee47134af86ae929c1fa3671c9",
          "topics": [
            "0xedfc909d0ab2a1625b7911d925efbd8200cdd99d4c7ba44e720328b17879f0b3",
            "0x000000000000000000000000a52b4141ef92e2414a860f292d43cc9e79fb2b62"
          ],
          "data": "0x00000000000000000000000000000000000000000000001b1ae4d6e2ef500000",
          "blockHash": "0x38c917a261f23f208309cf5a23c2d277325a44461035d1f0a096eb13827283b8",
          "blockNumber": "0x418830a",
          "blockTimestamp": "0x691d72aa",
          "transactionHash": "0x8609ffcacbe0f877fe86ac5e0e9ff8f6378eb6f8185f0cdb1d5c4ea2c51b1ae0",
          "transactionIndex": "0x6e",
          "logIndex": "0x1df",
          "removed": false
        },
        {
          "address": "0x21cca8546b1550ee47134af86ae929c1fa3671c9",
          "topics": [
            "0xedfc909d0ab2a1625b7911d925efbd8200cdd99d4c7ba44e720328b17879f0b3",
            "0x00000000000000000000000023462c8cb95414a11eaa1e9402047d1a8ae0f5bb"
          ],
          "data": "0x00000000000000000000000000000000000000000000001b1ae4d6e2ef500000",
          "blockHash": "0x38c917a261f23f208309cf5a23c2d277325a44461035d1f0a096eb13827283b8",
          "blockNumber": "0x418830a",
          "blockTimestamp": "0x691d72aa",
          "transactionHash": "0x8609ffcacbe0f877fe86ac5e0e9ff8f6378eb6f8185f0cdb1d5c4ea2c51b1ae0",
          "transactionIndex": "0x6e",
          "logIndex": "0x1e0",
          "removed": false
        },
        {
          "address": "0x21cca8546b1550ee47134af86ae929c1fa3671c9",
          "topics": [
            "0xedfc909d0ab2a1625b7911d925efbd8200cdd99d4c7ba44e720328b17879f0b3",
            "0x000000000000000000000000a6ee6e502e876320e2197a445f77c20ad3db9c87"
          ],
          "data": "0x00000000000000000000000000000000000000000000001b1ae4d6e2ef500000",
          "blockHash": "0x38c917a261f23f208309cf5a23c2d277325a44461035d1f0a096eb13827283b8",
          "blockNumber": "0x418830a",
          "blockTimestamp": "0x691d72aa",
          "transactionHash": "0x8609ffcacbe0f877fe86ac5e0e9ff8f6378eb6f8185f0cdb1d5c4ea2c51b1ae0",
          "transactionIndex": "0x6e",
          "logIndex": "0x1e1",
          "removed": false
        },
        {
          "address": "0x21cca8546b1550ee47134af86ae929c1fa3671c9",
          "topics": [
            "0xedfc909d0ab2a1625b7911d925efbd8200cdd99d4c7ba44e720328b17879f0b3",
            "0x00000000000000000000000016b3e07d91c60c997b1bcba62d346c91a6e49ee6"
          ],
          "data": "0x00000000000000000000000000000000000000000000001b1ae4d6e2ef500000",
          "blockHash": "0x38c917a261f23f208309cf5a23c2d277325a44461035d1f0a096eb13827283b8",
          "blockNumber": "0x418830a",
          "blockTimestamp": "0x691d72aa",
          "transactionHash": "0x8609ffcacbe0f877fe86ac5e0e9ff8f6378eb6f8185f0cdb1d5c4ea2c51b1ae0",
          "transactionIndex": "0x6e",
          "logIndex": "0x1e2",
          "removed": false
        },
        {
          "address": "0x21cca8546b1550ee47134af86ae929c1fa3671c9",
          "topics": [
            "0xedfc909d0ab2a1625b7911d925efbd8200cdd99d4c7ba44e720328b17879f0b3",
            "0x0000000000000000000000007704a01d4231d1eabbf6cfd1e3c9d013ff99f84b"
          ],
          "data": "0x00000000000000000000000000000000000000000000001b1ae4d6e2ef500000",
          "blockHash": "0x38c917a261f23f208309cf5a23c2d277325a44461035d1f0a096eb13827283b8",
          "blockNumber": "0x418830a",
          "blockTimestamp": "0x691d72aa",
          "transactionHash": "0x8609ffcacbe0f877fe86ac5e0e9ff8f6378eb6f8185f0cdb1d5c4ea2c51b1ae0",
          "transactionIndex": "0x6e",
          "logIndex": "0x1e3",
          "removed": false
        },
        {
          "address": "0x21cca8546b1550ee47134af86ae929c1fa3671c9",
          "topics": [
            "0xedfc909d0ab2a1625b7911d925efbd8200cdd99d4c7ba44e720328b17879f0b3",
            "0x0000000000000000000000006c7dc02b8ddd59289cc84a2c293e51ecc14b3dcc"
          ],
          "data": "0x00000000000000000000000000000000000000000000001b1ae4d6e2ef500000",
          "blockHash": "0x38c917a261f23f208309cf5a23c2d277325a44461035d1f0a096eb13827283b8",
          "blockNumber": "0x418830a",
          "blockTimestamp": "0x691d72aa",
          "transactionHash": "0x8609ffcacbe0f877fe86ac5e0e9ff8f6378eb6f8185f0cdb1d5c4ea2c51b1ae0",
          "transactionIndex": "0x6e",
          "logIndex": "0x1e4",
          "removed": false
        },
        {
          "address": "0x21cca8546b1550ee47134af86ae929c1fa3671c9",
          "topics": [
            "0xedfc909d0ab2a1625b7911d925efbd8200cdd99d4c7ba44e720328b17879f0b3",
            "0x0000000000000000000000000c15cf05f03a8fe6262b328e416f5401a08fe281"
          ],
          "data": "0x00000000000000000000000000000000000000000000001b1ae4d6e2ef500000",
          "blockHash": "0x38c917a261f23f208309cf5a23c2d277325a44461035d1f0a096eb13827283b8",
          "blockNumber": "0x418830a",
          "blockTimestamp": "0x691d72aa",
          "transactionHash": "0x8609ffcacbe0f877fe86ac5e0e9ff8f6378eb6f8185f0cdb1d5c4ea2c51b1ae0",
          "transactionIndex": "0x6e",
          "logIndex": "0x1e5",
          "removed": false
        },
        {
          "address": "0x21cca8546b1550ee47134af86ae929c1fa3671c9",
          "topics": [
            "0xedfc909d0ab2a1625b7911d925efbd8200cdd99d4c7ba44e720328b17879f0b3",
            "0x0000000000000000000000000815f3dab201967559a5fdd606248cbbdddf3a68"
          ],
          "data": "0x00000000000000000000000000000000000000000000001b1ae4d6e2ef500000",
          "blockHash": "0x38c917a261f23f208309cf5a23c2d277325a44461035d1f0a096eb13827283b8",
          "blockNumber": "0x418830a",
          "blockTimestamp": "0x691d72aa",
          "transactionHash": "0x8609ffcacbe0f877fe86ac5e0e9ff8f6378eb6f8185f0cdb1d5c4ea2c51b1ae0",
          "transactionIndex": "0x6e",
          "logIndex": "0x1e6",
          "removed": false
        },
        {
          "address": "0x21cca8546b1550ee47134af86ae929c1fa3671c9",
          "topics": [
            "0xedfc909d0ab2a1625b7911d925efbd8200cdd99d4c7ba44e720328b17879f0b3",
            "0x000000000000000000000000496d2e92ab7ae6ef28459c91183dfa0926ab7992"
          ],
          "data": "0x00000000000000000000000000000000000000000000001b1ae4d6e2ef500000",
          "blockHash": "0x38c917a261f23f208309cf5a23c2d277325a44461035d1f0a096eb13827283b8",
          "blockNumber": "0x418830a",
          "blockTimestamp": "0x691d72aa",
          "transactionHash": "0x8609ffcacbe0f877fe86ac5e0e9ff8f6378eb6f8185f0cdb1d5c4ea2c51b1ae0",
          "transactionIndex": "0x6e",
          "logIndex": "0x1e7",
          "removed": false
        }
      ],
      "logsBloom": "0x00000020000000000000000000000000000800000001000000000000000100000000400000000020000000000000000008000201001000001100000000020000000000000000010021001000000000000020000000000000000000080008000000000000000010000000000000008000000000000000000400400000000000000000008100000000001000000000000000000000040028000000000002000000800000120000000100000000000000000200000000000000000000000000100010000000004000000000000000000204080000008000040000000080020000000000000001000000000040000000010000000000020000000010100000000000",
      "type": "0x0",
      "transactionHash": "0x8609ffcacbe0f877fe86ac5e0e9ff8f6378eb6f8185f0cdb1d5c4ea2c51b1ae0",
      "transactionIndex": "0x6e",
      "blockHash": "0x38c917a261f23f208309cf5a23c2d277325a44461035d1f0a096eb13827283b8",
      "blockNumber": "0x418830a",
      "gasUsed": "0x686f1",
      "effectiveGasPrice": "0x2faf080",
      "from": "0x91935e2e959fb504640280c08530156c67f89479",
      "to": "0x21cca8546b1550ee47134af86ae929c1fa3671c9",
      "contractAddress": null
    }
  ],
  "libraries": [],
  "pending": [],
  "returns": {},
  "timestamp": 1763537579,
  "chain": 56,
  "commit": "311ead3"
}