{
  "transactions": [
    {
      "hash": "0x403dca70b175200f289f9a3868ce1efb59280a47b085bf3128fb30c5f08dcabd",
      "transactionType": "CALL",
      "contractName": null,
      "contractAddress": "0x21cca8546b1550ee47134af86ae929c1fa3671c9",
      "function": "setPresaleActive(bool)",
      "arguments": [
        "true"
      ],
      "transaction": {
        "from": "0x91935e2e959fb504640280c08530156c67f89479",
        "to": "0x21cca8546b1550ee47134af86ae929c1fa3671c9",
        "gas": "0x10da9",
        "value": "0x0",
        "input": "0x3f8121a20000000000000000000000000000000000000000000000000000000000000001",
        "nonce": "0xb2",
        "chainId": "0x38"
      },
      "additionalContracts": [],
      "isFixedGasLimit": false
    }
  ],
  "receipts": [
    {
      "status": "0x1",
      "cumulativeGasUsed": "0xedf1d9",
      "logs": [
        {
          "address": "0x21cca8546b1550ee47134af86ae929c1fa3671c9",
          "topics": [
            "0x1f1a6b0fcc71315f2c3aeddbd1f6d527595d21eea9b73160e78d6fa49b7897a6"
          ],
          "data": "0x0000000000000000000000000000000000000000000000000000000000000001",
          "blockHash": "0x96d03538b80d578051ea1910a8141d0f31fcc67c3182f057d5cba0bd98aa0089",
          "blockNumber": "0x4137f5c",
          "blockTimestamp": "0x6919afd1",
          "transactionHash": "0x403dca70b175200f289f9a3868ce1efb59280a47b085bf3128fb30c5f08dcabd",
          "transactionIndex": "0x6e",
          "logIndex": "0x18b",
          "removed": false
        }
      ],
      "logsBloom": "0x00000000000000000000000000000000000000000000000000000000000000000000000000000020000000000000000000000000000000000000010000000000000000000000000000000000000000000000000000000000000000000000000000000000000000000020000000008000000000000000000000000000000000000000000000000000000000000000000000000000000000000000000000000000000000000000000000000000000000000000000000000000000000000000000000000000000000000000000000000000000000000000000000000000000000000000000000000000000000000000000000000000000000000000100100000000",
      "type": "0x0",
      "transactionHash": "0x403dca70b175200f289f9a3868ce1efb59280a47b085bf3128fb30c5f08dcabd",
      "transactionIndex": "0x6e",
      "blockHash": "0x96d03538b80d578051ea1910a8141d0f31fcc67c3182f057d5cba0bd98aa0089",
      "blockNumber": "0x4137f5c",
      "gasUsed": "0xb863",
      "effectiveGasPrice": "0x2faf080",
      "from": "0x91935e2e959fb504640280c08530156c67f89479",
      "to": "0x21cca8546b1550ee47134af86ae929c1fa3671c9",
      "contractAddress": null
    }
  ],
  "libraries": [],
  "pending": [],
  "returns": {},
  "timestamp": 1763291090,
  "chain": 56,
  "commit": "311ead3"
}